{
	"crop.sol": {
		"NFTOPIA": {
			"abi": [
				{
					"inputs": [],
					"stateMutability": "nonpayable",
					"type": "constructor"
				},
				{
					"inputs": [
						{
							"internalType": "address",
							"name": "sender",
							"type": "address"
						},
						{
							"internalType": "uint256",
							"name": "tokenId",
							"type": "uint256"
						},
						{
							"internalType": "address",
							"name": "owner",
							"type": "address"
						}
					],
					"name": "ERC721IncorrectOwner",
					"type": "error"
				},
				{
					"inputs": [
						{
							"internalType": "address",
							"name": "operator",
							"type": "address"
						},
						{
							"internalType": "uint256",
							"name": "tokenId",
							"type": "uint256"
						}
					],
					"name": "ERC721InsufficientApproval",
					"type": "error"
				},
				{
					"inputs": [
						{
							"internalType": "address",
							"name": "approver",
							"type": "address"
						}
					],
					"name": "ERC721InvalidApprover",
					"type": "error"
				},
				{
					"inputs": [
						{
							"internalType": "address",
							"name": "operator",
							"type": "address"
						}
					],
					"name": "ERC721InvalidOperator",
					"type": "error"
				},
				{
					"inputs": [
						{
							"internalType": "address",
							"name": "owner",
							"type": "address"
						}
					],
					"name": "ERC721InvalidOwner",
					"type": "error"
				},
				{
					"inputs": [
						{
							"internalType": "address",
							"name": "receiver",
							"type": "address"
						}
					],
					"name": "ERC721InvalidReceiver",
					"type": "error"
				},
				{
					"inputs": [
						{
							"internalType": "address",
							"name": "sender",
							"type": "address"
						}
					],
					"name": "ERC721InvalidSender",
					"type": "error"
				},
				{
					"inputs": [
						{
							"internalType": "uint256",
							"name": "tokenId",
							"type": "uint256"
						}
					],
					"name": "ERC721NonexistentToken",
					"type": "error"
				},
				{
					"inputs": [
						{
							"internalType": "address",
							"name": "owner",
							"type": "address"
						}
					],
					"name": "OwnableInvalidOwner",
					"type": "error"
				},
				{
					"inputs": [
						{
							"internalType": "address",
							"name": "account",
							"type": "address"
						}
					],
					"name": "OwnableUnauthorizedAccount",
					"type": "error"
				},
				{
					"anonymous": false,
					"inputs": [
						{
							"indexed": true,
							"internalType": "address",
							"name": "owner",
							"type": "address"
						},
						{
							"indexed": true,
							"internalType": "address",
							"name": "approved",
							"type": "address"
						},
						{
							"indexed": true,
							"internalType": "uint256",
							"name": "tokenId",
							"type": "uint256"
						}
					],
					"name": "Approval",
					"type": "event"
				},
				{
					"anonymous": false,
					"inputs": [
						{
							"indexed": true,
							"internalType": "address",
							"name": "owner",
							"type": "address"
						},
						{
							"indexed": true,
							"internalType": "address",
							"name": "operator",
							"type": "address"
						},
						{
							"indexed": false,
							"internalType": "bool",
							"name": "approved",
							"type": "bool"
						}
					],
					"name": "ApprovalForAll",
					"type": "event"
				},
				{
					"anonymous": false,
					"inputs": [
						{
							"indexed": true,
							"internalType": "address",
							"name": "previousOwner",
							"type": "address"
						},
						{
							"indexed": true,
							"internalType": "address",
							"name": "newOwner",
							"type": "address"
						}
					],
					"name": "OwnershipTransferred",
					"type": "event"
				},
				{
					"anonymous": false,
					"inputs": [
						{
							"indexed": true,
							"internalType": "address",
							"name": "from",
							"type": "address"
						},
						{
							"indexed": true,
							"internalType": "address",
							"name": "to",
							"type": "address"
						},
						{
							"indexed": true,
							"internalType": "uint256",
							"name": "tokenId",
							"type": "uint256"
						}
					],
					"name": "Transfer",
					"type": "event"
				},
				{
					"inputs": [],
					"name": "adminAddress",
					"outputs": [
						{
							"internalType": "address",
							"name": "",
							"type": "address"
						}
					],
					"stateMutability": "view",
					"type": "function"
				},
				{
					"inputs": [
						{
							"internalType": "address",
							"name": "to",
							"type": "address"
						},
						{
							"internalType": "uint256",
							"name": "tokenId",
							"type": "uint256"
						}
					],
					"name": "approve",
					"outputs": [],
					"stateMutability": "nonpayable",
					"type": "function"
				},
				{
					"inputs": [
						{
							"internalType": "address",
							"name": "owner",
							"type": "address"
						}
					],
					"name": "balanceOf",
					"outputs": [
						{
							"internalType": "uint256",
							"name": "",
							"type": "uint256"
						}
					],
					"stateMutability": "view",
					"type": "function"
				},
				{
					"inputs": [
						{
							"internalType": "uint256",
							"name": "tokenId",
							"type": "uint256"
						}
					],
					"name": "burnToken",
					"outputs": [],
					"stateMutability": "nonpayable",
					"type": "function"
				},
				{
					"inputs": [
						{
							"internalType": "uint256",
							"name": "tokenId",
							"type": "uint256"
						}
					],
					"name": "buyToken",
					"outputs": [],
					"stateMutability": "payable",
					"type": "function"
				},
				{
					"inputs": [
						{
							"internalType": "uint256",
							"name": "tokenId",
							"type": "uint256"
						}
					],
					"name": "buyUserNft",
					"outputs": [],
					"stateMutability": "payable",
					"type": "function"
				},
				{
					"inputs": [
						{
							"internalType": "uint256",
							"name": "tokenId",
							"type": "uint256"
						}
					],
					"name": "getApproved",
					"outputs": [
						{
							"internalType": "address",
							"name": "",
							"type": "address"
						}
					],
					"stateMutability": "view",
					"type": "function"
				},
				{
					"inputs": [
						{
							"internalType": "address",
							"name": "owner",
							"type": "address"
						},
						{
							"internalType": "address",
							"name": "operator",
							"type": "address"
						}
					],
					"name": "isApprovedForAll",
					"outputs": [
						{
							"internalType": "bool",
							"name": "",
							"type": "bool"
						}
					],
					"stateMutability": "view",
					"type": "function"
				},
				{
					"inputs": [
						{
							"internalType": "uint256",
							"name": "tokenId",
							"type": "uint256"
						},
						{
							"internalType": "uint256",
							"name": "salePrice",
							"type": "uint256"
						}
					],
					"name": "listNFTForSale",
					"outputs": [],
					"stateMutability": "nonpayable",
					"type": "function"
				},
				{
					"inputs": [
						{
							"internalType": "uint256",
							"name": "tokenId",
							"type": "uint256"
						},
						{
							"internalType": "uint256",
							"name": "salePrice",
							"type": "uint256"
						}
					],
					"name": "mint",
					"outputs": [],
					"stateMutability": "nonpayable",
					"type": "function"
				},
				{
					"inputs": [],
					"name": "name",
					"outputs": [
						{
							"internalType": "string",
							"name": "",
							"type": "string"
						}
					],
					"stateMutability": "view",
					"type": "function"
				},
				{
					"inputs": [
						{
							"internalType": "address",
							"name": "",
							"type": "address"
						},
						{
							"internalType": "address",
							"name": "",
							"type": "address"
						},
						{
							"internalType": "uint256",
							"name": "",
							"type": "uint256"
						},
						{
							"internalType": "bytes",
							"name": "",
							"type": "bytes"
						}
					],
					"name": "onERC721Received",
					"outputs": [
						{
							"internalType": "bytes4",
							"name": "",
							"type": "bytes4"
						}
					],
					"stateMutability": "nonpayable",
					"type": "function"
				},
				{
					"inputs": [],
					"name": "owner",
					"outputs": [
						{
							"internalType": "address",
							"name": "",
							"type": "address"
						}
					],
					"stateMutability": "view",
					"type": "function"
				},
				{
					"inputs": [
						{
							"internalType": "uint256",
							"name": "tokenId",
							"type": "uint256"
						}
					],
					"name": "ownerOf",
					"outputs": [
						{
							"internalType": "address",
							"name": "",
							"type": "address"
						}
					],
					"stateMutability": "view",
					"type": "function"
				},
				{
					"inputs": [
						{
							"internalType": "uint256",
							"name": "tokenId",
							"type": "uint256"
						}
					],
					"name": "readTokenInfo",
					"outputs": [
						{
							"components": [
								{
									"internalType": "uint256",
									"name": "salePrice",
									"type": "uint256"
								}
							],
							"internalType": "struct NFTOPIA.SaleInfo",
							"name": "",
							"type": "tuple"
						}
					],
					"stateMutability": "view",
					"type": "function"
				},
				{
					"inputs": [],
					"name": "renounceOwnership",
					"outputs": [],
					"stateMutability": "nonpayable",
					"type": "function"
				},
				{
					"inputs": [
						{
							"internalType": "address",
							"name": "from",
							"type": "address"
						},
						{
							"internalType": "address",
							"name": "to",
							"type": "address"
						},
						{
							"internalType": "uint256",
							"name": "tokenId",
							"type": "uint256"
						}
					],
					"name": "safeTransferFrom",
					"outputs": [],
					"stateMutability": "nonpayable",
					"type": "function"
				},
				{
					"inputs": [
						{
							"internalType": "address",
							"name": "from",
							"type": "address"
						},
						{
							"internalType": "address",
							"name": "to",
							"type": "address"
						},
						{
							"internalType": "uint256",
							"name": "tokenId",
							"type": "uint256"
						},
						{
							"internalType": "bytes",
							"name": "data",
							"type": "bytes"
						}
					],
					"name": "safeTransferFrom",
					"outputs": [],
					"stateMutability": "nonpayable",
					"type": "function"
				},
				{
					"inputs": [
						{
							"internalType": "uint256",
							"name": "",
							"type": "uint256"
						}
					],
					"name": "saleInfo",
					"outputs": [
						{
							"internalType": "uint256",
							"name": "salePrice",
							"type": "uint256"
						}
					],
					"stateMutability": "view",
					"type": "function"
				},
				{
					"inputs": [
						{
							"internalType": "address",
							"name": "_admin",
							"type": "address"
						}
					],
					"name": "setAdmin",
					"outputs": [],
					"stateMutability": "nonpayable",
					"type": "function"
				},
				{
					"inputs": [
						{
							"internalType": "address",
							"name": "operator",
							"type": "address"
						},
						{
							"internalType": "bool",
							"name": "approved",
							"type": "bool"
						}
					],
					"name": "setApprovalForAll",
					"outputs": [],
					"stateMutability": "nonpayable",
					"type": "function"
				},
				{
					"inputs": [
						{
							"internalType": "string",
							"name": "_uri",
							"type": "string"
						}
					],
					"name": "setBaseUri",
					"outputs": [],
					"stateMutability": "nonpayable",
					"type": "function"
				},
				{
					"inputs": [
						{
							"internalType": "bytes4",
							"name": "interfaceId",
							"type": "bytes4"
						}
					],
					"name": "supportsInterface",
					"outputs": [
						{
							"internalType": "bool",
							"name": "",
							"type": "bool"
						}
					],
					"stateMutability": "view",
					"type": "function"
				},
				{
					"inputs": [],
					"name": "symbol",
					"outputs": [
						{
							"internalType": "string",
							"name": "",
							"type": "string"
						}
					],
					"stateMutability": "view",
					"type": "function"
				},
				{
					"inputs": [
						{
							"internalType": "uint256",
							"name": "tokenId",
							"type": "uint256"
						}
					],
					"name": "tokenURI",
					"outputs": [
						{
							"internalType": "string",
							"name": "",
							"type": "string"
						}
					],
					"stateMutability": "view",
					"type": "function"
				},
				{
					"inputs": [
						{
							"internalType": "uint256",
							"name": "tokenIdSent",
							"type": "uint256"
						},
						{
							"internalType": "uint256",
							"name": "tokenIdReceived",
							"type": "uint256"
						}
					],
					"name": "tradeNFTs",
					"outputs": [],
					"stateMutability": "nonpayable",
					"type": "function"
				},
				{
					"inputs": [
						{
							"internalType": "address",
							"name": "from",
							"type": "address"
						},
						{
							"internalType": "address",
							"name": "to",
							"type": "address"
						},
						{
							"internalType": "uint256",
							"name": "tokenId",
							"type": "uint256"
						}
					],
					"name": "transferFrom",
					"outputs": [],
					"stateMutability": "nonpayable",
					"type": "function"
				},
				{
					"inputs": [
						{
							"internalType": "address",
							"name": "newOwner",
							"type": "address"
						}
					],
					"name": "transferOwnership",
					"outputs": [],
					"stateMutability": "nonpayable",
					"type": "function"
				},
				{
					"inputs": [
						{
							"internalType": "uint256",
							"name": "tokenId",
							"type": "uint256"
						},
						{
							"internalType": "uint256",
							"name": "salePrice",
							"type": "uint256"
						},
						{
							"internalType": "address",
							"name": "user",
							"type": "address"
						}
					],
					"name": "userMint",
					"outputs": [],
					"stateMutability": "nonpayable",
					"type": "function"
				}
			],
			"devdoc": {
				"errors": {
					"ERC721IncorrectOwner(address,uint256,address)": [
						{
							"details": "Indicates an error related to the ownership over a particular token. Used in transfers.",
							"params": {
								"owner": "Address of the current owner of a token.",
								"sender": "Address whose tokens are being transferred.",
								"tokenId": "Identifier number of a token."
							}
						}
					],
					"ERC721InsufficientApproval(address,uint256)": [
						{
							"details": "Indicates a failure with the `operator`’s approval. Used in transfers.",
							"params": {
								"operator": "Address that may be allowed to operate on tokens without being their owner.",
								"tokenId": "Identifier number of a token."
							}
						}
					],
					"ERC721InvalidApprover(address)": [
						{
							"details": "Indicates a failure with the `approver` of a token to be approved. Used in approvals.",
							"params": {
								"approver": "Address initiating an approval operation."
							}
						}
					],
					"ERC721InvalidOperator(address)": [
						{
							"details": "Indicates a failure with the `operator` to be approved. Used in approvals.",
							"params": {
								"operator": "Address that may be allowed to operate on tokens without being their owner."
							}
						}
					],
					"ERC721InvalidOwner(address)": [
						{
							"details": "Indicates that an address can't be an owner. For example, `address(0)` is a forbidden owner in EIP-20. Used in balance queries.",
							"params": {
								"owner": "Address of the current owner of a token."
							}
						}
					],
					"ERC721InvalidReceiver(address)": [
						{
							"details": "Indicates a failure with the token `receiver`. Used in transfers.",
							"params": {
								"receiver": "Address to which tokens are being transferred."
							}
						}
					],
					"ERC721InvalidSender(address)": [
						{
							"details": "Indicates a failure with the token `sender`. Used in transfers.",
							"params": {
								"sender": "Address whose tokens are being transferred."
							}
						}
					],
					"ERC721NonexistentToken(uint256)": [
						{
							"details": "Indicates a `tokenId` whose `owner` is the zero address.",
							"params": {
								"tokenId": "Identifier number of a token."
							}
						}
					],
					"OwnableInvalidOwner(address)": [
						{
							"details": "The owner is not a valid owner account. (eg. `address(0)`)"
						}
					],
					"OwnableUnauthorizedAccount(address)": [
						{
							"details": "The caller account is not authorized to perform an operation."
						}
					]
				},
				"events": {
					"Approval(address,address,uint256)": {
						"details": "Emitted when `owner` enables `approved` to manage the `tokenId` token."
					},
					"ApprovalForAll(address,address,bool)": {
						"details": "Emitted when `owner` enables or disables (`approved`) `operator` to manage all of its assets."
					},
					"Transfer(address,address,uint256)": {
						"details": "Emitted when `tokenId` token is transferred from `from` to `to`."
					}
				},
				"kind": "dev",
				"methods": {
					"approve(address,uint256)": {
						"details": "See {IERC721-approve}."
					},
					"balanceOf(address)": {
						"details": "See {IERC721-balanceOf}."
					},
					"getApproved(uint256)": {
						"details": "See {IERC721-getApproved}."
					},
					"isApprovedForAll(address,address)": {
						"details": "See {IERC721-isApprovedForAll}."
					},
					"name()": {
						"details": "See {IERC721Metadata-name}."
					},
					"onERC721Received(address,address,uint256,bytes)": {
						"details": "See {IERC721Receiver-onERC721Received}. Always returns `IERC721Receiver.onERC721Received.selector`."
					},
					"owner()": {
						"details": "Returns the address of the current owner."
					},
					"ownerOf(uint256)": {
						"details": "See {IERC721-ownerOf}."
					},
					"renounceOwnership()": {
						"details": "Leaves the contract without owner. It will not be possible to call `onlyOwner` functions. Can only be called by the current owner. NOTE: Renouncing ownership will leave the contract without an owner, thereby disabling any functionality that is only available to the owner."
					},
					"safeTransferFrom(address,address,uint256)": {
						"details": "See {IERC721-safeTransferFrom}."
					},
					"safeTransferFrom(address,address,uint256,bytes)": {
						"details": "See {IERC721-safeTransferFrom}."
					},
					"setApprovalForAll(address,bool)": {
						"details": "See {IERC721-setApprovalForAll}."
					},
					"supportsInterface(bytes4)": {
						"details": "See {IERC165-supportsInterface}."
					},
					"symbol()": {
						"details": "See {IERC721Metadata-symbol}."
					},
					"tokenURI(uint256)": {
						"details": "See {IERC721Metadata-tokenURI}."
					},
					"transferFrom(address,address,uint256)": {
						"details": "See {IERC721-transferFrom}."
					},
					"transferOwnership(address)": {
						"details": "Transfers ownership of the contract to a new account (`newOwner`). Can only be called by the current owner."
					}
				},
				"version": 1
			},
			"evm": {
				"assembly": "    /* \"crop.sol\":394:421  string private baseUri = \"\" */\n  0xa0\n    /* \"crop.sol\":239:3729  contract NFTOPIA is ERC721, Ownable(msg.sender), ERC721Holder {... */\n  0x40\n    /* \"crop.sol\":394:421  string private baseUri = \"\" */\n  mstore\n  0x00\n    /* \"crop.sol\":239:3729  contract NFTOPIA is ERC721, Ownable(msg.sender), ERC721Holder {... */\n  0x80\n    /* \"crop.sol\":394:421  string private baseUri = \"\" */\n  swap1\n  dup2\n  mstore\n  0x07\n  swap1\n  tag_1\n  swap1\n  dup3\n  tag_2\n  jump\t// in\ntag_1:\n  pop\n    /* \"crop.sol\":307:388  constructor() ERC721(\"NFTOPIA\", \"NFP\") {... */\n  callvalue\n  dup1\n  iszero\n  tag_3\n  jumpi\n  0x00\n  dup1\n  revert\ntag_3:\n  pop\n    /* \"crop.sol\":275:285  msg.sender */\n  caller\n    /* \"@openzeppelin/contracts/token/ERC721/ERC721.sol\":1381:1494  constructor(string memory name_, string memory symbol_) {... */\n  mload(0x40)\n  dup1\n  0x40\n  add\n  0x40\n  mstore\n  dup1\n  0x07\n  dup2\n  mstore\n  0x20\n  add\n  shl(0xc8, 0x4e46544f504941)\n  dup2\n  mstore\n  pop\n  mload(0x40)\n  dup1\n  0x40\n  add\n  0x40\n  mstore\n  dup1\n  0x03\n  dup2\n  mstore\n  0x20\n  add\n  shl(0xec, 0x04e465)\n  dup2\n  mstore\n  pop\n    /* \"@openzeppelin/contracts/token/ERC721/ERC721.sol\":1455:1460  name_ */\n  dup2\n    /* \"@openzeppelin/contracts/token/ERC721/ERC721.sol\":1447:1452  _name */\n  0x00\n    /* \"@openzeppelin/contracts/token/ERC721/ERC721.sol\":1447:1460  _name = name_ */\n  swap1\n  dup2\n  tag_8\n  swap2\n  swap1\n  tag_2\n  jump\t// in\ntag_8:\n  pop\n    /* \"@openzeppelin/contracts/token/ERC721/ERC721.sol\":1470:1477  _symbol */\n  0x01\n    /* \"@openzeppelin/contracts/token/ERC721/ERC721.sol\":1470:1487  _symbol = symbol_ */\n  tag_9\n    /* \"@openzeppelin/contracts/token/ERC721/ERC721.sol\":1480:1487  symbol_ */\n  dup3\n    /* \"@openzeppelin/contracts/token/ERC721/ERC721.sol\":1470:1477  _symbol */\n  dup3\n    /* \"@openzeppelin/contracts/token/ERC721/ERC721.sol\":1470:1487  _symbol = symbol_ */\n  tag_2\n  jump\t// in\ntag_9:\n  pop\n  pop\n  pop\n  sub(shl(0xa0, 0x01), 0x01)\n    /* \"@openzeppelin/contracts/access/Ownable.sol\":1273:1299  initialOwner == address(0) */\n  dup2\n  and\n    /* \"@openzeppelin/contracts/access/Ownable.sol\":1269:1364  if (initialOwner == address(0)) {... */\n  tag_11\n  jumpi\n    /* \"@openzeppelin/contracts/access/Ownable.sol\":1322:1353  OwnableInvalidOwner(address(0)) */\n  mload(0x40)\n  shl(0xe0, 0x1e4fbdf7)\n  dup2\n  mstore\n    /* \"@openzeppelin/contracts/access/Ownable.sol\":1350:1351  0 */\n  0x00\n    /* \"@openzeppelin/contracts/access/Ownable.sol\":1322:1353  OwnableInvalidOwner(address(0)) */\n  0x04\n  dup3\n  add\n    /* \"#utility.yul\":2847:2898   */\n  mstore\n    /* \"#utility.yul\":2820:2838   */\n  0x24\n  add\n    /* \"@openzeppelin/contracts/access/Ownable.sol\":1322:1353  OwnableInvalidOwner(address(0)) */\n  mload(0x40)\n  dup1\n  swap2\n  sub\n  swap1\n  revert\n    /* \"@openzeppelin/contracts/access/Ownable.sol\":1269:1364  if (initialOwner == address(0)) {... */\ntag_11:\n    /* \"@openzeppelin/contracts/access/Ownable.sol\":1373:1405  _transferOwnership(initialOwner) */\n  tag_14\n    /* \"@openzeppelin/contracts/access/Ownable.sol\":1392:1404  initialOwner */\n  dup2\n    /* \"@openzeppelin/contracts/access/Ownable.sol\":1373:1391  _transferOwnership */\n  tag_15\n    /* \"@openzeppelin/contracts/access/Ownable.sol\":1373:1405  _transferOwnership(initialOwner) */\n  jump\t// in\ntag_14:\n  pop\n    /* \"crop.sol\":356:368  adminAddress */\n  0x09\n    /* \"crop.sol\":356:381  adminAddress = msg.sender */\n  dup1\n  sload\n  not(sub(shl(0xa0, 0x01), 0x01))\n  and\n    /* \"crop.sol\":371:381  msg.sender */\n  caller\n    /* \"crop.sol\":356:381  adminAddress = msg.sender */\n  or\n  swap1\n  sstore\n    /* \"crop.sol\":239:3729  contract NFTOPIA is ERC721, Ownable(msg.sender), ERC721Holder {... */\n  jump(tag_24)\n    /* \"@openzeppelin/contracts/access/Ownable.sol\":2912:3099  function _transferOwnership(address newOwner) internal virtual {... */\ntag_15:\n    /* \"@openzeppelin/contracts/access/Ownable.sol\":3004:3010  _owner */\n  0x06\n  dup1\n  sload\n  sub(shl(0xa0, 0x01), 0x01)\n    /* \"@openzeppelin/contracts/access/Ownable.sol\":3020:3037  _owner = newOwner */\n  dup4\n  dup2\n  and\n  not(sub(shl(0xa0, 0x01), 0x01))\n  dup4\n  and\n  dup2\n  or\n  swap1\n  swap4\n  sstore\n    /* \"@openzeppelin/contracts/access/Ownable.sol\":3052:3092  OwnershipTransferred(oldOwner, newOwner) */\n  mload(0x40)\n    /* \"@openzeppelin/contracts/access/Ownable.sol\":3004:3010  _owner */\n  swap2\n  and\n  swap2\n    /* \"@openzeppelin/contracts/access/Ownable.sol\":3020:3037  _owner = newOwner */\n  swap1\n    /* \"@openzeppelin/contracts/access/Ownable.sol\":3004:3010  _owner */\n  dup3\n  swap1\n    /* \"@openzeppelin/contracts/access/Ownable.sol\":3052:3092  OwnershipTransferred(oldOwner, newOwner) */\n  0x8be0079c531659141344cd1fd0a4f28419497f9722a3daafe3b4186f6b6457e0\n  swap1\n    /* \"@openzeppelin/contracts/access/Ownable.sol\":2985:3001  address oldOwner */\n  0x00\n  swap1\n    /* \"@openzeppelin/contracts/access/Ownable.sol\":3052:3092  OwnershipTransferred(oldOwner, newOwner) */\n  log3\n    /* \"@openzeppelin/contracts/access/Ownable.sol\":2975:3099  {... */\n  pop\n    /* \"@openzeppelin/contracts/access/Ownable.sol\":2912:3099  function _transferOwnership(address newOwner) internal virtual {... */\n  pop\n  jump\t// out\n    /* \"#utility.yul\":14:141   */\ntag_19:\n    /* \"#utility.yul\":75:85   */\n  0x4e487b71\n    /* \"#utility.yul\":70:73   */\n  0xe0\n    /* \"#utility.yul\":66:86   */\n  shl\n    /* \"#utility.yul\":63:64   */\n  0x00\n    /* \"#utility.yul\":56:87   */\n  mstore\n    /* \"#utility.yul\":106:110   */\n  0x41\n    /* \"#utility.yul\":103:104   */\n  0x04\n    /* \"#utility.yul\":96:111   */\n  mstore\n    /* \"#utility.yul\":130:134   */\n  0x24\n    /* \"#utility.yul\":127:128   */\n  0x00\n    /* \"#utility.yul\":120:135   */\n  revert\n    /* \"#utility.yul\":146:526   */\ntag_20:\n    /* \"#utility.yul\":225:226   */\n  0x01\n    /* \"#utility.yul\":221:233   */\n  dup2\n  dup2\n  shr\n  swap1\n    /* \"#utility.yul\":268:280   */\n  dup3\n  and\n  dup1\n    /* \"#utility.yul\":289:350   */\n  tag_27\n  jumpi\n    /* \"#utility.yul\":343:347   */\n  0x7f\n    /* \"#utility.yul\":335:341   */\n  dup3\n    /* \"#utility.yul\":331:348   */\n  and\n    /* \"#utility.yul\":321:348   */\n  swap2\n  pop\n    /* \"#utility.yul\":289:350   */\ntag_27:\n    /* \"#utility.yul\":396:398   */\n  0x20\n    /* \"#utility.yul\":388:394   */\n  dup3\n    /* \"#utility.yul\":385:399   */\n  lt\n    /* \"#utility.yul\":365:383   */\n  dup2\n    /* \"#utility.yul\":362:400   */\n  sub\n    /* \"#utility.yul\":359:520   */\n  tag_28\n  jumpi\n    /* \"#utility.yul\":442:452   */\n  0x4e487b71\n    /* \"#utility.yul\":437:440   */\n  0xe0\n    /* \"#utility.yul\":433:453   */\n  shl\n    /* \"#utility.yul\":430:431   */\n  0x00\n    /* \"#utility.yul\":423:454   */\n  mstore\n    /* \"#utility.yul\":477:481   */\n  0x22\n    /* \"#utility.yul\":474:475   */\n  0x04\n    /* \"#utility.yul\":467:482   */\n  mstore\n    /* \"#utility.yul\":505:509   */\n  0x24\n    /* \"#utility.yul\":502:503   */\n  0x00\n    /* \"#utility.yul\":495:510   */\n  revert\n    /* \"#utility.yul\":359:520   */\ntag_28:\n  pop\n    /* \"#utility.yul\":146:526   */\n  swap2\n  swap1\n  pop\n  jump\t// out\n    /* \"#utility.yul\":657:1175   */\ntag_22:\n    /* \"#utility.yul\":759:761   */\n  0x1f\n    /* \"#utility.yul\":754:757   */\n  dup3\n    /* \"#utility.yul\":751:762   */\n  gt\n    /* \"#utility.yul\":748:1169   */\n  iszero\n  tag_31\n  jumpi\n    /* \"#utility.yul\":795:800   */\n  dup1\n    /* \"#utility.yul\":792:793   */\n  0x00\n    /* \"#utility.yul\":785:801   */\n  mstore\n    /* \"#utility.yul\":839:843   */\n  0x20\n    /* \"#utility.yul\":836:837   */\n  0x00\n    /* \"#utility.yul\":826:844   */\n  keccak256\n    /* \"#utility.yul\":909:911   */\n  0x1f\n    /* \"#utility.yul\":897:907   */\n  dup5\n    /* \"#utility.yul\":893:912   */\n  add\n    /* \"#utility.yul\":890:891   */\n  0x05\n    /* \"#utility.yul\":886:913   */\n  shr\n    /* \"#utility.yul\":880:884   */\n  dup2\n    /* \"#utility.yul\":876:914   */\n  add\n    /* \"#utility.yul\":945:949   */\n  0x20\n    /* \"#utility.yul\":933:943   */\n  dup6\n    /* \"#utility.yul\":930:950   */\n  lt\n    /* \"#utility.yul\":927:974   */\n  iszero\n  tag_32\n  jumpi\n  pop\n    /* \"#utility.yul\":968:972   */\n  dup1\n    /* \"#utility.yul\":927:974   */\ntag_32:\n    /* \"#utility.yul\":1023:1025   */\n  0x1f\n    /* \"#utility.yul\":1018:1021   */\n  dup5\n    /* \"#utility.yul\":1014:1026   */\n  add\n    /* \"#utility.yul\":1011:1012   */\n  0x05\n    /* \"#utility.yul\":1007:1027   */\n  shr\n    /* \"#utility.yul\":1001:1005   */\n  dup3\n    /* \"#utility.yul\":997:1028   */\n  add\n    /* \"#utility.yul\":987:1028   */\n  swap2\n  pop\n    /* \"#utility.yul\":1078:1159   */\ntag_33:\n    /* \"#utility.yul\":1096:1098   */\n  dup2\n    /* \"#utility.yul\":1089:1094   */\n  dup2\n    /* \"#utility.yul\":1086:1099   */\n  lt\n    /* \"#utility.yul\":1078:1159   */\n  iszero\n  tag_35\n  jumpi\n    /* \"#utility.yul\":1155:1156   */\n  0x00\n    /* \"#utility.yul\":1141:1157   */\n  dup2\n  sstore\n    /* \"#utility.yul\":1122:1123   */\n  0x01\n    /* \"#utility.yul\":1111:1124   */\n  add\n    /* \"#utility.yul\":1078:1159   */\n  jump(tag_33)\ntag_35:\n    /* \"#utility.yul\":1082:1085   */\n  pop\n  pop\n    /* \"#utility.yul\":748:1169   */\ntag_31:\n    /* \"#utility.yul\":657:1175   */\n  pop\n  pop\n  pop\n  jump\t// out\n    /* \"#utility.yul\":1351:2696   */\ntag_2:\n    /* \"#utility.yul\":1471:1481   */\n  dup2\n  mload\n  sub(shl(0x40, 0x01), 0x01)\n    /* \"#utility.yul\":1493:1523   */\n  dup2\n  gt\n    /* \"#utility.yul\":1490:1546   */\n  iszero\n  tag_39\n  jumpi\n    /* \"#utility.yul\":1526:1544   */\n  tag_39\n  tag_19\n  jump\t// in\ntag_39:\n    /* \"#utility.yul\":1555:1652   */\n  tag_40\n    /* \"#utility.yul\":1645:1651   */\n  dup2\n    /* \"#utility.yul\":1605:1643   */\n  tag_41\n    /* \"#utility.yul\":1637:1641   */\n  dup5\n    /* \"#utility.yul\":1631:1642   */\n  sload\n    /* \"#utility.yul\":1605:1643   */\n  tag_20\n  jump\t// in\ntag_41:\n    /* \"#utility.yul\":1599:1603   */\n  dup5\n    /* \"#utility.yul\":1555:1652   */\n  tag_22\n  jump\t// in\ntag_40:\n    /* \"#utility.yul\":1707:1711   */\n  0x20\n  dup1\n    /* \"#utility.yul\":1764:1766   */\n  0x1f\n    /* \"#utility.yul\":1753:1767   */\n  dup4\n  gt\n    /* \"#utility.yul\":1781:1782   */\n  0x01\n    /* \"#utility.yul\":1776:2439   */\n  dup2\n  eq\n  tag_43\n  jumpi\n    /* \"#utility.yul\":2483:2484   */\n  0x00\n    /* \"#utility.yul\":2500:2506   */\n  dup5\n    /* \"#utility.yul\":2497:2586   */\n  iszero\n  tag_44\n  jumpi\n  pop\n    /* \"#utility.yul\":2552:2571   */\n  dup6\n  dup4\n  add\n    /* \"#utility.yul\":2546:2572   */\n  mload\n    /* \"#utility.yul\":2497:2586   */\ntag_44:\n  not(0x00)\n    /* \"#utility.yul\":1308:1309   */\n  0x03\n    /* \"#utility.yul\":1304:1315   */\n  dup7\n  swap1\n  shl\n    /* \"#utility.yul\":1300:1324   */\n  shr\n    /* \"#utility.yul\":1296:1325   */\n  not\n    /* \"#utility.yul\":1286:1326   */\n  and\n    /* \"#utility.yul\":1332:1333   */\n  0x01\n    /* \"#utility.yul\":1328:1339   */\n  dup6\n  swap1\n  shl\n    /* \"#utility.yul\":1283:1340   */\n  or\n    /* \"#utility.yul\":2599:2680   */\n  dup6\n  sstore\n    /* \"#utility.yul\":1746:2690   */\n  jump(tag_42)\n    /* \"#utility.yul\":1776:2439   */\ntag_43:\n    /* \"#utility.yul\":604:605   */\n  0x00\n    /* \"#utility.yul\":597:611   */\n  dup6\n  dup2\n  mstore\n    /* \"#utility.yul\":641:645   */\n  0x20\n    /* \"#utility.yul\":628:646   */\n  dup2\n  keccak256\n  not(0x1f)\n    /* \"#utility.yul\":1812:1832   */\n  dup7\n  and\n  swap2\n    /* \"#utility.yul\":1930:2166   */\ntag_47:\n    /* \"#utility.yul\":1944:1951   */\n  dup3\n    /* \"#utility.yul\":1941:1942   */\n  dup2\n    /* \"#utility.yul\":1938:1952   */\n  lt\n    /* \"#utility.yul\":1930:2166   */\n  iszero\n  tag_49\n  jumpi\n    /* \"#utility.yul\":2033:2052   */\n  dup9\n  dup7\n  add\n    /* \"#utility.yul\":2027:2053   */\n  mload\n    /* \"#utility.yul\":2012:2054   */\n  dup3\n  sstore\n    /* \"#utility.yul\":2125:2152   */\n  swap5\n  dup5\n  add\n  swap5\n    /* \"#utility.yul\":2093:2094   */\n  0x01\n    /* \"#utility.yul\":2081:2095   */\n  swap1\n  swap2\n  add\n  swap1\n    /* \"#utility.yul\":1960:1979   */\n  dup5\n  add\n    /* \"#utility.yul\":1930:2166   */\n  jump(tag_47)\ntag_49:\n    /* \"#utility.yul\":1934:1937   */\n  pop\n    /* \"#utility.yul\":2194:2200   */\n  dup6\n    /* \"#utility.yul\":2185:2192   */\n  dup3\n    /* \"#utility.yul\":2182:2201   */\n  lt\n    /* \"#utility.yul\":2179:2380   */\n  iszero\n  tag_50\n  jumpi\n    /* \"#utility.yul\":2255:2274   */\n  dup8\n  dup6\n  add\n    /* \"#utility.yul\":2249:2275   */\n  mload\n  not(0x00)\n    /* \"#utility.yul\":2338:2339   */\n  0x03\n    /* \"#utility.yul\":2334:2348   */\n  dup9\n  swap1\n  shl\n    /* \"#utility.yul\":2350:2353   */\n  0xf8\n    /* \"#utility.yul\":2330:2354   */\n  and\n    /* \"#utility.yul\":2326:2363   */\n  shr\n    /* \"#utility.yul\":2322:2364   */\n  not\n    /* \"#utility.yul\":2307:2365   */\n  and\n    /* \"#utility.yul\":2292:2366   */\n  dup2\n  sstore\n    /* \"#utility.yul\":2179:2380   */\ntag_50:\n  pop\n  pop\n    /* \"#utility.yul\":2426:2427   */\n  0x01\n    /* \"#utility.yul\":2417:2423   */\n  dup5\n    /* \"#utility.yul\":2414:2415   */\n  0x01\n    /* \"#utility.yul\":2410:2424   */\n  shl\n    /* \"#utility.yul\":2406:2428   */\n  add\n    /* \"#utility.yul\":2400:2404   */\n  dup6\n    /* \"#utility.yul\":2393:2429   */\n  sstore\n    /* \"#utility.yul\":1746:2690   */\ntag_42:\n  pop\n  pop\n  pop\n  pop\n    /* \"#utility.yul\":1351:2696   */\n  pop\n  pop\n  jump\t// out\n    /* \"#utility.yul\":2701:2904   */\ntag_24:\n    /* \"crop.sol\":239:3729  contract NFTOPIA is ERC721, Ownable(msg.sender), ERC721Holder {... */\n  dataSize(sub_0)\n  dup1\n  dataOffset(sub_0)\n  0x00\n  codecopy\n  0x00\n  return\nstop\n\nsub_0: assembly {\n        /* \"crop.sol\":239:3729  contract NFTOPIA is ERC721, Ownable(msg.sender), ERC721Holder {... */\n      mstore(0x40, 0x80)\n      jumpi(tag_1, lt(calldatasize, 0x04))\n      shr(0xe0, calldataload(0x00))\n      dup1\n      0x6352211e\n      gt\n      tag_31\n      jumpi\n      dup1\n      0xa0bcfc7f\n      gt\n      tag_32\n      jumpi\n      dup1\n      0xc87b56dd\n      gt\n      tag_33\n      jumpi\n      dup1\n      0xc87b56dd\n      eq\n      tag_27\n      jumpi\n      dup1\n      0xe985e9c5\n      eq\n      tag_28\n      jumpi\n      dup1\n      0xf2fde38b\n      eq\n      tag_29\n      jumpi\n      dup1\n      0xfc6f9468\n      eq\n      tag_30\n      jumpi\n      0x00\n      dup1\n      revert\n    tag_33:\n      dup1\n      0xa0bcfc7f\n      eq\n      tag_23\n      jumpi\n      dup1\n      0xa22cb465\n      eq\n      tag_24\n      jumpi\n      dup1\n      0xb2733b39\n      eq\n      tag_25\n      jumpi\n      dup1\n      0xb88d4fde\n      eq\n      tag_26\n      jumpi\n      0x00\n      dup1\n      revert\n    tag_32:\n      dup1\n      0x715018a6\n      gt\n      tag_34\n      jumpi\n      dup1\n      0x715018a6\n      eq\n      tag_19\n      jumpi\n      dup1\n      0x7b47ec1a\n      eq\n      tag_20\n      jumpi\n      dup1\n      0x8da5cb5b\n      eq\n      tag_21\n      jumpi\n      dup1\n      0x95d89b41\n      eq\n      tag_22\n      jumpi\n      0x00\n      dup1\n      revert\n    tag_34:\n      dup1\n      0x6352211e\n      eq\n      tag_16\n      jumpi\n      dup1\n      0x704b6c02\n      eq\n      tag_17\n      jumpi\n      dup1\n      0x70a08231\n      eq\n      tag_18\n      jumpi\n      0x00\n      dup1\n      revert\n    tag_31:\n      dup1\n      0x1b2ef1ca\n      gt\n      tag_35\n      jumpi\n      dup1\n      0x2d296bf1\n      gt\n      tag_36\n      jumpi\n      dup1\n      0x2d296bf1\n      eq\n      tag_12\n      jumpi\n      dup1\n      0x42421c98\n      eq\n      tag_13\n      jumpi\n      dup1\n      0x42842e0e\n      eq\n      tag_14\n      jumpi\n      dup1\n      0x59e53f79\n      eq\n      tag_15\n      jumpi\n      0x00\n      dup1\n      revert\n    tag_36:\n      dup1\n      0x1b2ef1ca\n      eq\n      tag_9\n      jumpi\n      dup1\n      0x1e24b8b4\n      eq\n      tag_10\n      jumpi\n      dup1\n      0x23b872dd\n      eq\n      tag_11\n      jumpi\n      0x00\n      dup1\n      revert\n    tag_35:\n      dup1\n      0x081812fc\n      gt\n      tag_37\n      jumpi\n      dup1\n      0x081812fc\n      eq\n      tag_5\n      jumpi\n      dup1\n      0x095ea7b3\n      eq\n      tag_6\n      jumpi\n      dup1\n      0x0a30c95b\n      eq\n      tag_7\n      jumpi\n      dup1\n      0x150b7a02\n      eq\n      tag_8\n      jumpi\n      0x00\n      dup1\n      revert\n    tag_37:\n      dup1\n      0x01ffc9a7\n      eq\n      tag_2\n      jumpi\n      dup1\n      0x02eb4b88\n      eq\n      tag_3\n      jumpi\n      dup1\n      0x06fdde03\n      eq\n      tag_4\n      jumpi\n    tag_1:\n      0x00\n      dup1\n      revert\n        /* \"@openzeppelin/contracts/token/ERC721/ERC721.sol\":1561:1861  function supportsInterface(bytes4 interfaceId) public view virtual override(ERC165, IERC165) returns (bool) {... */\n    tag_2:\n      callvalue\n      dup1\n      iszero\n      tag_38\n      jumpi\n      0x00\n      dup1\n      revert\n    tag_38:\n      pop\n      tag_39\n      tag_40\n      calldatasize\n      0x04\n      tag_41\n      jump\t// in\n    tag_40:\n      tag_42\n      jump\t// in\n    tag_39:\n      mload(0x40)\n        /* \"#utility.yul\":565:579   */\n      swap1\n      iszero\n        /* \"#utility.yul\":558:580   */\n      iszero\n        /* \"#utility.yul\":540:581   */\n      dup2\n      mstore\n        /* \"#utility.yul\":528:530   */\n      0x20\n        /* \"#utility.yul\":513:531   */\n      add\n        /* \"@openzeppelin/contracts/token/ERC721/ERC721.sol\":1561:1861  function supportsInterface(bytes4 interfaceId) public view virtual override(ERC165, IERC165) returns (bool) {... */\n    tag_43:\n      mload(0x40)\n      dup1\n      swap2\n      sub\n      swap1\n      return\n        /* \"crop.sol\":483:527  mapping(uint256 => SaleInfo) public saleInfo */\n    tag_3:\n      callvalue\n      dup1\n      iszero\n      tag_45\n      jumpi\n      0x00\n      dup1\n      revert\n    tag_45:\n      pop\n      tag_46\n      tag_47\n      calldatasize\n      0x04\n      tag_48\n      jump\t// in\n    tag_47:\n      mstore(0x20, 0x08)\n      0x00\n      swap1\n      dup2\n      mstore\n      0x40\n      swap1\n      keccak256\n      sload\n      dup2\n      jump\n    tag_46:\n      mload(0x40)\n        /* \"#utility.yul\":923:948   */\n      swap1\n      dup2\n      mstore\n        /* \"#utility.yul\":911:913   */\n      0x20\n        /* \"#utility.yul\":896:914   */\n      add\n        /* \"crop.sol\":483:527  mapping(uint256 => SaleInfo) public saleInfo */\n      tag_43\n        /* \"#utility.yul\":777:954   */\n      jump\n        /* \"@openzeppelin/contracts/token/ERC721/ERC721.sol\":2365:2454  function name() public view virtual returns (string memory) {... */\n    tag_4:\n      callvalue\n      dup1\n      iszero\n      tag_52\n      jumpi\n      0x00\n      dup1\n      revert\n    tag_52:\n      pop\n      tag_53\n      tag_54\n      jump\t// in\n    tag_53:\n      mload(0x40)\n      tag_43\n      swap2\n      swap1\n      tag_56\n      jump\t// in\n        /* \"@openzeppelin/contracts/token/ERC721/ERC721.sol\":3497:3651  function getApproved(uint256 tokenId) public view virtual returns (address) {... */\n    tag_5:\n      callvalue\n      dup1\n      iszero\n      tag_57\n      jumpi\n      0x00\n      dup1\n      revert\n    tag_57:\n      pop\n      tag_58\n      tag_59\n      calldatasize\n      0x04\n      tag_48\n      jump\t// in\n    tag_59:\n      tag_60\n      jump\t// in\n    tag_58:\n      mload(0x40)\n      sub(shl(0xa0, 0x01), 0x01)\n        /* \"#utility.yul\":1664:1696   */\n      swap1\n      swap2\n      and\n        /* \"#utility.yul\":1646:1697   */\n      dup2\n      mstore\n        /* \"#utility.yul\":1634:1636   */\n      0x20\n        /* \"#utility.yul\":1619:1637   */\n      add\n        /* \"@openzeppelin/contracts/token/ERC721/ERC721.sol\":3497:3651  function getApproved(uint256 tokenId) public view virtual returns (address) {... */\n      tag_43\n        /* \"#utility.yul\":1500:1703   */\n      jump\n        /* \"@openzeppelin/contracts/token/ERC721/ERC721.sol\":3323:3436  function approve(address to, uint256 tokenId) public virtual {... */\n    tag_6:\n      callvalue\n      dup1\n      iszero\n      tag_63\n      jumpi\n      0x00\n      dup1\n      revert\n    tag_63:\n      pop\n      tag_64\n      tag_65\n      calldatasize\n      0x04\n      tag_66\n      jump\t// in\n    tag_65:\n      tag_67\n      jump\t// in\n    tag_64:\n      stop\n        /* \"crop.sol\":1991:2576  function buyUserNft(uint256 tokenId) external payable {... */\n    tag_7:\n      tag_64\n      tag_69\n      calldatasize\n      0x04\n      tag_48\n      jump\t// in\n    tag_69:\n      tag_70\n      jump\t// in\n        /* \"@openzeppelin/contracts/token/ERC721/utils/ERC721Holder.sol\":639:792  function onERC721Received(address, address, uint256, bytes memory) public virtual returns (bytes4) {... */\n    tag_8:\n      callvalue\n      dup1\n      iszero\n      tag_71\n      jumpi\n      0x00\n      dup1\n      revert\n    tag_71:\n      pop\n      tag_72\n      tag_73\n      calldatasize\n      0x04\n      tag_74\n      jump\t// in\n    tag_73:\n      shl(0xe1, 0x0a85bd01)\n      swap5\n      swap4\n      pop\n      pop\n      pop\n      pop\n      jump\n    tag_72:\n      mload(0x40)\n      not(sub(shl(0xe0, 0x01), 0x01))\n        /* \"#utility.yul\":3746:3779   */\n      swap1\n      swap2\n      and\n        /* \"#utility.yul\":3728:3780   */\n      dup2\n      mstore\n        /* \"#utility.yul\":3716:3718   */\n      0x20\n        /* \"#utility.yul\":3701:3719   */\n      add\n        /* \"@openzeppelin/contracts/token/ERC721/utils/ERC721Holder.sol\":639:792  function onERC721Received(address, address, uint256, bytes memory) public virtual returns (bytes4) {... */\n      tag_43\n        /* \"#utility.yul\":3584:3786   */\n      jump\n        /* \"crop.sol\":592:793  function mint(uint256 tokenId, uint256 salePrice) external {... */\n    tag_9:\n      callvalue\n      dup1\n      iszero\n      tag_78\n      jumpi\n      0x00\n      dup1\n      revert\n    tag_78:\n      pop\n      tag_64\n      tag_80\n      calldatasize\n      0x04\n      tag_81\n      jump\t// in\n    tag_80:\n      tag_82\n      jump\t// in\n        /* \"crop.sol\":1165:1312  function readTokenInfo(uint256 tokenId)... */\n    tag_10:\n      callvalue\n      dup1\n      iszero\n      tag_83\n      jumpi\n      0x00\n      dup1\n      revert\n    tag_83:\n      pop\n      tag_84\n      tag_85\n      calldatasize\n      0x04\n      tag_48\n      jump\t// in\n    tag_85:\n      0x40\n      dup1\n      mload\n      0x20\n      dup1\n      dup3\n      add\n      dup4\n      mstore\n      0x00\n      swap2\n      dup3\n      swap1\n      mstore\n        /* \"crop.sol\":1288:1305  saleInfo[tokenId] */\n      swap3\n      dup2\n      mstore\n        /* \"crop.sol\":1288:1296  saleInfo */\n      0x08\n        /* \"crop.sol\":1288:1305  saleInfo[tokenId] */\n      dup4\n      mstore\n      dup2\n      swap1\n      keccak256\n        /* \"crop.sol\":1281:1305  return saleInfo[tokenId] */\n      dup2\n      mload\n      swap3\n      dup4\n      add\n      swap1\n      swap2\n      mstore\n      sload\n      dup2\n      mstore\n      swap1\n        /* \"crop.sol\":1165:1312  function readTokenInfo(uint256 tokenId)... */\n      jump\n    tag_84:\n      mload(0x40)\n        /* \"#utility.yul\":4260:4273   */\n      swap1\n      mload\n        /* \"#utility.yul\":4242:4274   */\n      dup2\n      mstore\n        /* \"#utility.yul\":4230:4232   */\n      0x20\n        /* \"#utility.yul\":4215:4233   */\n      add\n        /* \"crop.sol\":1165:1312  function readTokenInfo(uint256 tokenId)... */\n      tag_43\n        /* \"#utility.yul\":4044:4280   */\n      jump\n        /* \"@openzeppelin/contracts/token/ERC721/ERC721.sol\":4143:4721  function transferFrom(address from, address to, uint256 tokenId) public virtual {... */\n    tag_11:\n      callvalue\n      dup1\n      iszero\n      tag_89\n      jumpi\n      0x00\n      dup1\n      revert\n    tag_89:\n      pop\n      tag_64\n      tag_91\n      calldatasize\n      0x04\n      tag_92\n      jump\t// in\n    tag_91:\n      tag_93\n      jump\t// in\n        /* \"crop.sol\":1578:1794  function buyToken(uint256 tokenId) external payable {... */\n    tag_12:\n      tag_64\n      tag_95\n      calldatasize\n      0x04\n      tag_48\n      jump\t// in\n    tag_95:\n      tag_96\n      jump\t// in\n        /* \"crop.sol\":2944:3623  function tradeNFTs(uint256 tokenIdSent, uint256 tokenIdReceived) external {... */\n    tag_13:\n      callvalue\n      dup1\n      iszero\n      tag_97\n      jumpi\n      0x00\n      dup1\n      revert\n    tag_97:\n      pop\n      tag_64\n      tag_99\n      calldatasize\n      0x04\n      tag_81\n      jump\t// in\n    tag_99:\n      tag_100\n      jump\t// in\n        /* \"@openzeppelin/contracts/token/ERC721/ERC721.sol\":4787:4919  function safeTransferFrom(address from, address to, uint256 tokenId) public {... */\n    tag_14:\n      callvalue\n      dup1\n      iszero\n      tag_101\n      jumpi\n      0x00\n      dup1\n      revert\n    tag_101:\n      pop\n      tag_64\n      tag_103\n      calldatasize\n      0x04\n      tag_92\n      jump\t// in\n    tag_103:\n      tag_104\n      jump\t// in\n        /* \"crop.sol\":799:1091  function userMint(... */\n    tag_15:\n      callvalue\n      dup1\n      iszero\n      tag_105\n      jumpi\n      0x00\n      dup1\n      revert\n    tag_105:\n      pop\n      tag_64\n      tag_107\n      calldatasize\n      0x04\n      tag_108\n      jump\t// in\n    tag_107:\n      tag_109\n      jump\t// in\n        /* \"@openzeppelin/contracts/token/ERC721/ERC721.sol\":2185:2303  function ownerOf(uint256 tokenId) public view virtual returns (address) {... */\n    tag_16:\n      callvalue\n      dup1\n      iszero\n      tag_110\n      jumpi\n      0x00\n      dup1\n      revert\n    tag_110:\n      pop\n      tag_58\n      tag_112\n      calldatasize\n      0x04\n      tag_48\n      jump\t// in\n    tag_112:\n      tag_113\n      jump\t// in\n        /* \"crop.sol\":1318:1476  function setAdmin(address _admin) external onlyOwner {... */\n    tag_17:\n      callvalue\n      dup1\n      iszero\n      tag_115\n      jumpi\n      0x00\n      dup1\n      revert\n    tag_115:\n      pop\n      tag_64\n      tag_117\n      calldatasize\n      0x04\n      tag_118\n      jump\t// in\n    tag_117:\n      tag_119\n      jump\t// in\n        /* \"@openzeppelin/contracts/token/ERC721/ERC721.sol\":1920:2128  function balanceOf(address owner) public view virtual returns (uint256) {... */\n    tag_18:\n      callvalue\n      dup1\n      iszero\n      tag_120\n      jumpi\n      0x00\n      dup1\n      revert\n    tag_120:\n      pop\n      tag_46\n      tag_122\n      calldatasize\n      0x04\n      tag_118\n      jump\t// in\n    tag_122:\n      tag_123\n      jump\t// in\n        /* \"@openzeppelin/contracts/access/Ownable.sol\":2293:2394  function renounceOwnership() public virtual onlyOwner {... */\n    tag_19:\n      callvalue\n      dup1\n      iszero\n      tag_125\n      jumpi\n      0x00\n      dup1\n      revert\n    tag_125:\n      pop\n      tag_64\n      tag_127\n      jump\t// in\n        /* \"crop.sol\":1800:1985  function burnToken(uint256 tokenId) public {... */\n    tag_20:\n      callvalue\n      dup1\n      iszero\n      tag_128\n      jumpi\n      0x00\n      dup1\n      revert\n    tag_128:\n      pop\n      tag_64\n      tag_130\n      calldatasize\n      0x04\n      tag_48\n      jump\t// in\n    tag_130:\n      tag_131\n      jump\t// in\n        /* \"@openzeppelin/contracts/access/Ownable.sol\":1638:1723  function owner() public view virtual returns (address) {... */\n    tag_21:\n      callvalue\n      dup1\n      iszero\n      tag_132\n      jumpi\n      0x00\n      dup1\n      revert\n    tag_132:\n      pop\n        /* \"@openzeppelin/contracts/access/Ownable.sol\":1710:1716  _owner */\n      and(sub(shl(0xa0, 0x01), 0x01), sload(0x06))\n        /* \"@openzeppelin/contracts/access/Ownable.sol\":1638:1723  function owner() public view virtual returns (address) {... */\n      jump(tag_58)\n        /* \"@openzeppelin/contracts/token/ERC721/ERC721.sol\":2518:2611  function symbol() public view virtual returns (string memory) {... */\n    tag_22:\n      callvalue\n      dup1\n      iszero\n      tag_136\n      jumpi\n      0x00\n      dup1\n      revert\n    tag_136:\n      pop\n      tag_53\n      tag_138\n      jump\t// in\n        /* \"crop.sol\":1482:1572  function setBaseUri(string memory _uri) external onlyOwner {... */\n    tag_23:\n      callvalue\n      dup1\n      iszero\n      tag_140\n      jumpi\n      0x00\n      dup1\n      revert\n    tag_140:\n      pop\n      tag_64\n      tag_142\n      calldatasize\n      0x04\n      tag_143\n      jump\t// in\n    tag_142:\n      tag_144\n      jump\t// in\n        /* \"@openzeppelin/contracts/token/ERC721/ERC721.sol\":3718:3862  function setApprovalForAll(address operator, bool approved) public virtual {... */\n    tag_24:\n      callvalue\n      dup1\n      iszero\n      tag_145\n      jumpi\n      0x00\n      dup1\n      revert\n    tag_145:\n      pop\n      tag_64\n      tag_147\n      calldatasize\n      0x04\n      tag_148\n      jump\t// in\n    tag_147:\n      tag_149\n      jump\t// in\n        /* \"crop.sol\":2582:2938  function listNFTForSale(uint256 tokenId, uint256 salePrice) external {... */\n    tag_25:\n      callvalue\n      dup1\n      iszero\n      tag_150\n      jumpi\n      0x00\n      dup1\n      revert\n    tag_150:\n      pop\n      tag_64\n      tag_152\n      calldatasize\n      0x04\n      tag_81\n      jump\t// in\n    tag_152:\n      tag_153\n      jump\t// in\n        /* \"@openzeppelin/contracts/token/ERC721/ERC721.sol\":4985:5193  function safeTransferFrom(address from, address to, uint256 tokenId, bytes memory data) public virtual {... */\n    tag_26:\n      callvalue\n      dup1\n      iszero\n      tag_154\n      jumpi\n      0x00\n      dup1\n      revert\n    tag_154:\n      pop\n      tag_64\n      tag_156\n      calldatasize\n      0x04\n      tag_74\n      jump\t// in\n    tag_156:\n      tag_157\n      jump\t// in\n        /* \"@openzeppelin/contracts/token/ERC721/ERC721.sol\":2677:2932  function tokenURI(uint256 tokenId) public view virtual returns (string memory) {... */\n    tag_27:\n      callvalue\n      dup1\n      iszero\n      tag_158\n      jumpi\n      0x00\n      dup1\n      revert\n    tag_158:\n      pop\n      tag_53\n      tag_160\n      calldatasize\n      0x04\n      tag_48\n      jump\t// in\n    tag_160:\n      tag_161\n      jump\t// in\n        /* \"@openzeppelin/contracts/token/ERC721/ERC721.sol\":3928:4081  function isApprovedForAll(address owner, address operator) public view virtual returns (bool) {... */\n    tag_28:\n      callvalue\n      dup1\n      iszero\n      tag_163\n      jumpi\n      0x00\n      dup1\n      revert\n    tag_163:\n      pop\n      tag_39\n      tag_165\n      calldatasize\n      0x04\n      tag_166\n      jump\t// in\n    tag_165:\n      tag_167\n      jump\t// in\n        /* \"@openzeppelin/contracts/access/Ownable.sol\":2543:2758  function transferOwnership(address newOwner) public virtual onlyOwner {... */\n    tag_29:\n      callvalue\n      dup1\n      iszero\n      tag_169\n      jumpi\n      0x00\n      dup1\n      revert\n    tag_169:\n      pop\n      tag_64\n      tag_171\n      calldatasize\n      0x04\n      tag_118\n      jump\t// in\n    tag_171:\n      tag_172\n      jump\t// in\n        /* \"crop.sol\":534:561  address public adminAddress */\n    tag_30:\n      callvalue\n      dup1\n      iszero\n      tag_173\n      jumpi\n      0x00\n      dup1\n      revert\n    tag_173:\n      pop\n      sload(0x09)\n      tag_58\n      swap1\n      sub(shl(0xa0, 0x01), 0x01)\n      and\n      dup2\n      jump\n        /* \"@openzeppelin/contracts/token/ERC721/ERC721.sol\":1561:1861  function supportsInterface(bytes4 interfaceId) public view virtual override(ERC165, IERC165) returns (bool) {... */\n    tag_42:\n        /* \"@openzeppelin/contracts/token/ERC721/ERC721.sol\":1663:1667  bool */\n      0x00\n      not(sub(shl(0xe0, 0x01), 0x01))\n        /* \"@openzeppelin/contracts/token/ERC721/ERC721.sol\":1698:1738  interfaceId == type(IERC721).interfaceId */\n      dup3\n      and\n      shl(0xe0, 0x80ac58cd)\n      eq\n      dup1\n        /* \"@openzeppelin/contracts/token/ERC721/ERC721.sol\":1698:1802  interfaceId == type(IERC721).interfaceId ||... */\n      tag_178\n      jumpi\n      pop\n      not(sub(shl(0xe0, 0x01), 0x01))\n        /* \"@openzeppelin/contracts/token/ERC721/ERC721.sol\":1754:1802  interfaceId == type(IERC721Metadata).interfaceId */\n      dup3\n      and\n      shl(0xe0, 0x5b5e139f)\n      eq\n        /* \"@openzeppelin/contracts/token/ERC721/ERC721.sol\":1698:1802  interfaceId == type(IERC721).interfaceId ||... */\n    tag_178:\n        /* \"@openzeppelin/contracts/token/ERC721/ERC721.sol\":1698:1854  interfaceId == type(IERC721).interfaceId ||... */\n      dup1\n      tag_180\n      jumpi\n      pop\n      shl(0xe0, 0x01ffc9a7)\n      not(sub(shl(0xe0, 0x01), 0x01))\n        /* \"@openzeppelin/contracts/utils/introspection/ERC165.sol\":861:901  interfaceId == type(IERC165).interfaceId */\n      dup4\n      and\n      eq\n        /* \"@openzeppelin/contracts/token/ERC721/ERC721.sol\":1818:1854  super.supportsInterface(interfaceId) */\n    tag_180:\n        /* \"@openzeppelin/contracts/token/ERC721/ERC721.sol\":1679:1854  return... */\n      swap3\n        /* \"@openzeppelin/contracts/token/ERC721/ERC721.sol\":1561:1861  function supportsInterface(bytes4 interfaceId) public view virtual override(ERC165, IERC165) returns (bool) {... */\n      swap2\n      pop\n      pop\n      jump\t// out\n        /* \"@openzeppelin/contracts/token/ERC721/ERC721.sol\":2365:2454  function name() public view virtual returns (string memory) {... */\n    tag_54:\n        /* \"@openzeppelin/contracts/token/ERC721/ERC721.sol\":2410:2423  string memory */\n      0x60\n        /* \"@openzeppelin/contracts/token/ERC721/ERC721.sol\":2442:2447  _name */\n      0x00\n        /* \"@openzeppelin/contracts/token/ERC721/ERC721.sol\":2435:2447  return _name */\n      dup1\n      sload\n      tag_183\n      swap1\n      tag_184\n      jump\t// in\n    tag_183:\n      dup1\n      0x1f\n      add\n      0x20\n      dup1\n      swap2\n      div\n      mul\n      0x20\n      add\n      mload(0x40)\n      swap1\n      dup2\n      add\n      0x40\n      mstore\n      dup1\n      swap3\n      swap2\n      swap1\n      dup2\n      dup2\n      mstore\n      0x20\n      add\n      dup3\n      dup1\n      sload\n      tag_185\n      swap1\n      tag_184\n      jump\t// in\n    tag_185:\n      dup1\n      iszero\n      tag_186\n      jumpi\n      dup1\n      0x1f\n      lt\n      tag_187\n      jumpi\n      0x0100\n      dup1\n      dup4\n      sload\n      div\n      mul\n      dup4\n      mstore\n      swap2\n      0x20\n      add\n      swap2\n      jump(tag_186)\n    tag_187:\n      dup3\n      add\n      swap2\n      swap1\n      0x00\n      mstore\n      keccak256(0x00, 0x20)\n      swap1\n    tag_188:\n      dup2\n      sload\n      dup2\n      mstore\n      swap1\n      0x01\n      add\n      swap1\n      0x20\n      add\n      dup1\n      dup4\n      gt\n      tag_188\n      jumpi\n      dup3\n      swap1\n      sub\n      0x1f\n      and\n      dup3\n      add\n      swap2\n    tag_186:\n      pop\n      pop\n      pop\n      pop\n      pop\n      swap1\n      pop\n        /* \"@openzeppelin/contracts/token/ERC721/ERC721.sol\":2365:2454  function name() public view virtual returns (string memory) {... */\n      swap1\n      jump\t// out\n        /* \"@openzeppelin/contracts/token/ERC721/ERC721.sol\":3497:3651  function getApproved(uint256 tokenId) public view virtual returns (address) {... */\n    tag_60:\n        /* \"@openzeppelin/contracts/token/ERC721/ERC721.sol\":3564:3571  address */\n      0x00\n        /* \"@openzeppelin/contracts/token/ERC721/ERC721.sol\":3583:3605  _requireOwned(tokenId) */\n      tag_190\n        /* \"@openzeppelin/contracts/token/ERC721/ERC721.sol\":3597:3604  tokenId */\n      dup3\n        /* \"@openzeppelin/contracts/token/ERC721/ERC721.sol\":3583:3596  _requireOwned */\n      tag_191\n        /* \"@openzeppelin/contracts/token/ERC721/ERC721.sol\":3583:3605  _requireOwned(tokenId) */\n      jump\t// in\n    tag_190:\n      pop\n        /* \"@openzeppelin/contracts/token/ERC721/ERC721.sol\":6008:6015  address */\n      0x00\n        /* \"@openzeppelin/contracts/token/ERC721/ERC721.sol\":6034:6058  _tokenApprovals[tokenId] */\n      dup3\n      dup2\n      mstore\n        /* \"@openzeppelin/contracts/token/ERC721/ERC721.sol\":6034:6049  _tokenApprovals */\n      0x04\n        /* \"@openzeppelin/contracts/token/ERC721/ERC721.sol\":6034:6058  _tokenApprovals[tokenId] */\n      0x20\n      mstore\n      0x40\n      swap1\n      keccak256\n      sload\n      sub(shl(0xa0, 0x01), 0x01)\n      and\n        /* \"@openzeppelin/contracts/token/ERC721/ERC721.sol\":3623:3644  _getApproved(tokenId) */\n      tag_180\n        /* \"@openzeppelin/contracts/token/ERC721/ERC721.sol\":5938:6065  function _getApproved(uint256 tokenId) internal view virtual returns (address) {... */\n      jump\n        /* \"@openzeppelin/contracts/token/ERC721/ERC721.sol\":3323:3436  function approve(address to, uint256 tokenId) public virtual {... */\n    tag_67:\n        /* \"@openzeppelin/contracts/token/ERC721/ERC721.sol\":3394:3429  _approve(to, tokenId, _msgSender()) */\n      tag_195\n        /* \"@openzeppelin/contracts/token/ERC721/ERC721.sol\":3403:3405  to */\n      dup3\n        /* \"@openzeppelin/contracts/token/ERC721/ERC721.sol\":3407:3414  tokenId */\n      dup3\n        /* \"@openzeppelin/contracts/utils/Context.sol\":735:745  msg.sender */\n      caller\n        /* \"@openzeppelin/contracts/token/ERC721/ERC721.sol\":3394:3402  _approve */\n      tag_198\n        /* \"@openzeppelin/contracts/token/ERC721/ERC721.sol\":3394:3429  _approve(to, tokenId, _msgSender()) */\n      jump\t// in\n    tag_195:\n        /* \"@openzeppelin/contracts/token/ERC721/ERC721.sol\":3323:3436  function approve(address to, uint256 tokenId) public virtual {... */\n      pop\n      pop\n      jump\t// out\n        /* \"crop.sol\":1991:2576  function buyUserNft(uint256 tokenId) external payable {... */\n    tag_70:\n        /* \"crop.sol\":2130:2131  0 */\n      0x00\n        /* \"crop.sol\":2100:2117  saleInfo[tokenId] */\n      dup2\n      dup2\n      mstore\n        /* \"crop.sol\":2100:2108  saleInfo */\n      0x08\n        /* \"crop.sol\":2100:2117  saleInfo[tokenId] */\n      0x20\n      mstore\n      0x40\n      swap1\n      keccak256\n        /* \"crop.sol\":2100:2127  saleInfo[tokenId].salePrice */\n      sload\n        /* \"crop.sol\":2092:2159  require(saleInfo[tokenId].salePrice > 0, \"NFT not listed for sale\") */\n      tag_200\n      jumpi\n      mload(0x40)\n      shl(0xe5, 0x461bcd)\n      dup2\n      mstore\n        /* \"#utility.yul\":6795:6797   */\n      0x20\n        /* \"crop.sol\":2092:2159  require(saleInfo[tokenId].salePrice > 0, \"NFT not listed for sale\") */\n      0x04\n      dup3\n      add\n        /* \"#utility.yul\":6777:6798   */\n      mstore\n        /* \"#utility.yul\":6834:6836   */\n      0x17\n        /* \"#utility.yul\":6814:6832   */\n      0x24\n      dup3\n      add\n        /* \"#utility.yul\":6807:6837   */\n      mstore\n        /* \"#utility.yul\":6873:6898   */\n      0x4e4654206e6f74206c697374656420666f722073616c65000000000000000000\n        /* \"#utility.yul\":6853:6871   */\n      0x44\n      dup3\n      add\n        /* \"#utility.yul\":6846:6899   */\n      mstore\n        /* \"#utility.yul\":6916:6934   */\n      0x64\n      add\n        /* \"crop.sol\":2092:2159  require(saleInfo[tokenId].salePrice > 0, \"NFT not listed for sale\") */\n    tag_201:\n      mload(0x40)\n      dup1\n      swap2\n      sub\n      swap1\n      revert\n    tag_200:\n        /* \"crop.sol\":2198:2212  address seller */\n      0x00\n        /* \"crop.sol\":2215:2231  ownerOf(tokenId) */\n      tag_203\n        /* \"crop.sol\":2223:2230  tokenId */\n      dup3\n        /* \"crop.sol\":2215:2222  ownerOf */\n      tag_113\n        /* \"crop.sol\":2215:2231  ownerOf(tokenId) */\n      jump\t// in\n    tag_203:\n        /* \"crop.sol\":2325:2342  saleInfo[tokenId] */\n      0x00\n      dup4\n      dup2\n      mstore\n        /* \"crop.sol\":2325:2333  saleInfo */\n      0x08\n        /* \"crop.sol\":2325:2342  saleInfo[tokenId] */\n      0x20\n      mstore\n      0x40\n      swap1\n      keccak256\n        /* \"crop.sol\":2325:2352  saleInfo[tokenId].salePrice */\n      sload\n        /* \"crop.sol\":2198:2231  address seller = ownerOf(tokenId) */\n      swap1\n      swap2\n      pop\n        /* \"crop.sol\":2312:2321  msg.value */\n      callvalue\n        /* \"crop.sol\":2312:2352  msg.value >= saleInfo[tokenId].salePrice */\n      lt\n      iszero\n        /* \"crop.sol\":2304:2375  require(msg.value >= saleInfo[tokenId].salePrice, \"Insufficient funds\") */\n      tag_204\n      jumpi\n      mload(0x40)\n      shl(0xe5, 0x461bcd)\n      dup2\n      mstore\n        /* \"#utility.yul\":7147:7149   */\n      0x20\n        /* \"crop.sol\":2304:2375  require(msg.value >= saleInfo[tokenId].salePrice, \"Insufficient funds\") */\n      0x04\n      dup3\n      add\n        /* \"#utility.yul\":7129:7150   */\n      mstore\n        /* \"#utility.yul\":7186:7188   */\n      0x12\n        /* \"#utility.yul\":7166:7184   */\n      0x24\n      dup3\n      add\n        /* \"#utility.yul\":7159:7189   */\n      mstore\n      shl(0x70, 0x496e73756666696369656e742066756e6473)\n        /* \"#utility.yul\":7205:7223   */\n      0x44\n      dup3\n      add\n        /* \"#utility.yul\":7198:7246   */\n      mstore\n        /* \"#utility.yul\":7263:7281   */\n      0x64\n      add\n        /* \"crop.sol\":2304:2375  require(msg.value >= saleInfo[tokenId].salePrice, \"Insufficient funds\") */\n      tag_201\n        /* \"#utility.yul\":6945:7287   */\n      jump\n        /* \"crop.sol\":2304:2375  require(msg.value >= saleInfo[tokenId].salePrice, \"Insufficient funds\") */\n    tag_204:\n        /* \"crop.sol\":2427:2462  payable(seller).transfer(msg.value) */\n      mload(0x40)\n      sub(shl(0xa0, 0x01), 0x01)\n        /* \"crop.sol\":2427:2451  payable(seller).transfer */\n      dup3\n      and\n      swap1\n        /* \"crop.sol\":2452:2461  msg.value */\n      callvalue\n        /* \"crop.sol\":2427:2462  payable(seller).transfer(msg.value) */\n      dup1\n      iszero\n      0x08fc\n      mul\n      swap2\n      0x00\n      dup2\n      dup2\n      dup2\n        /* \"crop.sol\":2452:2461  msg.value */\n      dup6\n        /* \"crop.sol\":2427:2451  payable(seller).transfer */\n      dup9\n        /* \"crop.sol\":2427:2462  payable(seller).transfer(msg.value) */\n      dup9\n      call\n      swap4\n      pop\n      pop\n      pop\n      pop\n      iszero\n      dup1\n      iszero\n      tag_208\n      jumpi\n      returndatasize\n      0x00\n      dup1\n      returndatacopy\n      revert(0x00, returndatasize)\n    tag_208:\n      pop\n        /* \"crop.sol\":2506:2569  ERC721(address(this)).transferFrom(seller, msg.sender, tokenId) */\n      mload(0x40)\n      shl(0xe0, 0x23b872dd)\n      dup2\n      mstore\n      sub(shl(0xa0, 0x01), 0x01)\n        /* \"#utility.yul\":7550:7565   */\n      dup3\n      and\n        /* \"crop.sol\":2506:2569  ERC721(address(this)).transferFrom(seller, msg.sender, tokenId) */\n      0x04\n      dup3\n      add\n        /* \"#utility.yul\":7532:7566   */\n      mstore\n        /* \"crop.sol\":2549:2559  msg.sender */\n      caller\n        /* \"#utility.yul\":7582:7600   */\n      0x24\n      dup3\n      add\n        /* \"#utility.yul\":7575:7618   */\n      mstore\n        /* \"#utility.yul\":7634:7652   */\n      0x44\n      dup2\n      add\n        /* \"#utility.yul\":7627:7661   */\n      dup4\n      swap1\n      mstore\n        /* \"crop.sol\":2521:2525  this */\n      address\n      swap1\n        /* \"crop.sol\":2506:2540  ERC721(address(this)).transferFrom */\n      0x23b872dd\n      swap1\n        /* \"#utility.yul\":7467:7485   */\n      0x64\n      add\n        /* \"crop.sol\":2506:2569  ERC721(address(this)).transferFrom(seller, msg.sender, tokenId) */\n      0x00\n      mload(0x40)\n      dup1\n      dup4\n      sub\n      dup2\n      0x00\n      dup8\n      dup1\n      extcodesize\n      iszero\n      dup1\n      iszero\n      tag_211\n      jumpi\n      0x00\n      dup1\n      revert\n    tag_211:\n      pop\n      gas\n      call\n      iszero\n      dup1\n      iszero\n      tag_213\n      jumpi\n      returndatasize\n      0x00\n      dup1\n      returndatacopy\n      revert(0x00, returndatasize)\n    tag_213:\n      pop\n      pop\n      pop\n      pop\n        /* \"crop.sol\":2045:2576  {... */\n      pop\n        /* \"crop.sol\":1991:2576  function buyUserNft(uint256 tokenId) external payable {... */\n      pop\n      jump\t// out\n        /* \"crop.sol\":592:793  function mint(uint256 tokenId, uint256 salePrice) external {... */\n    tag_82:\n        /* \"crop.sol\":681:682  0 */\n      0x00\n        /* \"crop.sol\":669:678  salePrice */\n      dup2\n        /* \"crop.sol\":669:682  salePrice > 0 */\n      gt\n        /* \"crop.sol\":661:696  require(salePrice > 0, \"error msg\") */\n      tag_216\n      jumpi\n      mload(0x40)\n      shl(0xe5, 0x461bcd)\n      dup2\n      mstore\n        /* \"#utility.yul\":7874:7876   */\n      0x20\n        /* \"crop.sol\":661:696  require(salePrice > 0, \"error msg\") */\n      0x04\n      dup3\n      add\n        /* \"#utility.yul\":7856:7877   */\n      mstore\n        /* \"#utility.yul\":7913:7914   */\n      0x09\n        /* \"#utility.yul\":7893:7911   */\n      0x24\n      dup3\n      add\n        /* \"#utility.yul\":7886:7915   */\n      mstore\n      shl(0xb8, 0x6572726f72206d7367)\n        /* \"#utility.yul\":7931:7949   */\n      0x44\n      dup3\n      add\n        /* \"#utility.yul\":7924:7963   */\n      mstore\n        /* \"#utility.yul\":7980:7998   */\n      0x64\n      add\n        /* \"crop.sol\":661:696  require(salePrice > 0, \"error msg\") */\n      tag_201\n        /* \"#utility.yul\":7672:8004   */\n      jump\n        /* \"crop.sol\":661:696  require(salePrice > 0, \"error msg\") */\n    tag_216:\n        /* \"crop.sol\":707:724  saleInfo[tokenId] */\n      0x00\n      dup3\n      dup2\n      mstore\n        /* \"crop.sol\":707:715  saleInfo */\n      0x08\n        /* \"crop.sol\":707:724  saleInfo[tokenId] */\n      0x20\n      mstore\n      0x40\n      swap1\n      keccak256\n        /* \"crop.sol\":707:746  saleInfo[tokenId].salePrice = salePrice */\n      dup2\n      swap1\n      sstore\n        /* \"crop.sol\":757:786  _mint(address(this), tokenId) */\n      tag_195\n        /* \"crop.sol\":771:775  this */\n      address\n        /* \"crop.sol\":716:723  tokenId */\n      dup4\n        /* \"crop.sol\":757:762  _mint */\n      tag_220\n        /* \"crop.sol\":757:786  _mint(address(this), tokenId) */\n      jump\t// in\n        /* \"@openzeppelin/contracts/token/ERC721/ERC721.sol\":4143:4721  function transferFrom(address from, address to, uint256 tokenId) public virtual {... */\n    tag_93:\n      sub(shl(0xa0, 0x01), 0x01)\n        /* \"@openzeppelin/contracts/token/ERC721/ERC721.sol\":4237:4253  to == address(0) */\n      dup3\n      and\n        /* \"@openzeppelin/contracts/token/ERC721/ERC721.sol\":4233:4320  if (to == address(0)) {... */\n      tag_225\n      jumpi\n        /* \"@openzeppelin/contracts/token/ERC721/ERC721.sol\":4276:4309  ERC721InvalidReceiver(address(0)) */\n      mload(0x40)\n      shl(0xe1, 0x32505749)\n      dup2\n      mstore\n        /* \"@openzeppelin/contracts/token/ERC721/ERC721.sol\":4306:4307  0 */\n      0x00\n        /* \"@openzeppelin/contracts/token/ERC721/ERC721.sol\":4276:4309  ERC721InvalidReceiver(address(0)) */\n      0x04\n      dup3\n      add\n        /* \"#utility.yul\":1646:1697   */\n      mstore\n        /* \"#utility.yul\":1619:1637   */\n      0x24\n      add\n        /* \"@openzeppelin/contracts/token/ERC721/ERC721.sol\":4276:4309  ERC721InvalidReceiver(address(0)) */\n      tag_201\n        /* \"#utility.yul\":1500:1703   */\n      jump\n        /* \"@openzeppelin/contracts/token/ERC721/ERC721.sol\":4233:4320  if (to == address(0)) {... */\n    tag_225:\n        /* \"@openzeppelin/contracts/token/ERC721/ERC721.sol\":4538:4559  address previousOwner */\n      0x00\n        /* \"@openzeppelin/contracts/token/ERC721/ERC721.sol\":4562:4596  _update(to, tokenId, _msgSender()) */\n      tag_227\n        /* \"@openzeppelin/contracts/token/ERC721/ERC721.sol\":4570:4572  to */\n      dup4\n        /* \"@openzeppelin/contracts/token/ERC721/ERC721.sol\":4574:4581  tokenId */\n      dup4\n        /* \"@openzeppelin/contracts/utils/Context.sol\":735:745  msg.sender */\n      caller\n        /* \"@openzeppelin/contracts/token/ERC721/ERC721.sol\":4562:4569  _update */\n      tag_229\n        /* \"@openzeppelin/contracts/token/ERC721/ERC721.sol\":4562:4596  _update(to, tokenId, _msgSender()) */\n      jump\t// in\n    tag_227:\n        /* \"@openzeppelin/contracts/token/ERC721/ERC721.sol\":4538:4596  address previousOwner = _update(to, tokenId, _msgSender()) */\n      swap1\n      pop\n        /* \"@openzeppelin/contracts/token/ERC721/ERC721.sol\":4627:4631  from */\n      dup4\n      sub(shl(0xa0, 0x01), 0x01)\n        /* \"@openzeppelin/contracts/token/ERC721/ERC721.sol\":4610:4631  previousOwner != from */\n      and\n        /* \"@openzeppelin/contracts/token/ERC721/ERC721.sol\":4610:4623  previousOwner */\n      dup2\n      sub(shl(0xa0, 0x01), 0x01)\n        /* \"@openzeppelin/contracts/token/ERC721/ERC721.sol\":4610:4631  previousOwner != from */\n      and\n      eq\n        /* \"@openzeppelin/contracts/token/ERC721/ERC721.sol\":4606:4715  if (previousOwner != from) {... */\n      tag_230\n      jumpi\n        /* \"@openzeppelin/contracts/token/ERC721/ERC721.sol\":4654:4704  ERC721IncorrectOwner(from, tokenId, previousOwner) */\n      mload(0x40)\n      shl(0xe0, 0x64283d7b)\n      dup2\n      mstore\n      sub(shl(0xa0, 0x01), 0x01)\n        /* \"#utility.yul\":8267:8282   */\n      dup1\n      dup7\n      and\n        /* \"@openzeppelin/contracts/token/ERC721/ERC721.sol\":4654:4704  ERC721IncorrectOwner(from, tokenId, previousOwner) */\n      0x04\n      dup4\n      add\n        /* \"#utility.yul\":8249:8283   */\n      mstore\n        /* \"#utility.yul\":8299:8317   */\n      0x24\n      dup3\n      add\n        /* \"#utility.yul\":8292:8326   */\n      dup5\n      swap1\n      mstore\n        /* \"#utility.yul\":8362:8377   */\n      dup3\n      and\n        /* \"#utility.yul\":8342:8360   */\n      0x44\n      dup3\n      add\n        /* \"#utility.yul\":8335:8378   */\n      mstore\n        /* \"#utility.yul\":8184:8202   */\n      0x64\n      add\n        /* \"@openzeppelin/contracts/token/ERC721/ERC721.sol\":4654:4704  ERC721IncorrectOwner(from, tokenId, previousOwner) */\n      tag_201\n        /* \"#utility.yul\":8009:8384   */\n      jump\n        /* \"@openzeppelin/contracts/token/ERC721/ERC721.sol\":4606:4715  if (previousOwner != from) {... */\n    tag_230:\n        /* \"@openzeppelin/contracts/token/ERC721/ERC721.sol\":4223:4721  {... */\n      pop\n        /* \"@openzeppelin/contracts/token/ERC721/ERC721.sol\":4143:4721  function transferFrom(address from, address to, uint256 tokenId) public virtual {... */\n      pop\n      pop\n      pop\n      jump\t// out\n        /* \"crop.sol\":1578:1794  function buyToken(uint256 tokenId) external payable {... */\n    tag_96:\n        /* \"crop.sol\":1661:1678  saleInfo[tokenId] */\n      0x00\n      dup2\n      dup2\n      mstore\n        /* \"crop.sol\":1661:1669  saleInfo */\n      0x08\n        /* \"crop.sol\":1661:1678  saleInfo[tokenId] */\n      0x20\n      mstore\n      0x40\n      swap1\n      keccak256\n        /* \"crop.sol\":1661:1688  saleInfo[tokenId].salePrice */\n      sload\n        /* \"crop.sol\":1648:1657  msg.value */\n      callvalue\n        /* \"crop.sol\":1648:1688  msg.value == saleInfo[tokenId].salePrice */\n      eq\n        /* \"crop.sol\":1640:1706  require(msg.value == saleInfo[tokenId].salePrice, \"Invalid Price\") */\n      tag_234\n      jumpi\n      mload(0x40)\n      shl(0xe5, 0x461bcd)\n      dup2\n      mstore\n        /* \"#utility.yul\":8591:8593   */\n      0x20\n        /* \"crop.sol\":1640:1706  require(msg.value == saleInfo[tokenId].salePrice, \"Invalid Price\") */\n      0x04\n      dup3\n      add\n        /* \"#utility.yul\":8573:8594   */\n      mstore\n        /* \"#utility.yul\":8630:8632   */\n      0x0d\n        /* \"#utility.yul\":8610:8628   */\n      0x24\n      dup3\n      add\n        /* \"#utility.yul\":8603:8633   */\n      mstore\n      shl(0x98, 0x496e76616c6964205072696365)\n        /* \"#utility.yul\":8649:8667   */\n      0x44\n      dup3\n      add\n        /* \"#utility.yul\":8642:8685   */\n      mstore\n        /* \"#utility.yul\":8702:8720   */\n      0x64\n      add\n        /* \"crop.sol\":1640:1706  require(msg.value == saleInfo[tokenId].salePrice, \"Invalid Price\") */\n      tag_201\n        /* \"#utility.yul\":8389:8726   */\n      jump\n        /* \"crop.sol\":1640:1706  require(msg.value == saleInfo[tokenId].salePrice, \"Invalid Price\") */\n    tag_234:\n        /* \"crop.sol\":1717:1787  ERC721(address(this)).transferFrom(address(this), msg.sender, tokenId) */\n      mload(0x40)\n      shl(0xe0, 0x23b872dd)\n      dup2\n      mstore\n        /* \"crop.sol\":1732:1736  this */\n      address\n        /* \"crop.sol\":1717:1787  ERC721(address(this)).transferFrom(address(this), msg.sender, tokenId) */\n      0x04\n      dup3\n      add\n        /* \"#utility.yul\":7532:7566   */\n      dup2\n      swap1\n      mstore\n        /* \"crop.sol\":1767:1777  msg.sender */\n      caller\n        /* \"#utility.yul\":7582:7600   */\n      0x24\n      dup4\n      add\n        /* \"#utility.yul\":7575:7618   */\n      mstore\n        /* \"#utility.yul\":7634:7652   */\n      0x44\n      dup3\n      add\n        /* \"#utility.yul\":7627:7661   */\n      dup4\n      swap1\n      mstore\n        /* \"crop.sol\":1732:1736  this */\n      swap1\n        /* \"crop.sol\":1717:1751  ERC721(address(this)).transferFrom */\n      0x23b872dd\n      swap1\n        /* \"#utility.yul\":7467:7485   */\n      0x64\n      add\n        /* \"crop.sol\":1717:1787  ERC721(address(this)).transferFrom(address(this), msg.sender, tokenId) */\n      0x00\n      mload(0x40)\n      dup1\n      dup4\n      sub\n      dup2\n      0x00\n      dup8\n      dup1\n      extcodesize\n      iszero\n      dup1\n      iszero\n      tag_238\n      jumpi\n      0x00\n      dup1\n      revert\n    tag_238:\n      pop\n      gas\n      call\n      iszero\n      dup1\n      iszero\n      tag_240\n      jumpi\n      returndatasize\n      0x00\n      dup1\n      returndatacopy\n      revert(0x00, returndatasize)\n    tag_240:\n      pop\n      pop\n      pop\n      pop\n        /* \"crop.sol\":1578:1794  function buyToken(uint256 tokenId) external payable {... */\n      pop\n      jump\t// out\n        /* \"crop.sol\":2944:3623  function tradeNFTs(uint256 tokenIdSent, uint256 tokenIdReceived) external {... */\n    tag_100:\n        /* \"crop.sol\":3045:3055  msg.sender */\n      caller\n        /* \"crop.sol\":3028:3042  address sender */\n      0x00\n        /* \"crop.sol\":3085:3105  ownerOf(tokenIdSent) */\n      tag_242\n        /* \"crop.sol\":3093:3104  tokenIdSent */\n      dup5\n        /* \"crop.sol\":3085:3092  ownerOf */\n      tag_113\n        /* \"crop.sol\":3085:3105  ownerOf(tokenIdSent) */\n      jump\t// in\n    tag_242:\n        /* \"crop.sol\":3065:3105  address ownerSent = ownerOf(tokenIdSent) */\n      swap1\n      pop\n        /* \"crop.sol\":3200:3206  sender */\n      dup2\n      sub(shl(0xa0, 0x01), 0x01)\n        /* \"crop.sol\":3187:3206  ownerSent == sender */\n      and\n        /* \"crop.sol\":3187:3196  ownerSent */\n      dup2\n      sub(shl(0xa0, 0x01), 0x01)\n        /* \"crop.sol\":3187:3206  ownerSent == sender */\n      and\n      eq\n        /* \"crop.sol\":3179:3239  require(ownerSent == sender, \"You don't own the sent token\") */\n      tag_243\n      jumpi\n      mload(0x40)\n      shl(0xe5, 0x461bcd)\n      dup2\n      mstore\n        /* \"#utility.yul\":8933:8935   */\n      0x20\n        /* \"crop.sol\":3179:3239  require(ownerSent == sender, \"You don't own the sent token\") */\n      0x04\n      dup3\n      add\n        /* \"#utility.yul\":8915:8936   */\n      mstore\n        /* \"#utility.yul\":8972:8974   */\n      0x1c\n        /* \"#utility.yul\":8952:8970   */\n      0x24\n      dup3\n      add\n        /* \"#utility.yul\":8945:8975   */\n      mstore\n        /* \"#utility.yul\":9011:9041   */\n      0x596f7520646f6e2774206f776e207468652073656e7420746f6b656e00000000\n        /* \"#utility.yul\":8991:9009   */\n      0x44\n      dup3\n      add\n        /* \"#utility.yul\":8984:9042   */\n      mstore\n        /* \"#utility.yul\":9059:9077   */\n      0x64\n      add\n        /* \"crop.sol\":3179:3239  require(ownerSent == sender, \"You don't own the sent token\") */\n      tag_201\n        /* \"#utility.yul\":8731:9083   */\n      jump\n        /* \"crop.sol\":3179:3239  require(ownerSent == sender, \"You don't own the sent token\") */\n    tag_243:\n        /* \"crop.sol\":3294:3342  transferFrom(sender, address(this), tokenIdSent) */\n      tag_246\n        /* \"crop.sol\":3307:3313  sender */\n      dup3\n        /* \"crop.sol\":3323:3327  this */\n      address\n        /* \"crop.sol\":3330:3341  tokenIdSent */\n      dup7\n        /* \"crop.sol\":3294:3306  transferFrom */\n      tag_93\n        /* \"crop.sol\":3294:3342  transferFrom(sender, address(this), tokenIdSent) */\n      jump\t// in\n    tag_246:\n        /* \"crop.sol\":3542:3616  ERC721(address(this)).transferFrom(address(this), sender, tokenIdReceived) */\n      mload(0x40)\n      shl(0xe0, 0x23b872dd)\n      dup2\n      mstore\n        /* \"crop.sol\":3557:3561  this */\n      address\n        /* \"crop.sol\":3542:3616  ERC721(address(this)).transferFrom(address(this), sender, tokenIdReceived) */\n      0x04\n      dup3\n      add\n        /* \"#utility.yul\":7532:7566   */\n      dup2\n      swap1\n      mstore\n      sub(shl(0xa0, 0x01), 0x01)\n        /* \"#utility.yul\":7602:7617   */\n      dup5\n      and\n        /* \"#utility.yul\":7582:7600   */\n      0x24\n      dup4\n      add\n        /* \"#utility.yul\":7575:7618   */\n      mstore\n        /* \"#utility.yul\":7634:7652   */\n      0x44\n      dup3\n      add\n        /* \"#utility.yul\":7627:7661   */\n      dup6\n      swap1\n      mstore\n        /* \"crop.sol\":3557:3561  this */\n      swap1\n        /* \"crop.sol\":3542:3576  ERC721(address(this)).transferFrom */\n      0x23b872dd\n      swap1\n        /* \"#utility.yul\":7467:7485   */\n      0x64\n      add\n        /* \"crop.sol\":3542:3616  ERC721(address(this)).transferFrom(address(this), sender, tokenIdReceived) */\n      0x00\n      mload(0x40)\n      dup1\n      dup4\n      sub\n      dup2\n      0x00\n      dup8\n      dup1\n      extcodesize\n      iszero\n      dup1\n      iszero\n      tag_248\n      jumpi\n      0x00\n      dup1\n      revert\n    tag_248:\n      pop\n      gas\n      call\n      iszero\n      dup1\n      iszero\n      tag_250\n      jumpi\n      returndatasize\n      0x00\n      dup1\n      returndatacopy\n      revert(0x00, returndatasize)\n    tag_250:\n      pop\n      pop\n      pop\n      pop\n        /* \"crop.sol\":3018:3623  {... */\n      pop\n      pop\n        /* \"crop.sol\":2944:3623  function tradeNFTs(uint256 tokenIdSent, uint256 tokenIdReceived) external {... */\n      pop\n      pop\n      jump\t// out\n        /* \"@openzeppelin/contracts/token/ERC721/ERC721.sol\":4787:4919  function safeTransferFrom(address from, address to, uint256 tokenId) public {... */\n    tag_104:\n        /* \"@openzeppelin/contracts/token/ERC721/ERC721.sol\":4873:4912  safeTransferFrom(from, to, tokenId, \"\") */\n      tag_252\n        /* \"@openzeppelin/contracts/token/ERC721/ERC721.sol\":4890:4894  from */\n      dup4\n        /* \"@openzeppelin/contracts/token/ERC721/ERC721.sol\":4896:4898  to */\n      dup4\n        /* \"@openzeppelin/contracts/token/ERC721/ERC721.sol\":4900:4907  tokenId */\n      dup4\n        /* \"@openzeppelin/contracts/token/ERC721/ERC721.sol\":4873:4912  safeTransferFrom(from, to, tokenId, \"\") */\n      mload(0x40)\n      dup1\n      0x20\n      add\n      0x40\n      mstore\n      dup1\n      0x00\n      dup2\n      mstore\n      pop\n        /* \"@openzeppelin/contracts/token/ERC721/ERC721.sol\":4873:4889  safeTransferFrom */\n      tag_157\n        /* \"@openzeppelin/contracts/token/ERC721/ERC721.sol\":4873:4912  safeTransferFrom(from, to, tokenId, \"\") */\n      jump\t// in\n    tag_252:\n        /* \"@openzeppelin/contracts/token/ERC721/ERC721.sol\":4787:4919  function safeTransferFrom(address from, address to, uint256 tokenId) public {... */\n      pop\n      pop\n      pop\n      jump\t// out\n        /* \"crop.sol\":799:1091  function userMint(... */\n    tag_109:\n        /* \"crop.sol\":936:937  0 */\n      0x00\n        /* \"crop.sol\":924:933  salePrice */\n      dup3\n        /* \"crop.sol\":924:937  salePrice > 0 */\n      gt\n        /* \"crop.sol\":916:951  require(salePrice > 0, \"error msg\") */\n      tag_254\n      jumpi\n      mload(0x40)\n      shl(0xe5, 0x461bcd)\n      dup2\n      mstore\n        /* \"#utility.yul\":7874:7876   */\n      0x20\n        /* \"crop.sol\":916:951  require(salePrice > 0, \"error msg\") */\n      0x04\n      dup3\n      add\n        /* \"#utility.yul\":7856:7877   */\n      mstore\n        /* \"#utility.yul\":7913:7914   */\n      0x09\n        /* \"#utility.yul\":7893:7911   */\n      0x24\n      dup3\n      add\n        /* \"#utility.yul\":7886:7915   */\n      mstore\n      shl(0xb8, 0x6572726f72206d7367)\n        /* \"#utility.yul\":7931:7949   */\n      0x44\n      dup3\n      add\n        /* \"#utility.yul\":7924:7963   */\n      mstore\n        /* \"#utility.yul\":7980:7998   */\n      0x64\n      add\n        /* \"crop.sol\":916:951  require(salePrice > 0, \"error msg\") */\n      tag_201\n        /* \"#utility.yul\":7672:8004   */\n      jump\n        /* \"crop.sol\":916:951  require(salePrice > 0, \"error msg\") */\n    tag_254:\n        /* \"crop.sol\":962:979  saleInfo[tokenId] */\n      0x00\n      dup4\n      dup2\n      mstore\n        /* \"crop.sol\":962:970  saleInfo */\n      0x08\n        /* \"crop.sol\":962:979  saleInfo[tokenId] */\n      0x20\n      mstore\n      0x40\n      swap1\n      keccak256\n        /* \"crop.sol\":962:1001  saleInfo[tokenId].salePrice = salePrice */\n      dup3\n      swap1\n      sstore\n        /* \"crop.sol\":1012:1032  _mint(user, tokenId) */\n      tag_256\n        /* \"crop.sol\":1018:1022  user */\n      dup2\n        /* \"crop.sol\":971:978  tokenId */\n      dup5\n        /* \"crop.sol\":1012:1017  _mint */\n      tag_220\n        /* \"crop.sol\":1012:1032  _mint(user, tokenId) */\n      jump\t// in\n    tag_256:\n        /* \"crop.sol\":1046:1083  setApprovalForAll(address(0x1), true) */\n      tag_252\n        /* \"crop.sol\":1072:1075  0x1 */\n      0x01\n        /* \"crop.sol\":1078:1082  true */\n      dup1\n        /* \"crop.sol\":1046:1063  setApprovalForAll */\n      tag_149\n        /* \"crop.sol\":1046:1083  setApprovalForAll(address(0x1), true) */\n      jump\t// in\n        /* \"@openzeppelin/contracts/token/ERC721/ERC721.sol\":2185:2303  function ownerOf(uint256 tokenId) public view virtual returns (address) {... */\n    tag_113:\n        /* \"@openzeppelin/contracts/token/ERC721/ERC721.sol\":2248:2255  address */\n      0x00\n        /* \"@openzeppelin/contracts/token/ERC721/ERC721.sol\":2274:2296  _requireOwned(tokenId) */\n      tag_180\n        /* \"@openzeppelin/contracts/token/ERC721/ERC721.sol\":2288:2295  tokenId */\n      dup3\n        /* \"@openzeppelin/contracts/token/ERC721/ERC721.sol\":2274:2287  _requireOwned */\n      tag_191\n        /* \"@openzeppelin/contracts/token/ERC721/ERC721.sol\":2274:2296  _requireOwned(tokenId) */\n      jump\t// in\n        /* \"crop.sol\":1318:1476  function setAdmin(address _admin) external onlyOwner {... */\n    tag_119:\n        /* \"@openzeppelin/contracts/access/Ownable.sol\":1531:1544  _checkOwner() */\n      tag_261\n        /* \"@openzeppelin/contracts/access/Ownable.sol\":1531:1542  _checkOwner */\n      tag_262\n        /* \"@openzeppelin/contracts/access/Ownable.sol\":1531:1544  _checkOwner() */\n      jump\t// in\n    tag_261:\n      sub(shl(0xa0, 0x01), 0x01)\n        /* \"crop.sol\":1389:1409  _admin != address(0) */\n      dup2\n      and\n        /* \"crop.sol\":1381:1438  require(_admin != address(0), \"null address not allowed\") */\n      tag_264\n      jumpi\n      mload(0x40)\n      shl(0xe5, 0x461bcd)\n      dup2\n      mstore\n        /* \"#utility.yul\":9290:9292   */\n      0x20\n        /* \"crop.sol\":1381:1438  require(_admin != address(0), \"null address not allowed\") */\n      0x04\n      dup3\n      add\n        /* \"#utility.yul\":9272:9293   */\n      mstore\n        /* \"#utility.yul\":9329:9331   */\n      0x18\n        /* \"#utility.yul\":9309:9327   */\n      0x24\n      dup3\n      add\n        /* \"#utility.yul\":9302:9332   */\n      mstore\n        /* \"#utility.yul\":9368:9394   */\n      0x6e756c6c2061646472657373206e6f7420616c6c6f7765640000000000000000\n        /* \"#utility.yul\":9348:9366   */\n      0x44\n      dup3\n      add\n        /* \"#utility.yul\":9341:9395   */\n      mstore\n        /* \"#utility.yul\":9412:9430   */\n      0x64\n      add\n        /* \"crop.sol\":1381:1438  require(_admin != address(0), \"null address not allowed\") */\n      tag_201\n        /* \"#utility.yul\":9088:9436   */\n      jump\n        /* \"crop.sol\":1381:1438  require(_admin != address(0), \"null address not allowed\") */\n    tag_264:\n        /* \"crop.sol\":1448:1460  adminAddress */\n      0x09\n        /* \"crop.sol\":1448:1469  adminAddress = _admin */\n      dup1\n      sload\n      not(sub(shl(0xa0, 0x01), 0x01))\n      and\n      sub(shl(0xa0, 0x01), 0x01)\n      swap3\n      swap1\n      swap3\n      and\n      swap2\n      swap1\n      swap2\n      or\n      swap1\n      sstore\n        /* \"crop.sol\":1318:1476  function setAdmin(address _admin) external onlyOwner {... */\n      jump\t// out\n        /* \"@openzeppelin/contracts/token/ERC721/ERC721.sol\":1920:2128  function balanceOf(address owner) public view virtual returns (uint256) {... */\n    tag_123:\n        /* \"@openzeppelin/contracts/token/ERC721/ERC721.sol\":1983:1990  uint256 */\n      0x00\n      sub(shl(0xa0, 0x01), 0x01)\n        /* \"@openzeppelin/contracts/token/ERC721/ERC721.sol\":2006:2025  owner == address(0) */\n      dup3\n      and\n        /* \"@openzeppelin/contracts/token/ERC721/ERC721.sol\":2002:2089  if (owner == address(0)) {... */\n      tag_268\n      jumpi\n        /* \"@openzeppelin/contracts/token/ERC721/ERC721.sol\":2048:2078  ERC721InvalidOwner(address(0)) */\n      mload(0x40)\n      shl(0xe2, 0x22718ad9)\n      dup2\n      mstore\n        /* \"@openzeppelin/contracts/token/ERC721/ERC721.sol\":2075:2076  0 */\n      0x00\n        /* \"@openzeppelin/contracts/token/ERC721/ERC721.sol\":2048:2078  ERC721InvalidOwner(address(0)) */\n      0x04\n      dup3\n      add\n        /* \"#utility.yul\":1646:1697   */\n      mstore\n        /* \"#utility.yul\":1619:1637   */\n      0x24\n      add\n        /* \"@openzeppelin/contracts/token/ERC721/ERC721.sol\":2048:2078  ERC721InvalidOwner(address(0)) */\n      tag_201\n        /* \"#utility.yul\":1500:1703   */\n      jump\n        /* \"@openzeppelin/contracts/token/ERC721/ERC721.sol\":2002:2089  if (owner == address(0)) {... */\n    tag_268:\n      pop\n      sub(shl(0xa0, 0x01), 0x01)\n        /* \"@openzeppelin/contracts/token/ERC721/ERC721.sol\":2105:2121  _balances[owner] */\n      and\n      0x00\n      swap1\n      dup2\n      mstore\n        /* \"@openzeppelin/contracts/token/ERC721/ERC721.sol\":2105:2114  _balances */\n      0x03\n        /* \"@openzeppelin/contracts/token/ERC721/ERC721.sol\":2105:2121  _balances[owner] */\n      0x20\n      mstore\n      0x40\n      swap1\n      keccak256\n      sload\n      swap1\n        /* \"@openzeppelin/contracts/token/ERC721/ERC721.sol\":1920:2128  function balanceOf(address owner) public view virtual returns (uint256) {... */\n      jump\t// out\n        /* \"@openzeppelin/contracts/access/Ownable.sol\":2293:2394  function renounceOwnership() public virtual onlyOwner {... */\n    tag_127:\n        /* \"@openzeppelin/contracts/access/Ownable.sol\":1531:1544  _checkOwner() */\n      tag_271\n        /* \"@openzeppelin/contracts/access/Ownable.sol\":1531:1542  _checkOwner */\n      tag_262\n        /* \"@openzeppelin/contracts/access/Ownable.sol\":1531:1544  _checkOwner() */\n      jump\t// in\n    tag_271:\n        /* \"@openzeppelin/contracts/access/Ownable.sol\":2357:2387  _transferOwnership(address(0)) */\n      tag_273\n        /* \"@openzeppelin/contracts/access/Ownable.sol\":2384:2385  0 */\n      0x00\n        /* \"@openzeppelin/contracts/access/Ownable.sol\":2357:2375  _transferOwnership */\n      tag_274\n        /* \"@openzeppelin/contracts/access/Ownable.sol\":2357:2387  _transferOwnership(address(0)) */\n      jump\t// in\n    tag_273:\n        /* \"@openzeppelin/contracts/access/Ownable.sol\":2293:2394  function renounceOwnership() public virtual onlyOwner {... */\n      jump\t// out\n        /* \"crop.sol\":1800:1985  function burnToken(uint256 tokenId) public {... */\n    tag_131:\n        /* \"crop.sol\":1853:1867  address seller */\n      0x00\n        /* \"crop.sol\":1870:1886  ownerOf(tokenId) */\n      tag_276\n        /* \"crop.sol\":1878:1885  tokenId */\n      dup3\n        /* \"crop.sol\":1870:1877  ownerOf */\n      tag_113\n        /* \"crop.sol\":1870:1886  ownerOf(tokenId) */\n      jump\t// in\n    tag_276:\n        /* \"crop.sol\":1853:1886  address seller = ownerOf(tokenId) */\n      swap1\n      pop\n      sub(shl(0xa0, 0x01), 0x01)\n        /* \"crop.sol\":1904:1924  seller == msg.sender */\n      dup2\n      and\n        /* \"crop.sol\":1914:1924  msg.sender */\n      caller\n        /* \"crop.sol\":1904:1924  seller == msg.sender */\n      eq\n        /* \"crop.sol\":1896:1954  require(seller == msg.sender, \"Only owner can burn Token\") */\n      tag_277\n      jumpi\n      mload(0x40)\n      shl(0xe5, 0x461bcd)\n      dup2\n      mstore\n        /* \"#utility.yul\":9643:9645   */\n      0x20\n        /* \"crop.sol\":1896:1954  require(seller == msg.sender, \"Only owner can burn Token\") */\n      0x04\n      dup3\n      add\n        /* \"#utility.yul\":9625:9646   */\n      mstore\n        /* \"#utility.yul\":9682:9684   */\n      0x19\n        /* \"#utility.yul\":9662:9680   */\n      0x24\n      dup3\n      add\n        /* \"#utility.yul\":9655:9685   */\n      mstore\n        /* \"#utility.yul\":9721:9748   */\n      0x4f6e6c79206f776e65722063616e206275726e20546f6b656e00000000000000\n        /* \"#utility.yul\":9701:9719   */\n      0x44\n      dup3\n      add\n        /* \"#utility.yul\":9694:9749   */\n      mstore\n        /* \"#utility.yul\":9766:9784   */\n      0x64\n      add\n        /* \"crop.sol\":1896:1954  require(seller == msg.sender, \"Only owner can burn Token\") */\n      tag_201\n        /* \"#utility.yul\":9441:9790   */\n      jump\n        /* \"crop.sol\":1896:1954  require(seller == msg.sender, \"Only owner can burn Token\") */\n    tag_277:\n        /* \"crop.sol\":1964:1978  _burn(tokenId) */\n      tag_195\n        /* \"crop.sol\":1970:1977  tokenId */\n      dup3\n        /* \"crop.sol\":1964:1969  _burn */\n      tag_281\n        /* \"crop.sol\":1964:1978  _burn(tokenId) */\n      jump\t// in\n        /* \"@openzeppelin/contracts/token/ERC721/ERC721.sol\":2518:2611  function symbol() public view virtual returns (string memory) {... */\n    tag_138:\n        /* \"@openzeppelin/contracts/token/ERC721/ERC721.sol\":2565:2578  string memory */\n      0x60\n        /* \"@openzeppelin/contracts/token/ERC721/ERC721.sol\":2597:2604  _symbol */\n      0x01\n        /* \"@openzeppelin/contracts/token/ERC721/ERC721.sol\":2590:2604  return _symbol */\n      dup1\n      sload\n      tag_183\n      swap1\n      tag_184\n      jump\t// in\n        /* \"crop.sol\":1482:1572  function setBaseUri(string memory _uri) external onlyOwner {... */\n    tag_144:\n        /* \"@openzeppelin/contracts/access/Ownable.sol\":1531:1544  _checkOwner() */\n      tag_290\n        /* \"@openzeppelin/contracts/access/Ownable.sol\":1531:1542  _checkOwner */\n      tag_262\n        /* \"@openzeppelin/contracts/access/Ownable.sol\":1531:1544  _checkOwner() */\n      jump\t// in\n    tag_290:\n        /* \"crop.sol\":1551:1558  baseUri */\n      0x07\n        /* \"crop.sol\":1551:1565  baseUri = _uri */\n      tag_195\n        /* \"crop.sol\":1561:1565  _uri */\n      dup3\n        /* \"crop.sol\":1551:1558  baseUri */\n      dup3\n        /* \"crop.sol\":1551:1565  baseUri = _uri */\n      tag_293\n      jump\t// in\n        /* \"@openzeppelin/contracts/token/ERC721/ERC721.sol\":3718:3862  function setApprovalForAll(address operator, bool approved) public virtual {... */\n    tag_149:\n        /* \"@openzeppelin/contracts/token/ERC721/ERC721.sol\":3803:3855  _setApprovalForAll(_msgSender(), operator, approved) */\n      tag_195\n        /* \"@openzeppelin/contracts/utils/Context.sol\":735:745  msg.sender */\n      caller\n        /* \"@openzeppelin/contracts/token/ERC721/ERC721.sol\":3836:3844  operator */\n      dup4\n        /* \"@openzeppelin/contracts/token/ERC721/ERC721.sol\":3846:3854  approved */\n      dup4\n        /* \"@openzeppelin/contracts/token/ERC721/ERC721.sol\":3803:3821  _setApprovalForAll */\n      tag_297\n        /* \"@openzeppelin/contracts/token/ERC721/ERC721.sol\":3803:3855  _setApprovalForAll(_msgSender(), operator, approved) */\n      jump\t// in\n        /* \"crop.sol\":2582:2938  function listNFTForSale(uint256 tokenId, uint256 salePrice) external {... */\n    tag_153:\n        /* \"crop.sol\":2723:2733  msg.sender */\n      caller\n        /* \"crop.sol\":2703:2719  ownerOf(tokenId) */\n      tag_299\n        /* \"crop.sol\":2711:2718  tokenId */\n      dup4\n        /* \"crop.sol\":2703:2710  ownerOf */\n      tag_113\n        /* \"crop.sol\":2703:2719  ownerOf(tokenId) */\n      jump\t// in\n    tag_299:\n      sub(shl(0xa0, 0x01), 0x01)\n        /* \"crop.sol\":2703:2733  ownerOf(tokenId) == msg.sender */\n      and\n      eq\n        /* \"crop.sol\":2695:2760  require(ownerOf(tokenId) == msg.sender, \"You don't own this NFT\") */\n      tag_300\n      jumpi\n      mload(0x40)\n      shl(0xe5, 0x461bcd)\n      dup2\n      mstore\n        /* \"#utility.yul\":12167:12169   */\n      0x20\n        /* \"crop.sol\":2695:2760  require(ownerOf(tokenId) == msg.sender, \"You don't own this NFT\") */\n      0x04\n      dup3\n      add\n        /* \"#utility.yul\":12149:12170   */\n      mstore\n        /* \"#utility.yul\":12206:12208   */\n      0x16\n        /* \"#utility.yul\":12186:12204   */\n      0x24\n      dup3\n      add\n        /* \"#utility.yul\":12179:12209   */\n      mstore\n      shl(0x52, 0x165bdd48191bdb89dd081bdddb881d1a1a5cc8139195)\n        /* \"#utility.yul\":12225:12243   */\n      0x44\n      dup3\n      add\n        /* \"#utility.yul\":12218:12270   */\n      mstore\n        /* \"#utility.yul\":12287:12305   */\n      0x64\n      add\n        /* \"crop.sol\":2695:2760  require(ownerOf(tokenId) == msg.sender, \"You don't own this NFT\") */\n      tag_201\n        /* \"#utility.yul\":11965:12311   */\n      jump\n        /* \"crop.sol\":2695:2760  require(ownerOf(tokenId) == msg.sender, \"You don't own this NFT\") */\n    tag_300:\n        /* \"crop.sol\":2805:2822  saleInfo[tokenId] */\n      0x00\n      dup3\n      dup2\n      mstore\n        /* \"crop.sol\":2805:2813  saleInfo */\n      0x08\n        /* \"crop.sol\":2805:2822  saleInfo[tokenId] */\n      0x20\n      mstore\n      0x40\n      swap1\n      keccak256\n        /* \"crop.sol\":2805:2844  saleInfo[tokenId].salePrice = salePrice */\n      dup2\n      swap1\n      sstore\n        /* \"crop.sol\":2899:2930  approve(address(this), tokenId) */\n      tag_195\n        /* \"crop.sol\":2915:2919  this */\n      address\n        /* \"crop.sol\":2814:2821  tokenId */\n      dup4\n        /* \"crop.sol\":2899:2906  approve */\n      tag_67\n        /* \"crop.sol\":2899:2930  approve(address(this), tokenId) */\n      jump\t// in\n        /* \"@openzeppelin/contracts/token/ERC721/ERC721.sol\":4985:5193  function safeTransferFrom(address from, address to, uint256 tokenId, bytes memory data) public virtual {... */\n    tag_157:\n        /* \"@openzeppelin/contracts/token/ERC721/ERC721.sol\":5098:5129  transferFrom(from, to, tokenId) */\n      tag_305\n        /* \"@openzeppelin/contracts/token/ERC721/ERC721.sol\":5111:5115  from */\n      dup5\n        /* \"@openzeppelin/contracts/token/ERC721/ERC721.sol\":5117:5119  to */\n      dup5\n        /* \"@openzeppelin/contracts/token/ERC721/ERC721.sol\":5121:5128  tokenId */\n      dup5\n        /* \"@openzeppelin/contracts/token/ERC721/ERC721.sol\":5098:5110  transferFrom */\n      tag_93\n        /* \"@openzeppelin/contracts/token/ERC721/ERC721.sol\":5098:5129  transferFrom(from, to, tokenId) */\n      jump\t// in\n    tag_305:\n        /* \"@openzeppelin/contracts/token/ERC721/ERC721.sol\":5139:5186  _checkOnERC721Received(from, to, tokenId, data) */\n      tag_230\n        /* \"@openzeppelin/contracts/token/ERC721/ERC721.sol\":5162:5166  from */\n      dup5\n        /* \"@openzeppelin/contracts/token/ERC721/ERC721.sol\":5168:5170  to */\n      dup5\n        /* \"@openzeppelin/contracts/token/ERC721/ERC721.sol\":5172:5179  tokenId */\n      dup5\n        /* \"@openzeppelin/contracts/token/ERC721/ERC721.sol\":5181:5185  data */\n      dup5\n        /* \"@openzeppelin/contracts/token/ERC721/ERC721.sol\":5139:5161  _checkOnERC721Received */\n      tag_307\n        /* \"@openzeppelin/contracts/token/ERC721/ERC721.sol\":5139:5186  _checkOnERC721Received(from, to, tokenId, data) */\n      jump\t// in\n        /* \"@openzeppelin/contracts/token/ERC721/ERC721.sol\":2677:2932  function tokenURI(uint256 tokenId) public view virtual returns (string memory) {... */\n    tag_161:\n        /* \"@openzeppelin/contracts/token/ERC721/ERC721.sol\":2741:2754  string memory */\n      0x60\n        /* \"@openzeppelin/contracts/token/ERC721/ERC721.sol\":2766:2788  _requireOwned(tokenId) */\n      tag_309\n        /* \"@openzeppelin/contracts/token/ERC721/ERC721.sol\":2780:2787  tokenId */\n      dup3\n        /* \"@openzeppelin/contracts/token/ERC721/ERC721.sol\":2766:2779  _requireOwned */\n      tag_191\n        /* \"@openzeppelin/contracts/token/ERC721/ERC721.sol\":2766:2788  _requireOwned(tokenId) */\n      jump\t// in\n    tag_309:\n      pop\n        /* \"@openzeppelin/contracts/token/ERC721/ERC721.sol\":2799:2820  string memory baseURI */\n      0x00\n        /* \"@openzeppelin/contracts/token/ERC721/ERC721.sol\":2823:2833  _baseURI() */\n      tag_310\n        /* \"@openzeppelin/contracts/token/ERC721/ERC721.sol\":2823:2831  _baseURI */\n      tag_311\n        /* \"@openzeppelin/contracts/token/ERC721/ERC721.sol\":2823:2833  _baseURI() */\n      jump\t// in\n    tag_310:\n        /* \"@openzeppelin/contracts/token/ERC721/ERC721.sol\":2799:2833  string memory baseURI = _baseURI() */\n      swap1\n      pop\n        /* \"@openzeppelin/contracts/token/ERC721/ERC721.sol\":2874:2875  0 */\n      0x00\n        /* \"@openzeppelin/contracts/token/ERC721/ERC721.sol\":2856:2863  baseURI */\n      dup2\n        /* \"@openzeppelin/contracts/token/ERC721/ERC721.sol\":2850:2871  bytes(baseURI).length */\n      mload\n        /* \"@openzeppelin/contracts/token/ERC721/ERC721.sol\":2850:2875  bytes(baseURI).length > 0 */\n      gt\n        /* \"@openzeppelin/contracts/token/ERC721/ERC721.sol\":2850:2925  bytes(baseURI).length > 0 ? string.concat(baseURI, tokenId.toString()) : \"\" */\n      tag_312\n      jumpi\n      mload(0x40)\n      dup1\n      0x20\n      add\n      0x40\n      mstore\n      dup1\n      0x00\n      dup2\n      mstore\n      pop\n      jump(tag_313)\n    tag_312:\n        /* \"@openzeppelin/contracts/token/ERC721/ERC721.sol\":2892:2899  baseURI */\n      dup1\n        /* \"@openzeppelin/contracts/token/ERC721/ERC721.sol\":2901:2919  tokenId.toString() */\n      tag_314\n        /* \"@openzeppelin/contracts/token/ERC721/ERC721.sol\":2901:2908  tokenId */\n      dup5\n        /* \"@openzeppelin/contracts/token/ERC721/ERC721.sol\":2901:2917  tokenId.toString */\n      tag_315\n        /* \"@openzeppelin/contracts/token/ERC721/ERC721.sol\":2901:2919  tokenId.toString() */\n      jump\t// in\n    tag_314:\n        /* \"@openzeppelin/contracts/token/ERC721/ERC721.sol\":2878:2920  string.concat(baseURI, tokenId.toString()) */\n      add(0x20, mload(0x40))\n      tag_316\n      swap3\n      swap2\n      swap1\n      tag_317\n      jump\t// in\n    tag_316:\n      mload(0x40)\n      0x20\n      dup2\n      dup4\n      sub\n      sub\n      dup2\n      mstore\n      swap1\n      0x40\n      mstore\n        /* \"@openzeppelin/contracts/token/ERC721/ERC721.sol\":2850:2925  bytes(baseURI).length > 0 ? string.concat(baseURI, tokenId.toString()) : \"\" */\n    tag_313:\n        /* \"@openzeppelin/contracts/token/ERC721/ERC721.sol\":2843:2925  return bytes(baseURI).length > 0 ? string.concat(baseURI, tokenId.toString()) : \"\" */\n      swap4\n        /* \"@openzeppelin/contracts/token/ERC721/ERC721.sol\":2677:2932  function tokenURI(uint256 tokenId) public view virtual returns (string memory) {... */\n      swap3\n      pop\n      pop\n      pop\n      jump\t// out\n        /* \"@openzeppelin/contracts/token/ERC721/ERC721.sol\":3928:4081  function isApprovedForAll(address owner, address operator) public view virtual returns (bool) {... */\n    tag_167:\n      sub(shl(0xa0, 0x01), 0x01)\n        /* \"@openzeppelin/contracts/token/ERC721/ERC721.sol\":4039:4064  _operatorApprovals[owner] */\n      swap2\n      dup3\n      and\n        /* \"@openzeppelin/contracts/token/ERC721/ERC721.sol\":4016:4020  bool */\n      0x00\n        /* \"@openzeppelin/contracts/token/ERC721/ERC721.sol\":4039:4064  _operatorApprovals[owner] */\n      swap1\n      dup2\n      mstore\n        /* \"@openzeppelin/contracts/token/ERC721/ERC721.sol\":4039:4057  _operatorApprovals */\n      0x05\n        /* \"@openzeppelin/contracts/token/ERC721/ERC721.sol\":4039:4064  _operatorApprovals[owner] */\n      0x20\n      swap1\n      dup2\n      mstore\n      0x40\n      dup1\n      dup4\n      keccak256\n        /* \"@openzeppelin/contracts/token/ERC721/ERC721.sol\":4039:4074  _operatorApprovals[owner][operator] */\n      swap4\n      swap1\n      swap5\n      and\n      dup3\n      mstore\n      swap2\n      swap1\n      swap2\n      mstore\n      keccak256\n      sload\n      0xff\n      and\n      swap1\n        /* \"@openzeppelin/contracts/token/ERC721/ERC721.sol\":3928:4081  function isApprovedForAll(address owner, address operator) public view virtual returns (bool) {... */\n      jump\t// out\n        /* \"@openzeppelin/contracts/access/Ownable.sol\":2543:2758  function transferOwnership(address newOwner) public virtual onlyOwner {... */\n    tag_172:\n        /* \"@openzeppelin/contracts/access/Ownable.sol\":1531:1544  _checkOwner() */\n      tag_320\n        /* \"@openzeppelin/contracts/access/Ownable.sol\":1531:1542  _checkOwner */\n      tag_262\n        /* \"@openzeppelin/contracts/access/Ownable.sol\":1531:1544  _checkOwner() */\n      jump\t// in\n    tag_320:\n      sub(shl(0xa0, 0x01), 0x01)\n        /* \"@openzeppelin/contracts/access/Ownable.sol\":2627:2649  newOwner == address(0) */\n      dup2\n      and\n        /* \"@openzeppelin/contracts/access/Ownable.sol\":2623:2714  if (newOwner == address(0)) {... */\n      tag_322\n      jumpi\n        /* \"@openzeppelin/contracts/access/Ownable.sol\":2672:2703  OwnableInvalidOwner(address(0)) */\n      mload(0x40)\n      shl(0xe0, 0x1e4fbdf7)\n      dup2\n      mstore\n        /* \"@openzeppelin/contracts/access/Ownable.sol\":2700:2701  0 */\n      0x00\n        /* \"@openzeppelin/contracts/access/Ownable.sol\":2672:2703  OwnableInvalidOwner(address(0)) */\n      0x04\n      dup3\n      add\n        /* \"#utility.yul\":1646:1697   */\n      mstore\n        /* \"#utility.yul\":1619:1637   */\n      0x24\n      add\n        /* \"@openzeppelin/contracts/access/Ownable.sol\":2672:2703  OwnableInvalidOwner(address(0)) */\n      tag_201\n        /* \"#utility.yul\":1500:1703   */\n      jump\n        /* \"@openzeppelin/contracts/access/Ownable.sol\":2623:2714  if (newOwner == address(0)) {... */\n    tag_322:\n        /* \"@openzeppelin/contracts/access/Ownable.sol\":2723:2751  _transferOwnership(newOwner) */\n      tag_324\n        /* \"@openzeppelin/contracts/access/Ownable.sol\":2742:2750  newOwner */\n      dup2\n        /* \"@openzeppelin/contracts/access/Ownable.sol\":2723:2741  _transferOwnership */\n      tag_274\n        /* \"@openzeppelin/contracts/access/Ownable.sol\":2723:2751  _transferOwnership(newOwner) */\n      jump\t// in\n    tag_324:\n        /* \"@openzeppelin/contracts/access/Ownable.sol\":2543:2758  function transferOwnership(address newOwner) public virtual onlyOwner {... */\n      pop\n      jump\t// out\n        /* \"@openzeppelin/contracts/token/ERC721/ERC721.sol\":16138:16379  function _requireOwned(uint256 tokenId) internal view returns (address) {... */\n    tag_191:\n        /* \"@openzeppelin/contracts/token/ERC721/ERC721.sol\":16201:16208  address */\n      0x00\n        /* \"@openzeppelin/contracts/token/ERC721/ERC721.sol\":5799:5815  _owners[tokenId] */\n      dup2\n      dup2\n      mstore\n        /* \"@openzeppelin/contracts/token/ERC721/ERC721.sol\":5799:5806  _owners */\n      0x02\n        /* \"@openzeppelin/contracts/token/ERC721/ERC721.sol\":5799:5815  _owners[tokenId] */\n      0x20\n      mstore\n      0x40\n      dup2\n      keccak256\n      sload\n      sub(shl(0xa0, 0x01), 0x01)\n      and\n      dup1\n        /* \"@openzeppelin/contracts/token/ERC721/ERC721.sol\":16263:16351  if (owner == address(0)) {... */\n      tag_180\n      jumpi\n        /* \"@openzeppelin/contracts/token/ERC721/ERC721.sol\":16309:16340  ERC721NonexistentToken(tokenId) */\n      mload(0x40)\n      shl(0xe0, 0x7e273289)\n      dup2\n      mstore\n      0x04\n      dup2\n      add\n        /* \"#utility.yul\":923:948   */\n      dup5\n      swap1\n      mstore\n        /* \"#utility.yul\":896:914   */\n      0x24\n      add\n        /* \"@openzeppelin/contracts/token/ERC721/ERC721.sol\":16309:16340  ERC721NonexistentToken(tokenId) */\n      tag_201\n        /* \"#utility.yul\":777:954   */\n      jump\n        /* \"@openzeppelin/contracts/token/ERC721/ERC721.sol\":14418:14538  function _approve(address to, uint256 tokenId, address auth) internal {... */\n    tag_198:\n        /* \"@openzeppelin/contracts/token/ERC721/ERC721.sol\":14498:14531  _approve(to, tokenId, auth, true) */\n      tag_252\n        /* \"@openzeppelin/contracts/token/ERC721/ERC721.sol\":14507:14509  to */\n      dup4\n        /* \"@openzeppelin/contracts/token/ERC721/ERC721.sol\":14511:14518  tokenId */\n      dup4\n        /* \"@openzeppelin/contracts/token/ERC721/ERC721.sol\":14520:14524  auth */\n      dup4\n        /* \"@openzeppelin/contracts/token/ERC721/ERC721.sol\":14526:14530  true */\n      0x01\n        /* \"@openzeppelin/contracts/token/ERC721/ERC721.sol\":14498:14506  _approve */\n      tag_335\n        /* \"@openzeppelin/contracts/token/ERC721/ERC721.sol\":14498:14531  _approve(to, tokenId, auth, true) */\n      jump\t// in\n        /* \"@openzeppelin/contracts/token/ERC721/ERC721.sol\":9955:10282  function _mint(address to, uint256 tokenId) internal {... */\n    tag_220:\n      sub(shl(0xa0, 0x01), 0x01)\n        /* \"@openzeppelin/contracts/token/ERC721/ERC721.sol\":10022:10038  to == address(0) */\n      dup3\n      and\n        /* \"@openzeppelin/contracts/token/ERC721/ERC721.sol\":10018:10105  if (to == address(0)) {... */\n      tag_337\n      jumpi\n        /* \"@openzeppelin/contracts/token/ERC721/ERC721.sol\":10061:10094  ERC721InvalidReceiver(address(0)) */\n      mload(0x40)\n      shl(0xe1, 0x32505749)\n      dup2\n      mstore\n        /* \"@openzeppelin/contracts/token/ERC721/ERC721.sol\":10091:10092  0 */\n      0x00\n        /* \"@openzeppelin/contracts/token/ERC721/ERC721.sol\":10061:10094  ERC721InvalidReceiver(address(0)) */\n      0x04\n      dup3\n      add\n        /* \"#utility.yul\":1646:1697   */\n      mstore\n        /* \"#utility.yul\":1619:1637   */\n      0x24\n      add\n        /* \"@openzeppelin/contracts/token/ERC721/ERC721.sol\":10061:10094  ERC721InvalidReceiver(address(0)) */\n      tag_201\n        /* \"#utility.yul\":1500:1703   */\n      jump\n        /* \"@openzeppelin/contracts/token/ERC721/ERC721.sol\":10018:10105  if (to == address(0)) {... */\n    tag_337:\n        /* \"@openzeppelin/contracts/token/ERC721/ERC721.sol\":10114:10135  address previousOwner */\n      0x00\n        /* \"@openzeppelin/contracts/token/ERC721/ERC721.sol\":10138:10170  _update(to, tokenId, address(0)) */\n      tag_339\n        /* \"@openzeppelin/contracts/token/ERC721/ERC721.sol\":10146:10148  to */\n      dup4\n        /* \"@openzeppelin/contracts/token/ERC721/ERC721.sol\":10150:10157  tokenId */\n      dup4\n        /* \"@openzeppelin/contracts/token/ERC721/ERC721.sol\":10167:10168  0 */\n      0x00\n        /* \"@openzeppelin/contracts/token/ERC721/ERC721.sol\":10138:10145  _update */\n      tag_229\n        /* \"@openzeppelin/contracts/token/ERC721/ERC721.sol\":10138:10170  _update(to, tokenId, address(0)) */\n      jump\t// in\n    tag_339:\n        /* \"@openzeppelin/contracts/token/ERC721/ERC721.sol\":10114:10170  address previousOwner = _update(to, tokenId, address(0)) */\n      swap1\n      pop\n      sub(shl(0xa0, 0x01), 0x01)\n        /* \"@openzeppelin/contracts/token/ERC721/ERC721.sol\":10184:10211  previousOwner != address(0) */\n      dup2\n      and\n      iszero\n        /* \"@openzeppelin/contracts/token/ERC721/ERC721.sol\":10180:10276  if (previousOwner != address(0)) {... */\n      tag_252\n      jumpi\n        /* \"@openzeppelin/contracts/token/ERC721/ERC721.sol\":10234:10265  ERC721InvalidSender(address(0)) */\n      mload(0x40)\n      shl(0xe1, 0x39e35637)\n      dup2\n      mstore\n        /* \"@openzeppelin/contracts/token/ERC721/ERC721.sol\":10262:10263  0 */\n      0x00\n        /* \"@openzeppelin/contracts/token/ERC721/ERC721.sol\":10234:10265  ERC721InvalidSender(address(0)) */\n      0x04\n      dup3\n      add\n        /* \"#utility.yul\":1646:1697   */\n      mstore\n        /* \"#utility.yul\":1619:1637   */\n      0x24\n      add\n        /* \"@openzeppelin/contracts/token/ERC721/ERC721.sol\":10234:10265  ERC721InvalidSender(address(0)) */\n      tag_201\n        /* \"#utility.yul\":1500:1703   */\n      jump\n        /* \"@openzeppelin/contracts/token/ERC721/ERC721.sol\":8838:9633  function _update(address to, uint256 tokenId, address auth) internal virtual returns (address) {... */\n    tag_229:\n        /* \"@openzeppelin/contracts/token/ERC721/ERC721.sol\":8924:8931  address */\n      0x00\n        /* \"@openzeppelin/contracts/token/ERC721/ERC721.sol\":5799:5815  _owners[tokenId] */\n      dup3\n      dup2\n      mstore\n        /* \"@openzeppelin/contracts/token/ERC721/ERC721.sol\":5799:5806  _owners */\n      0x02\n        /* \"@openzeppelin/contracts/token/ERC721/ERC721.sol\":5799:5815  _owners[tokenId] */\n      0x20\n      mstore\n      0x40\n      dup2\n      keccak256\n      sload\n      sub(shl(0xa0, 0x01), 0x01)\n      swap1\n      dup2\n      and\n      swap1\n        /* \"@openzeppelin/contracts/token/ERC721/ERC721.sol\":9035:9053  auth != address(0) */\n      dup4\n      and\n      iszero\n        /* \"@openzeppelin/contracts/token/ERC721/ERC721.sol\":9031:9117  if (auth != address(0)) {... */\n      tag_345\n      jumpi\n        /* \"@openzeppelin/contracts/token/ERC721/ERC721.sol\":9069:9106  _checkAuthorized(from, auth, tokenId) */\n      tag_345\n        /* \"@openzeppelin/contracts/token/ERC721/ERC721.sol\":9086:9090  from */\n      dup2\n        /* \"@openzeppelin/contracts/token/ERC721/ERC721.sol\":9092:9096  auth */\n      dup5\n        /* \"@openzeppelin/contracts/token/ERC721/ERC721.sol\":9098:9105  tokenId */\n      dup7\n        /* \"@openzeppelin/contracts/token/ERC721/ERC721.sol\":9069:9085  _checkAuthorized */\n      tag_346\n        /* \"@openzeppelin/contracts/token/ERC721/ERC721.sol\":9069:9106  _checkAuthorized(from, auth, tokenId) */\n      jump\t// in\n    tag_345:\n      sub(shl(0xa0, 0x01), 0x01)\n        /* \"@openzeppelin/contracts/token/ERC721/ERC721.sol\":9161:9179  from != address(0) */\n      dup2\n      and\n      iszero\n        /* \"@openzeppelin/contracts/token/ERC721/ERC721.sol\":9157:9413  if (from != address(0)) {... */\n      tag_347\n      jumpi\n        /* \"@openzeppelin/contracts/token/ERC721/ERC721.sol\":9277:9325  _approve(address(0), tokenId, address(0), false) */\n      tag_348\n        /* \"@openzeppelin/contracts/token/ERC721/ERC721.sol\":9294:9295  0 */\n      0x00\n        /* \"@openzeppelin/contracts/token/ERC721/ERC721.sol\":9298:9305  tokenId */\n      dup6\n        /* \"@openzeppelin/contracts/token/ERC721/ERC721.sol\":9315:9316  0 */\n      0x00\n        /* \"@openzeppelin/contracts/token/ERC721/ERC721.sol\":9319:9324  false */\n      dup1\n        /* \"@openzeppelin/contracts/token/ERC721/ERC721.sol\":9277:9285  _approve */\n      tag_335\n        /* \"@openzeppelin/contracts/token/ERC721/ERC721.sol\":9277:9325  _approve(address(0), tokenId, address(0), false) */\n      jump\t// in\n    tag_348:\n      sub(shl(0xa0, 0x01), 0x01)\n        /* \"@openzeppelin/contracts/token/ERC721/ERC721.sol\":9368:9383  _balances[from] */\n      dup2\n      and\n      0x00\n      swap1\n      dup2\n      mstore\n        /* \"@openzeppelin/contracts/token/ERC721/ERC721.sol\":9368:9377  _balances */\n      0x03\n        /* \"@openzeppelin/contracts/token/ERC721/ERC721.sol\":9368:9383  _balances[from] */\n      0x20\n      mstore\n      0x40\n      swap1\n      keccak256\n        /* \"@openzeppelin/contracts/token/ERC721/ERC721.sol\":9368:9388  _balances[from] -= 1 */\n      dup1\n      sload\n      not(0x00)\n      add\n      swap1\n      sstore\n        /* \"@openzeppelin/contracts/token/ERC721/ERC721.sol\":9157:9413  if (from != address(0)) {... */\n    tag_347:\n      sub(shl(0xa0, 0x01), 0x01)\n        /* \"@openzeppelin/contracts/token/ERC721/ERC721.sol\":9427:9443  to != address(0) */\n      dup6\n      and\n      iszero\n        /* \"@openzeppelin/contracts/token/ERC721/ERC721.sol\":9423:9530  if (to != address(0)) {... */\n      tag_349\n      jumpi\n      sub(shl(0xa0, 0x01), 0x01)\n        /* \"@openzeppelin/contracts/token/ERC721/ERC721.sol\":9487:9500  _balances[to] */\n      dup6\n      and\n      0x00\n      swap1\n      dup2\n      mstore\n        /* \"@openzeppelin/contracts/token/ERC721/ERC721.sol\":9487:9496  _balances */\n      0x03\n        /* \"@openzeppelin/contracts/token/ERC721/ERC721.sol\":9487:9500  _balances[to] */\n      0x20\n      mstore\n      0x40\n      swap1\n      keccak256\n        /* \"@openzeppelin/contracts/token/ERC721/ERC721.sol\":9487:9505  _balances[to] += 1 */\n      dup1\n      sload\n        /* \"@openzeppelin/contracts/token/ERC721/ERC721.sol\":9504:9505  1 */\n      0x01\n        /* \"@openzeppelin/contracts/token/ERC721/ERC721.sol\":9487:9505  _balances[to] += 1 */\n      add\n      swap1\n      sstore\n        /* \"@openzeppelin/contracts/token/ERC721/ERC721.sol\":9423:9530  if (to != address(0)) {... */\n    tag_349:\n        /* \"@openzeppelin/contracts/token/ERC721/ERC721.sol\":9540:9556  _owners[tokenId] */\n      0x00\n      dup5\n      dup2\n      mstore\n        /* \"@openzeppelin/contracts/token/ERC721/ERC721.sol\":9540:9547  _owners */\n      0x02\n        /* \"@openzeppelin/contracts/token/ERC721/ERC721.sol\":9540:9556  _owners[tokenId] */\n      0x20\n      mstore\n      0x40\n      dup1\n      dup3\n      keccak256\n        /* \"@openzeppelin/contracts/token/ERC721/ERC721.sol\":9540:9561  _owners[tokenId] = to */\n      dup1\n      sload\n      not(sub(shl(0xa0, 0x01), 0x01))\n      and\n      sub(shl(0xa0, 0x01), 0x01)\n      dup10\n      dup2\n      and\n      swap2\n      dup3\n      or\n      swap1\n      swap3\n      sstore\n        /* \"@openzeppelin/contracts/token/ERC721/ERC721.sol\":9577:9604  Transfer(from, to, tokenId) */\n      swap2\n      mload\n        /* \"@openzeppelin/contracts/token/ERC721/ERC721.sol\":9540:9556  _owners[tokenId] */\n      dup8\n      swap4\n        /* \"@openzeppelin/contracts/token/ERC721/ERC721.sol\":9577:9604  Transfer(from, to, tokenId) */\n      swap2\n      dup6\n      and\n      swap2\n      0xddf252ad1be2c89b69c2b068fc378daa952ba7f163c4a11628f55a4df523b3ef\n      swap2\n      log4\n        /* \"@openzeppelin/contracts/token/ERC721/ERC721.sol\":9622:9626  from */\n      swap5\n        /* \"@openzeppelin/contracts/token/ERC721/ERC721.sol\":8838:9633  function _update(address to, uint256 tokenId, address auth) internal virtual returns (address) {... */\n      swap4\n      pop\n      pop\n      pop\n      pop\n      jump\t// out\n        /* \"@openzeppelin/contracts/access/Ownable.sol\":1796:1958  function _checkOwner() internal view virtual {... */\n    tag_262:\n        /* \"@openzeppelin/contracts/access/Ownable.sol\":1710:1716  _owner */\n      and(sub(shl(0xa0, 0x01), 0x01), sload(0x06))\n        /* \"@openzeppelin/contracts/utils/Context.sol\":735:745  msg.sender */\n      caller\n        /* \"@openzeppelin/contracts/access/Ownable.sol\":1855:1878  owner() != _msgSender() */\n      eq\n        /* \"@openzeppelin/contracts/access/Ownable.sol\":1851:1952  if (owner() != _msgSender()) {... */\n      tag_273\n      jumpi\n        /* \"@openzeppelin/contracts/access/Ownable.sol\":1901:1941  OwnableUnauthorizedAccount(_msgSender()) */\n      mload(0x40)\n      shl(0xe0, 0x118cdaa7)\n      dup2\n      mstore\n        /* \"@openzeppelin/contracts/utils/Context.sol\":735:745  msg.sender */\n      caller\n        /* \"@openzeppelin/contracts/access/Ownable.sol\":1901:1941  OwnableUnauthorizedAccount(_msgSender()) */\n      0x04\n      dup3\n      add\n        /* \"#utility.yul\":1646:1697   */\n      mstore\n        /* \"#utility.yul\":1619:1637   */\n      0x24\n      add\n        /* \"@openzeppelin/contracts/access/Ownable.sol\":1901:1941  OwnableUnauthorizedAccount(_msgSender()) */\n      tag_201\n        /* \"#utility.yul\":1500:1703   */\n      jump\n        /* \"@openzeppelin/contracts/access/Ownable.sol\":2912:3099  function _transferOwnership(address newOwner) internal virtual {... */\n    tag_274:\n        /* \"@openzeppelin/contracts/access/Ownable.sol\":3004:3010  _owner */\n      0x06\n      dup1\n      sload\n      sub(shl(0xa0, 0x01), 0x01)\n        /* \"@openzeppelin/contracts/access/Ownable.sol\":3020:3037  _owner = newOwner */\n      dup4\n      dup2\n      and\n      not(sub(shl(0xa0, 0x01), 0x01))\n      dup4\n      and\n      dup2\n      or\n      swap1\n      swap4\n      sstore\n        /* \"@openzeppelin/contracts/access/Ownable.sol\":3052:3092  OwnershipTransferred(oldOwner, newOwner) */\n      mload(0x40)\n        /* \"@openzeppelin/contracts/access/Ownable.sol\":3004:3010  _owner */\n      swap2\n      and\n      swap2\n        /* \"@openzeppelin/contracts/access/Ownable.sol\":3020:3037  _owner = newOwner */\n      swap1\n        /* \"@openzeppelin/contracts/access/Ownable.sol\":3004:3010  _owner */\n      dup3\n      swap1\n        /* \"@openzeppelin/contracts/access/Ownable.sol\":3052:3092  OwnershipTransferred(oldOwner, newOwner) */\n      0x8be0079c531659141344cd1fd0a4f28419497f9722a3daafe3b4186f6b6457e0\n      swap1\n        /* \"@openzeppelin/contracts/access/Ownable.sol\":2985:3001  address oldOwner */\n      0x00\n      swap1\n        /* \"@openzeppelin/contracts/access/Ownable.sol\":3052:3092  OwnershipTransferred(oldOwner, newOwner) */\n      log3\n        /* \"@openzeppelin/contracts/access/Ownable.sol\":2975:3099  {... */\n      pop\n        /* \"@openzeppelin/contracts/access/Ownable.sol\":2912:3099  function _transferOwnership(address newOwner) internal virtual {... */\n      pop\n      jump\t// out\n        /* \"@openzeppelin/contracts/token/ERC721/ERC721.sol\":11462:11689  function _burn(uint256 tokenId) internal {... */\n    tag_281:\n        /* \"@openzeppelin/contracts/token/ERC721/ERC721.sol\":11513:11534  address previousOwner */\n      0x00\n        /* \"@openzeppelin/contracts/token/ERC721/ERC721.sol\":11537:11577  _update(address(0), tokenId, address(0)) */\n      tag_358\n        /* \"@openzeppelin/contracts/token/ERC721/ERC721.sol\":11553:11554  0 */\n      0x00\n        /* \"@openzeppelin/contracts/token/ERC721/ERC721.sol\":11557:11564  tokenId */\n      dup4\n        /* \"@openzeppelin/contracts/token/ERC721/ERC721.sol\":11574:11575  0 */\n      0x00\n        /* \"@openzeppelin/contracts/token/ERC721/ERC721.sol\":11537:11544  _update */\n      tag_229\n        /* \"@openzeppelin/contracts/token/ERC721/ERC721.sol\":11537:11577  _update(address(0), tokenId, address(0)) */\n      jump\t// in\n    tag_358:\n        /* \"@openzeppelin/contracts/token/ERC721/ERC721.sol\":11513:11577  address previousOwner = _update(address(0), tokenId, address(0)) */\n      swap1\n      pop\n      sub(shl(0xa0, 0x01), 0x01)\n        /* \"@openzeppelin/contracts/token/ERC721/ERC721.sol\":11591:11618  previousOwner == address(0) */\n      dup2\n      and\n        /* \"@openzeppelin/contracts/token/ERC721/ERC721.sol\":11587:11683  if (previousOwner == address(0)) {... */\n      tag_195\n      jumpi\n        /* \"@openzeppelin/contracts/token/ERC721/ERC721.sol\":11641:11672  ERC721NonexistentToken(tokenId) */\n      mload(0x40)\n      shl(0xe0, 0x7e273289)\n      dup2\n      mstore\n      0x04\n      dup2\n      add\n        /* \"#utility.yul\":923:948   */\n      dup4\n      swap1\n      mstore\n        /* \"#utility.yul\":896:914   */\n      0x24\n      add\n        /* \"@openzeppelin/contracts/token/ERC721/ERC721.sol\":11641:11672  ERC721NonexistentToken(tokenId) */\n      tag_201\n        /* \"#utility.yul\":777:954   */\n      jump\n        /* \"@openzeppelin/contracts/token/ERC721/ERC721.sol\":15591:15903  function _setApprovalForAll(address owner, address operator, bool approved) internal virtual {... */\n    tag_297:\n      sub(shl(0xa0, 0x01), 0x01)\n        /* \"@openzeppelin/contracts/token/ERC721/ERC721.sol\":15698:15720  operator == address(0) */\n      dup3\n      and\n        /* \"@openzeppelin/contracts/token/ERC721/ERC721.sol\":15694:15785  if (operator == address(0)) {... */\n      tag_362\n      jumpi\n        /* \"@openzeppelin/contracts/token/ERC721/ERC721.sol\":15743:15774  ERC721InvalidOperator(operator) */\n      mload(0x40)\n      shl(0xe3, 0x0b611743)\n      dup2\n      mstore\n      sub(shl(0xa0, 0x01), 0x01)\n        /* \"#utility.yul\":1664:1696   */\n      dup4\n      and\n        /* \"@openzeppelin/contracts/token/ERC721/ERC721.sol\":15743:15774  ERC721InvalidOperator(operator) */\n      0x04\n      dup3\n      add\n        /* \"#utility.yul\":1646:1697   */\n      mstore\n        /* \"#utility.yul\":1619:1637   */\n      0x24\n      add\n        /* \"@openzeppelin/contracts/token/ERC721/ERC721.sol\":15743:15774  ERC721InvalidOperator(operator) */\n      tag_201\n        /* \"#utility.yul\":1500:1703   */\n      jump\n        /* \"@openzeppelin/contracts/token/ERC721/ERC721.sol\":15694:15785  if (operator == address(0)) {... */\n    tag_362:\n      sub(shl(0xa0, 0x01), 0x01)\n        /* \"@openzeppelin/contracts/token/ERC721/ERC721.sol\":15794:15819  _operatorApprovals[owner] */\n      dup4\n      dup2\n      and\n      0x00\n      dup2\n      dup2\n      mstore\n        /* \"@openzeppelin/contracts/token/ERC721/ERC721.sol\":15794:15812  _operatorApprovals */\n      0x05\n        /* \"@openzeppelin/contracts/token/ERC721/ERC721.sol\":15794:15819  _operatorApprovals[owner] */\n      0x20\n      swap1\n      dup2\n      mstore\n      0x40\n      dup1\n      dup4\n      keccak256\n        /* \"@openzeppelin/contracts/token/ERC721/ERC721.sol\":15794:15829  _operatorApprovals[owner][operator] */\n      swap5\n      dup8\n      and\n      dup1\n      dup5\n      mstore\n      swap5\n      dup3\n      mstore\n      swap2\n      dup3\n      swap1\n      keccak256\n        /* \"@openzeppelin/contracts/token/ERC721/ERC721.sol\":15794:15840  _operatorApprovals[owner][operator] = approved */\n      dup1\n      sload\n      not(0xff)\n      and\n      dup7\n      iszero\n      iszero\n      swap1\n      dup2\n      or\n      swap1\n      swap2\n      sstore\n        /* \"@openzeppelin/contracts/token/ERC721/ERC721.sol\":15855:15896  ApprovalForAll(owner, operator, approved) */\n      swap2\n      mload\n        /* \"#utility.yul\":540:581   */\n      swap2\n      dup3\n      mstore\n        /* \"@openzeppelin/contracts/token/ERC721/ERC721.sol\":15855:15896  ApprovalForAll(owner, operator, approved) */\n      0x17307eab39ab6107e8899845ad3d59bd9653f200f220920489ca2b5937696c31\n      swap2\n        /* \"#utility.yul\":513:531   */\n      add\n        /* \"@openzeppelin/contracts/token/ERC721/ERC721.sol\":15855:15896  ApprovalForAll(owner, operator, approved) */\n      mload(0x40)\n      dup1\n      swap2\n      sub\n      swap1\n      log3\n        /* \"@openzeppelin/contracts/token/ERC721/ERC721.sol\":15591:15903  function _setApprovalForAll(address owner, address operator, bool approved) internal virtual {... */\n      pop\n      pop\n      pop\n      jump\t// out\n        /* \"@openzeppelin/contracts/token/ERC721/ERC721.sol\":16918:17700  function _checkOnERC721Received(address from, address to, uint256 tokenId, bytes memory data) private {... */\n    tag_307:\n      sub(shl(0xa0, 0x01), 0x01)\n        /* \"@openzeppelin/contracts/token/ERC721/ERC721.sol\":17034:17048  to.code.length */\n      dup4\n      and\n      extcodesize\n        /* \"@openzeppelin/contracts/token/ERC721/ERC721.sol\":17034:17052  to.code.length > 0 */\n      iszero\n        /* \"@openzeppelin/contracts/token/ERC721/ERC721.sol\":17030:17694  if (to.code.length > 0) {... */\n      tag_230\n      jumpi\n        /* \"@openzeppelin/contracts/token/ERC721/ERC721.sol\":17072:17143  IERC721Receiver(to).onERC721Received(_msgSender(), from, tokenId, data) */\n      mload(0x40)\n      shl(0xe1, 0x0a85bd01)\n      dup2\n      mstore\n      sub(shl(0xa0, 0x01), 0x01)\n        /* \"@openzeppelin/contracts/token/ERC721/ERC721.sol\":17072:17108  IERC721Receiver(to).onERC721Received */\n      dup5\n      and\n      swap1\n      0x150b7a02\n      swap1\n        /* \"@openzeppelin/contracts/token/ERC721/ERC721.sol\":17072:17143  IERC721Receiver(to).onERC721Received(_msgSender(), from, tokenId, data) */\n      tag_368\n      swap1\n        /* \"@openzeppelin/contracts/utils/Context.sol\":735:745  msg.sender */\n      caller\n      swap1\n        /* \"@openzeppelin/contracts/token/ERC721/ERC721.sol\":17123:17127  from */\n      dup9\n      swap1\n        /* \"@openzeppelin/contracts/token/ERC721/ERC721.sol\":17129:17136  tokenId */\n      dup8\n      swap1\n        /* \"@openzeppelin/contracts/token/ERC721/ERC721.sol\":17138:17142  data */\n      dup8\n      swap1\n        /* \"@openzeppelin/contracts/token/ERC721/ERC721.sol\":17072:17143  IERC721Receiver(to).onERC721Received(_msgSender(), from, tokenId, data) */\n      0x04\n      add\n      tag_369\n      jump\t// in\n    tag_368:\n      0x20\n      mload(0x40)\n      dup1\n      dup4\n      sub\n      dup2\n      0x00\n      dup8\n      gas\n      call\n      swap3\n      pop\n      pop\n      pop\n      dup1\n      iszero\n      tag_370\n      jumpi\n      pop\n      0x40\n      dup1\n      mload\n      0x1f\n      returndatasize\n      swap1\n      dup2\n      add\n      not(0x1f)\n      and\n      dup3\n      add\n      swap1\n      swap3\n      mstore\n      tag_371\n      swap2\n      dup2\n      add\n      swap1\n      tag_372\n      jump\t// in\n    tag_371:\n      0x01\n    tag_370:\n        /* \"@openzeppelin/contracts/token/ERC721/ERC721.sol\":17068:17684  try IERC721Receiver(to).onERC721Received(_msgSender(), from, tokenId, data) returns (bytes4 retval) {... */\n      tag_373\n      jumpi\n      returndatasize\n      dup1\n      dup1\n      iszero\n      tag_378\n      jumpi\n      mload(0x40)\n      swap2\n      pop\n      and(add(returndatasize, 0x3f), not(0x1f))\n      dup3\n      add\n      0x40\n      mstore\n      returndatasize\n      dup3\n      mstore\n      returndatasize\n      0x00\n      0x20\n      dup5\n      add\n      returndatacopy\n      jump(tag_377)\n    tag_378:\n      0x60\n      swap2\n      pop\n    tag_377:\n      pop\n        /* \"@openzeppelin/contracts/token/ERC721/ERC721.sol\":17381:17387  reason */\n      dup1\n        /* \"@openzeppelin/contracts/token/ERC721/ERC721.sol\":17381:17394  reason.length */\n      mload\n        /* \"@openzeppelin/contracts/token/ERC721/ERC721.sol\":17398:17399  0 */\n      0x00\n        /* \"@openzeppelin/contracts/token/ERC721/ERC721.sol\":17381:17399  reason.length == 0 */\n      sub\n        /* \"@openzeppelin/contracts/token/ERC721/ERC721.sol\":17377:17670  if (reason.length == 0) {... */\n      tag_379\n      jumpi\n        /* \"@openzeppelin/contracts/token/ERC721/ERC721.sol\":17430:17455  ERC721InvalidReceiver(to) */\n      mload(0x40)\n      shl(0xe1, 0x32505749)\n      dup2\n      mstore\n      sub(shl(0xa0, 0x01), 0x01)\n        /* \"#utility.yul\":1664:1696   */\n      dup6\n      and\n        /* \"@openzeppelin/contracts/token/ERC721/ERC721.sol\":17430:17455  ERC721InvalidReceiver(to) */\n      0x04\n      dup3\n      add\n        /* \"#utility.yul\":1646:1697   */\n      mstore\n        /* \"#utility.yul\":1619:1637   */\n      0x24\n      add\n        /* \"@openzeppelin/contracts/token/ERC721/ERC721.sol\":17430:17455  ERC721InvalidReceiver(to) */\n      tag_201\n        /* \"#utility.yul\":1500:1703   */\n      jump\n        /* \"@openzeppelin/contracts/token/ERC721/ERC721.sol\":17377:17670  if (reason.length == 0) {... */\n    tag_379:\n        /* \"@openzeppelin/contracts/token/ERC721/ERC721.sol\":17622:17628  reason */\n      dup1\n        /* \"@openzeppelin/contracts/token/ERC721/ERC721.sol\":17616:17629  mload(reason) */\n      mload\n        /* \"@openzeppelin/contracts/token/ERC721/ERC721.sol\":17607:17613  reason */\n      dup2\n        /* \"@openzeppelin/contracts/token/ERC721/ERC721.sol\":17603:17605  32 */\n      0x20\n        /* \"@openzeppelin/contracts/token/ERC721/ERC721.sol\":17599:17614  add(32, reason) */\n      add\n        /* \"@openzeppelin/contracts/token/ERC721/ERC721.sol\":17592:17630  revert(add(32, reason), mload(reason)) */\n      revert\n        /* \"@openzeppelin/contracts/token/ERC721/ERC721.sol\":17068:17684  try IERC721Receiver(to).onERC721Received(_msgSender(), from, tokenId, data) returns (bytes4 retval) {... */\n    tag_373:\n      not(sub(shl(0xe0, 0x01), 0x01))\n        /* \"@openzeppelin/contracts/token/ERC721/ERC721.sol\":17190:17241  retval != IERC721Receiver.onERC721Received.selector */\n      dup2\n      and\n      shl(0xe1, 0x0a85bd01)\n      eq\n        /* \"@openzeppelin/contracts/token/ERC721/ERC721.sol\":17186:17316  if (retval != IERC721Receiver.onERC721Received.selector) {... */\n      tag_240\n      jumpi\n        /* \"@openzeppelin/contracts/token/ERC721/ERC721.sol\":17272:17297  ERC721InvalidReceiver(to) */\n      mload(0x40)\n      shl(0xe1, 0x32505749)\n      dup2\n      mstore\n      sub(shl(0xa0, 0x01), 0x01)\n        /* \"#utility.yul\":1664:1696   */\n      dup6\n      and\n        /* \"@openzeppelin/contracts/token/ERC721/ERC721.sol\":17272:17297  ERC721InvalidReceiver(to) */\n      0x04\n      dup3\n      add\n        /* \"#utility.yul\":1646:1697   */\n      mstore\n        /* \"#utility.yul\":1619:1637   */\n      0x24\n      add\n        /* \"@openzeppelin/contracts/token/ERC721/ERC721.sol\":17272:17297  ERC721InvalidReceiver(to) */\n      tag_201\n        /* \"#utility.yul\":1500:1703   */\n      jump\n        /* \"crop.sol\":3629:3727  function _baseURI() internal view override returns (string memory) {... */\n    tag_311:\n        /* \"crop.sol\":3681:3694  string memory */\n      0x60\n        /* \"crop.sol\":3713:3720  baseUri */\n      0x07\n        /* \"crop.sol\":3706:3720  return baseUri */\n      dup1\n      sload\n      tag_183\n      swap1\n      tag_184\n      jump\t// in\n        /* \"@openzeppelin/contracts/utils/Strings.sol\":637:1335  function toString(uint256 value) internal pure returns (string memory) {... */\n    tag_315:\n        /* \"@openzeppelin/contracts/utils/Strings.sol\":693:706  string memory */\n      0x60\n        /* \"@openzeppelin/contracts/utils/Strings.sol\":742:756  uint256 length */\n      0x00\n        /* \"@openzeppelin/contracts/utils/Strings.sol\":759:776  Math.log10(value) */\n      tag_392\n        /* \"@openzeppelin/contracts/utils/Strings.sol\":770:775  value */\n      dup4\n        /* \"@openzeppelin/contracts/utils/Strings.sol\":759:769  Math.log10 */\n      tag_393\n        /* \"@openzeppelin/contracts/utils/Strings.sol\":759:776  Math.log10(value) */\n      jump\t// in\n    tag_392:\n        /* \"@openzeppelin/contracts/utils/Strings.sol\":779:780  1 */\n      0x01\n        /* \"@openzeppelin/contracts/utils/Strings.sol\":759:780  Math.log10(value) + 1 */\n      add\n        /* \"@openzeppelin/contracts/utils/Strings.sol\":742:780  uint256 length = Math.log10(value) + 1 */\n      swap1\n      pop\n        /* \"@openzeppelin/contracts/utils/Strings.sol\":794:814  string memory buffer */\n      0x00\n        /* \"@openzeppelin/contracts/utils/Strings.sol\":828:834  length */\n      dup2\n        /* \"@openzeppelin/contracts/utils/Strings.sol\":817:835  new string(length) */\n      0xffffffffffffffff\n      dup2\n      gt\n      iszero\n      tag_395\n      jumpi\n      tag_395\n      tag_396\n      jump\t// in\n    tag_395:\n      mload(0x40)\n      swap1\n      dup1\n      dup3\n      mstore\n      dup1\n      0x1f\n      add\n      not(0x1f)\n      and\n      0x20\n      add\n      dup3\n      add\n      0x40\n      mstore\n      dup1\n      iszero\n      tag_397\n      jumpi\n      0x20\n      dup3\n      add\n      dup2\n      dup1\n      calldatasize\n      dup4\n      calldatacopy\n      add\n      swap1\n      pop\n    tag_397:\n      pop\n        /* \"@openzeppelin/contracts/utils/Strings.sol\":794:835  string memory buffer = new string(length) */\n      swap1\n      pop\n        /* \"@openzeppelin/contracts/utils/Strings.sol\":955:983  add(buffer, add(32, length)) */\n      dup2\n      dup2\n      add\n        /* \"@openzeppelin/contracts/utils/Strings.sol\":971:973  32 */\n      0x20\n        /* \"@openzeppelin/contracts/utils/Strings.sol\":955:983  add(buffer, add(32, length)) */\n      add\n        /* \"@openzeppelin/contracts/utils/Strings.sol\":1010:1292  while (true) {... */\n    tag_398:\n      not(0x00)\n        /* \"@openzeppelin/contracts/utils/Strings.sol\":1041:1046  ptr-- */\n      add\n      shl(0x81, 0x181899199a1a9b1b9c1cb0b131b232b3)\n        /* \"@openzeppelin/contracts/utils/Strings.sol\":1175:1177  10 */\n      0x0a\n        /* \"@openzeppelin/contracts/utils/Strings.sol\":1164:1178  mod(value, 10) */\n      dup7\n      mod\n        /* \"@openzeppelin/contracts/utils/Strings.sol\":1159:1191  byte(mod(value, 10), HEX_DIGITS) */\n      byte\n        /* \"@openzeppelin/contracts/utils/Strings.sol\":1041:1046  ptr-- */\n      dup2\n        /* \"@openzeppelin/contracts/utils/Strings.sol\":1146:1192  mstore8(ptr, byte(mod(value, 10), HEX_DIGITS)) */\n      mstore8\n        /* \"@openzeppelin/contracts/utils/Strings.sol\":1236:1238  10 */\n      0x0a\n        /* \"@openzeppelin/contracts/utils/Strings.sol\":1227:1238  value /= 10 */\n      dup6\n      div\n      swap5\n      pop\n        /* \"@openzeppelin/contracts/utils/Strings.sol\":1256:1277  if (value == 0) break */\n      dup5\n        /* \"@openzeppelin/contracts/utils/Strings.sol\":1010:1292  while (true) {... */\n      tag_398\n        /* \"@openzeppelin/contracts/utils/Strings.sol\":1256:1277  if (value == 0) break */\n      jumpi\n      pop\n        /* \"@openzeppelin/contracts/utils/Strings.sol\":1312:1318  buffer */\n      swap4\n        /* \"@openzeppelin/contracts/utils/Strings.sol\":637:1335  function toString(uint256 value) internal pure returns (string memory) {... */\n      swap3\n      pop\n      pop\n      pop\n      jump\t// out\n        /* \"@openzeppelin/contracts/token/ERC721/ERC721.sol\":14720:15382  function _approve(address to, uint256 tokenId, address auth, bool emitEvent) internal virtual {... */\n    tag_335:\n        /* \"@openzeppelin/contracts/token/ERC721/ERC721.sol\":14880:14889  emitEvent */\n      dup1\n        /* \"@openzeppelin/contracts/token/ERC721/ERC721.sol\":14880:14911  emitEvent || auth != address(0) */\n      dup1\n      tag_406\n      jumpi\n      pop\n      sub(shl(0xa0, 0x01), 0x01)\n        /* \"@openzeppelin/contracts/token/ERC721/ERC721.sol\":14893:14911  auth != address(0) */\n      dup3\n      and\n      iszero\n      iszero\n        /* \"@openzeppelin/contracts/token/ERC721/ERC721.sol\":14880:14911  emitEvent || auth != address(0) */\n    tag_406:\n        /* \"@openzeppelin/contracts/token/ERC721/ERC721.sol\":14876:15336  if (emitEvent || auth != address(0)) {... */\n      iszero\n      tag_407\n      jumpi\n        /* \"@openzeppelin/contracts/token/ERC721/ERC721.sol\":14927:14940  address owner */\n      0x00\n        /* \"@openzeppelin/contracts/token/ERC721/ERC721.sol\":14943:14965  _requireOwned(tokenId) */\n      tag_408\n        /* \"@openzeppelin/contracts/token/ERC721/ERC721.sol\":14957:14964  tokenId */\n      dup5\n        /* \"@openzeppelin/contracts/token/ERC721/ERC721.sol\":14943:14956  _requireOwned */\n      tag_191\n        /* \"@openzeppelin/contracts/token/ERC721/ERC721.sol\":14943:14965  _requireOwned(tokenId) */\n      jump\t// in\n    tag_408:\n        /* \"@openzeppelin/contracts/token/ERC721/ERC721.sol\":14927:14965  address owner = _requireOwned(tokenId) */\n      swap1\n      pop\n      sub(shl(0xa0, 0x01), 0x01)\n        /* \"@openzeppelin/contracts/token/ERC721/ERC721.sol\":15093:15111  auth != address(0) */\n      dup4\n      and\n      iszero\n      dup1\n      iszero\n      swap1\n        /* \"@openzeppelin/contracts/token/ERC721/ERC721.sol\":15093:15128  auth != address(0) && owner != auth */\n      tag_409\n      jumpi\n      pop\n        /* \"@openzeppelin/contracts/token/ERC721/ERC721.sol\":15124:15128  auth */\n      dup3\n      sub(shl(0xa0, 0x01), 0x01)\n        /* \"@openzeppelin/contracts/token/ERC721/ERC721.sol\":15115:15128  owner != auth */\n      and\n        /* \"@openzeppelin/contracts/token/ERC721/ERC721.sol\":15115:15120  owner */\n      dup2\n      sub(shl(0xa0, 0x01), 0x01)\n        /* \"@openzeppelin/contracts/token/ERC721/ERC721.sol\":15115:15128  owner != auth */\n      and\n      eq\n      iszero\n        /* \"@openzeppelin/contracts/token/ERC721/ERC721.sol\":15093:15128  auth != address(0) && owner != auth */\n    tag_409:\n        /* \"@openzeppelin/contracts/token/ERC721/ERC721.sol\":15093:15162  auth != address(0) && owner != auth && !isApprovedForAll(owner, auth) */\n      dup1\n      iszero\n      tag_410\n      jumpi\n      pop\n        /* \"@openzeppelin/contracts/token/ERC721/ERC721.sol\":15133:15162  isApprovedForAll(owner, auth) */\n      tag_411\n        /* \"@openzeppelin/contracts/token/ERC721/ERC721.sol\":15150:15155  owner */\n      dup2\n        /* \"@openzeppelin/contracts/token/ERC721/ERC721.sol\":15157:15161  auth */\n      dup5\n        /* \"@openzeppelin/contracts/token/ERC721/ERC721.sol\":15133:15149  isApprovedForAll */\n      tag_167\n        /* \"@openzeppelin/contracts/token/ERC721/ERC721.sol\":15133:15162  isApprovedForAll(owner, auth) */\n      jump\t// in\n    tag_411:\n        /* \"@openzeppelin/contracts/token/ERC721/ERC721.sol\":15132:15162  !isApprovedForAll(owner, auth) */\n      iszero\n        /* \"@openzeppelin/contracts/token/ERC721/ERC721.sol\":15093:15162  auth != address(0) && owner != auth && !isApprovedForAll(owner, auth) */\n    tag_410:\n        /* \"@openzeppelin/contracts/token/ERC721/ERC721.sol\":15089:15231  if (auth != address(0) && owner != auth && !isApprovedForAll(owner, auth)) {... */\n      iszero\n      tag_412\n      jumpi\n        /* \"@openzeppelin/contracts/token/ERC721/ERC721.sol\":15189:15216  ERC721InvalidApprover(auth) */\n      mload(0x40)\n      shl(0xe0, 0xa9fbf51f)\n      dup2\n      mstore\n      sub(shl(0xa0, 0x01), 0x01)\n        /* \"#utility.yul\":1664:1696   */\n      dup5\n      and\n        /* \"@openzeppelin/contracts/token/ERC721/ERC721.sol\":15189:15216  ERC721InvalidApprover(auth) */\n      0x04\n      dup3\n      add\n        /* \"#utility.yul\":1646:1697   */\n      mstore\n        /* \"#utility.yul\":1619:1637   */\n      0x24\n      add\n        /* \"@openzeppelin/contracts/token/ERC721/ERC721.sol\":15189:15216  ERC721InvalidApprover(auth) */\n      tag_201\n        /* \"#utility.yul\":1500:1703   */\n      jump\n        /* \"@openzeppelin/contracts/token/ERC721/ERC721.sol\":15089:15231  if (auth != address(0) && owner != auth && !isApprovedForAll(owner, auth)) {... */\n    tag_412:\n        /* \"@openzeppelin/contracts/token/ERC721/ERC721.sol\":15249:15258  emitEvent */\n      dup2\n        /* \"@openzeppelin/contracts/token/ERC721/ERC721.sol\":15245:15326  if (emitEvent) {... */\n      iszero\n      tag_414\n      jumpi\n        /* \"@openzeppelin/contracts/token/ERC721/ERC721.sol\":15303:15310  tokenId */\n      dup4\n        /* \"@openzeppelin/contracts/token/ERC721/ERC721.sol\":15299:15301  to */\n      dup6\n      sub(shl(0xa0, 0x01), 0x01)\n        /* \"@openzeppelin/contracts/token/ERC721/ERC721.sol\":15283:15311  Approval(owner, to, tokenId) */\n      and\n        /* \"@openzeppelin/contracts/token/ERC721/ERC721.sol\":15292:15297  owner */\n      dup3\n      sub(shl(0xa0, 0x01), 0x01)\n        /* \"@openzeppelin/contracts/token/ERC721/ERC721.sol\":15283:15311  Approval(owner, to, tokenId) */\n      and\n      0x8c5be1e5ebec7d5bd14f71427d1e84f3dd0314c0f7b2291e5b200ac8c7c3b925\n      mload(0x40)\n      mload(0x40)\n      dup1\n      swap2\n      sub\n      swap1\n      log4\n        /* \"@openzeppelin/contracts/token/ERC721/ERC721.sol\":15245:15326  if (emitEvent) {... */\n    tag_414:\n        /* \"@openzeppelin/contracts/token/ERC721/ERC721.sol\":14913:15336  {... */\n      pop\n        /* \"@openzeppelin/contracts/token/ERC721/ERC721.sol\":14876:15336  if (emitEvent || auth != address(0)) {... */\n    tag_407:\n      pop\n      pop\n        /* \"@openzeppelin/contracts/token/ERC721/ERC721.sol\":15346:15370  _tokenApprovals[tokenId] */\n      0x00\n      swap1\n      dup2\n      mstore\n        /* \"@openzeppelin/contracts/token/ERC721/ERC721.sol\":15346:15361  _tokenApprovals */\n      0x04\n        /* \"@openzeppelin/contracts/token/ERC721/ERC721.sol\":15346:15370  _tokenApprovals[tokenId] */\n      0x20\n      mstore\n      0x40\n      swap1\n      keccak256\n        /* \"@openzeppelin/contracts/token/ERC721/ERC721.sol\":15346:15375  _tokenApprovals[tokenId] = to */\n      dup1\n      sload\n      not(sub(shl(0xa0, 0x01), 0x01))\n      and\n      sub(shl(0xa0, 0x01), 0x01)\n      swap3\n      swap1\n      swap3\n      and\n      swap2\n      swap1\n      swap2\n      or\n      swap1\n      sstore\n        /* \"@openzeppelin/contracts/token/ERC721/ERC721.sol\":14720:15382  function _approve(address to, uint256 tokenId, address auth, bool emitEvent) internal virtual {... */\n      jump\t// out\n        /* \"@openzeppelin/contracts/token/ERC721/ERC721.sol\":7082:7450  function _checkAuthorized(address owner, address spender, uint256 tokenId) internal view virtual {... */\n    tag_346:\n        /* \"@openzeppelin/contracts/token/ERC721/ERC721.sol\":7194:7232  _isAuthorized(owner, spender, tokenId) */\n      tag_416\n        /* \"@openzeppelin/contracts/token/ERC721/ERC721.sol\":7208:7213  owner */\n      dup4\n        /* \"@openzeppelin/contracts/token/ERC721/ERC721.sol\":7215:7222  spender */\n      dup4\n        /* \"@openzeppelin/contracts/token/ERC721/ERC721.sol\":7224:7231  tokenId */\n      dup4\n        /* \"@openzeppelin/contracts/token/ERC721/ERC721.sol\":7194:7207  _isAuthorized */\n      tag_417\n        /* \"@openzeppelin/contracts/token/ERC721/ERC721.sol\":7194:7232  _isAuthorized(owner, spender, tokenId) */\n      jump\t// in\n    tag_416:\n        /* \"@openzeppelin/contracts/token/ERC721/ERC721.sol\":7189:7444  if (!_isAuthorized(owner, spender, tokenId)) {... */\n      tag_252\n      jumpi\n      sub(shl(0xa0, 0x01), 0x01)\n        /* \"@openzeppelin/contracts/token/ERC721/ERC721.sol\":7252:7271  owner == address(0) */\n      dup4\n      and\n        /* \"@openzeppelin/contracts/token/ERC721/ERC721.sol\":7248:7434  if (owner == address(0)) {... */\n      tag_419\n      jumpi\n        /* \"@openzeppelin/contracts/token/ERC721/ERC721.sol\":7298:7329  ERC721NonexistentToken(tokenId) */\n      mload(0x40)\n      shl(0xe0, 0x7e273289)\n      dup2\n      mstore\n      0x04\n      dup2\n      add\n        /* \"#utility.yul\":923:948   */\n      dup3\n      swap1\n      mstore\n        /* \"#utility.yul\":896:914   */\n      0x24\n      add\n        /* \"@openzeppelin/contracts/token/ERC721/ERC721.sol\":7298:7329  ERC721NonexistentToken(tokenId) */\n      tag_201\n        /* \"#utility.yul\":777:954   */\n      jump\n        /* \"@openzeppelin/contracts/token/ERC721/ERC721.sol\":7248:7434  if (owner == address(0)) {... */\n    tag_419:\n        /* \"@openzeppelin/contracts/token/ERC721/ERC721.sol\":7375:7419  ERC721InsufficientApproval(spender, tokenId) */\n      mload(0x40)\n      shl(0xe0, 0x177e802f)\n      dup2\n      mstore\n      sub(shl(0xa0, 0x01), 0x01)\n        /* \"#utility.yul\":13888:13920   */\n      dup4\n      and\n        /* \"@openzeppelin/contracts/token/ERC721/ERC721.sol\":7375:7419  ERC721InsufficientApproval(spender, tokenId) */\n      0x04\n      dup3\n      add\n        /* \"#utility.yul\":13870:13921   */\n      mstore\n        /* \"#utility.yul\":13937:13955   */\n      0x24\n      dup2\n      add\n        /* \"#utility.yul\":13930:13964   */\n      dup3\n      swap1\n      mstore\n        /* \"#utility.yul\":13843:13861   */\n      0x44\n      add\n        /* \"@openzeppelin/contracts/token/ERC721/ERC721.sol\":7375:7419  ERC721InsufficientApproval(spender, tokenId) */\n      tag_201\n        /* \"#utility.yul\":13696:13970   */\n      jump\n        /* \"@openzeppelin/contracts/utils/math/Math.sol\":12214:13130  function log10(uint256 value) internal pure returns (uint256) {... */\n    tag_393:\n        /* \"@openzeppelin/contracts/utils/math/Math.sol\":12267:12274  uint256 */\n      0x00\n      dup1\n      shl(0x40, 0x184f03e93ff9f4daa797ed6e38ed64bf6a1f01)\n        /* \"@openzeppelin/contracts/utils/math/Math.sol\":12342:12359  value >= 10 ** 64 */\n      dup4\n      lt\n        /* \"@openzeppelin/contracts/utils/math/Math.sol\":12338:12441  if (value >= 10 ** 64) {... */\n      tag_425\n      jumpi\n      shl(0x40, 0x184f03e93ff9f4daa797ed6e38ed64bf6a1f01)\n        /* \"@openzeppelin/contracts/utils/math/Math.sol\":12379:12396  value /= 10 ** 64 */\n      dup4\n      div\n      swap3\n      pop\n        /* \"@openzeppelin/contracts/utils/math/Math.sol\":12424:12426  64 */\n      0x40\n        /* \"@openzeppelin/contracts/utils/math/Math.sol\":12414:12426  result += 64 */\n      add\n        /* \"@openzeppelin/contracts/utils/math/Math.sol\":12338:12441  if (value >= 10 ** 64) {... */\n    tag_425:\n        /* \"@openzeppelin/contracts/utils/math/Math.sol\":12467:12475  10 ** 32 */\n      0x04ee2d6d415b85acef8100000000\n        /* \"@openzeppelin/contracts/utils/math/Math.sol\":12458:12463  value */\n      dup4\n        /* \"@openzeppelin/contracts/utils/math/Math.sol\":12458:12475  value >= 10 ** 32 */\n      lt\n        /* \"@openzeppelin/contracts/utils/math/Math.sol\":12454:12557  if (value >= 10 ** 32) {... */\n      tag_428\n      jumpi\n        /* \"@openzeppelin/contracts/utils/math/Math.sol\":12504:12512  10 ** 32 */\n      0x04ee2d6d415b85acef8100000000\n        /* \"@openzeppelin/contracts/utils/math/Math.sol\":12495:12512  value /= 10 ** 32 */\n      dup4\n      div\n      swap3\n      pop\n        /* \"@openzeppelin/contracts/utils/math/Math.sol\":12540:12542  32 */\n      0x20\n        /* \"@openzeppelin/contracts/utils/math/Math.sol\":12530:12542  result += 32 */\n      add\n        /* \"@openzeppelin/contracts/utils/math/Math.sol\":12454:12557  if (value >= 10 ** 32) {... */\n    tag_428:\n        /* \"@openzeppelin/contracts/utils/math/Math.sol\":12583:12591  10 ** 16 */\n      0x2386f26fc10000\n        /* \"@openzeppelin/contracts/utils/math/Math.sol\":12574:12579  value */\n      dup4\n        /* \"@openzeppelin/contracts/utils/math/Math.sol\":12574:12591  value >= 10 ** 16 */\n      lt\n        /* \"@openzeppelin/contracts/utils/math/Math.sol\":12570:12673  if (value >= 10 ** 16) {... */\n      tag_431\n      jumpi\n        /* \"@openzeppelin/contracts/utils/math/Math.sol\":12620:12628  10 ** 16 */\n      0x2386f26fc10000\n        /* \"@openzeppelin/contracts/utils/math/Math.sol\":12611:12628  value /= 10 ** 16 */\n      dup4\n      div\n      swap3\n      pop\n        /* \"@openzeppelin/contracts/utils/math/Math.sol\":12656:12658  16 */\n      0x10\n        /* \"@openzeppelin/contracts/utils/math/Math.sol\":12646:12658  result += 16 */\n      add\n        /* \"@openzeppelin/contracts/utils/math/Math.sol\":12570:12673  if (value >= 10 ** 16) {... */\n    tag_431:\n        /* \"@openzeppelin/contracts/utils/math/Math.sol\":12699:12706  10 ** 8 */\n      0x05f5e100\n        /* \"@openzeppelin/contracts/utils/math/Math.sol\":12690:12695  value */\n      dup4\n        /* \"@openzeppelin/contracts/utils/math/Math.sol\":12690:12706  value >= 10 ** 8 */\n      lt\n        /* \"@openzeppelin/contracts/utils/math/Math.sol\":12686:12786  if (value >= 10 ** 8) {... */\n      tag_434\n      jumpi\n        /* \"@openzeppelin/contracts/utils/math/Math.sol\":12735:12742  10 ** 8 */\n      0x05f5e100\n        /* \"@openzeppelin/contracts/utils/math/Math.sol\":12726:12742  value /= 10 ** 8 */\n      dup4\n      div\n      swap3\n      pop\n        /* \"@openzeppelin/contracts/utils/math/Math.sol\":12770:12771  8 */\n      0x08\n        /* \"@openzeppelin/contracts/utils/math/Math.sol\":12760:12771  result += 8 */\n      add\n        /* \"@openzeppelin/contracts/utils/math/Math.sol\":12686:12786  if (value >= 10 ** 8) {... */\n    tag_434:\n        /* \"@openzeppelin/contracts/utils/math/Math.sol\":12812:12819  10 ** 4 */\n      0x2710\n        /* \"@openzeppelin/contracts/utils/math/Math.sol\":12803:12808  value */\n      dup4\n        /* \"@openzeppelin/contracts/utils/math/Math.sol\":12803:12819  value >= 10 ** 4 */\n      lt\n        /* \"@openzeppelin/contracts/utils/math/Math.sol\":12799:12899  if (value >= 10 ** 4) {... */\n      tag_437\n      jumpi\n        /* \"@openzeppelin/contracts/utils/math/Math.sol\":12848:12855  10 ** 4 */\n      0x2710\n        /* \"@openzeppelin/contracts/utils/math/Math.sol\":12839:12855  value /= 10 ** 4 */\n      dup4\n      div\n      swap3\n      pop\n        /* \"@openzeppelin/contracts/utils/math/Math.sol\":12883:12884  4 */\n      0x04\n        /* \"@openzeppelin/contracts/utils/math/Math.sol\":12873:12884  result += 4 */\n      add\n        /* \"@openzeppelin/contracts/utils/math/Math.sol\":12799:12899  if (value >= 10 ** 4) {... */\n    tag_437:\n        /* \"@openzeppelin/contracts/utils/math/Math.sol\":12925:12932  10 ** 2 */\n      0x64\n        /* \"@openzeppelin/contracts/utils/math/Math.sol\":12916:12921  value */\n      dup4\n        /* \"@openzeppelin/contracts/utils/math/Math.sol\":12916:12932  value >= 10 ** 2 */\n      lt\n        /* \"@openzeppelin/contracts/utils/math/Math.sol\":12912:13012  if (value >= 10 ** 2) {... */\n      tag_440\n      jumpi\n        /* \"@openzeppelin/contracts/utils/math/Math.sol\":12961:12968  10 ** 2 */\n      0x64\n        /* \"@openzeppelin/contracts/utils/math/Math.sol\":12952:12968  value /= 10 ** 2 */\n      dup4\n      div\n      swap3\n      pop\n        /* \"@openzeppelin/contracts/utils/math/Math.sol\":12996:12997  2 */\n      0x02\n        /* \"@openzeppelin/contracts/utils/math/Math.sol\":12986:12997  result += 2 */\n      add\n        /* \"@openzeppelin/contracts/utils/math/Math.sol\":12912:13012  if (value >= 10 ** 2) {... */\n    tag_440:\n        /* \"@openzeppelin/contracts/utils/math/Math.sol\":13038:13045  10 ** 1 */\n      0x0a\n        /* \"@openzeppelin/contracts/utils/math/Math.sol\":13029:13034  value */\n      dup4\n        /* \"@openzeppelin/contracts/utils/math/Math.sol\":13029:13045  value >= 10 ** 1 */\n      lt\n        /* \"@openzeppelin/contracts/utils/math/Math.sol\":13025:13091  if (value >= 10 ** 1) {... */\n      tag_180\n      jumpi\n        /* \"@openzeppelin/contracts/utils/math/Math.sol\":13075:13076  1 */\n      0x01\n        /* \"@openzeppelin/contracts/utils/math/Math.sol\":13065:13076  result += 1 */\n      add\n        /* \"@openzeppelin/contracts/utils/math/Math.sol\":13117:13123  result */\n      swap3\n        /* \"@openzeppelin/contracts/utils/math/Math.sol\":12214:13130  function log10(uint256 value) internal pure returns (uint256) {... */\n      swap2\n      pop\n      pop\n      jump\t// out\n        /* \"@openzeppelin/contracts/token/ERC721/ERC721.sol\":6376:6648  function _isAuthorized(address owner, address spender, uint256 tokenId) internal view virtual returns (bool) {... */\n    tag_417:\n        /* \"@openzeppelin/contracts/token/ERC721/ERC721.sol\":6479:6483  bool */\n      0x00\n      sub(shl(0xa0, 0x01), 0x01)\n        /* \"@openzeppelin/contracts/token/ERC721/ERC721.sol\":6514:6535  spender != address(0) */\n      dup4\n      and\n      iszero\n      dup1\n      iszero\n      swap1\n        /* \"@openzeppelin/contracts/token/ERC721/ERC721.sol\":6514:6641  spender != address(0) &&... */\n      tag_448\n      jumpi\n      pop\n        /* \"@openzeppelin/contracts/token/ERC721/ERC721.sol\":6561:6568  spender */\n      dup3\n      sub(shl(0xa0, 0x01), 0x01)\n        /* \"@openzeppelin/contracts/token/ERC721/ERC721.sol\":6552:6568  owner == spender */\n      and\n        /* \"@openzeppelin/contracts/token/ERC721/ERC721.sol\":6552:6557  owner */\n      dup5\n      sub(shl(0xa0, 0x01), 0x01)\n        /* \"@openzeppelin/contracts/token/ERC721/ERC721.sol\":6552:6568  owner == spender */\n      and\n      eq\n        /* \"@openzeppelin/contracts/token/ERC721/ERC721.sol\":6552:6604  owner == spender || isApprovedForAll(owner, spender) */\n      dup1\n      tag_447\n      jumpi\n      pop\n        /* \"@openzeppelin/contracts/token/ERC721/ERC721.sol\":6572:6604  isApprovedForAll(owner, spender) */\n      tag_447\n        /* \"@openzeppelin/contracts/token/ERC721/ERC721.sol\":6589:6594  owner */\n      dup5\n        /* \"@openzeppelin/contracts/token/ERC721/ERC721.sol\":6596:6603  spender */\n      dup5\n        /* \"@openzeppelin/contracts/token/ERC721/ERC721.sol\":6572:6588  isApprovedForAll */\n      tag_167\n        /* \"@openzeppelin/contracts/token/ERC721/ERC721.sol\":6572:6604  isApprovedForAll(owner, spender) */\n      jump\t// in\n    tag_447:\n        /* \"@openzeppelin/contracts/token/ERC721/ERC721.sol\":6552:6640  owner == spender || isApprovedForAll(owner, spender) || _getApproved(tokenId) == spender */\n      dup1\n      tag_448\n      jumpi\n      pop\n        /* \"@openzeppelin/contracts/token/ERC721/ERC721.sol\":6008:6015  address */\n      0x00\n        /* \"@openzeppelin/contracts/token/ERC721/ERC721.sol\":6034:6058  _tokenApprovals[tokenId] */\n      dup3\n      dup2\n      mstore\n        /* \"@openzeppelin/contracts/token/ERC721/ERC721.sol\":6034:6049  _tokenApprovals */\n      0x04\n        /* \"@openzeppelin/contracts/token/ERC721/ERC721.sol\":6034:6058  _tokenApprovals[tokenId] */\n      0x20\n      mstore\n      0x40\n      swap1\n      keccak256\n      sload\n      sub(shl(0xa0, 0x01), 0x01)\n        /* \"@openzeppelin/contracts/token/ERC721/ERC721.sol\":6608:6640  _getApproved(tokenId) == spender */\n      dup5\n      dup2\n      and\n        /* \"@openzeppelin/contracts/token/ERC721/ERC721.sol\":6034:6058  _tokenApprovals[tokenId] */\n      swap2\n      and\n        /* \"@openzeppelin/contracts/token/ERC721/ERC721.sol\":6608:6640  _getApproved(tokenId) == spender */\n      eq\n        /* \"@openzeppelin/contracts/token/ERC721/ERC721.sol\":6552:6640  owner == spender || isApprovedForAll(owner, spender) || _getApproved(tokenId) == spender */\n    tag_448:\n        /* \"@openzeppelin/contracts/token/ERC721/ERC721.sol\":6495:6641  return... */\n      swap5\n        /* \"@openzeppelin/contracts/token/ERC721/ERC721.sol\":6376:6648  function _isAuthorized(address owner, address spender, uint256 tokenId) internal view virtual returns (bool) {... */\n      swap4\n      pop\n      pop\n      pop\n      pop\n      jump\t// out\n        /* \"#utility.yul\":14:145   */\n    tag_450:\n      not(sub(shl(0xe0, 0x01), 0x01))\n        /* \"#utility.yul\":88:120   */\n      dup2\n      and\n        /* \"#utility.yul\":78:121   */\n      dup2\n      eq\n        /* \"#utility.yul\":68:139   */\n      tag_324\n      jumpi\n        /* \"#utility.yul\":135:136   */\n      0x00\n        /* \"#utility.yul\":132:133   */\n      dup1\n        /* \"#utility.yul\":125:137   */\n      revert\n        /* \"#utility.yul\":150:395   */\n    tag_41:\n        /* \"#utility.yul\":208:214   */\n      0x00\n        /* \"#utility.yul\":261:263   */\n      0x20\n        /* \"#utility.yul\":249:258   */\n      dup3\n        /* \"#utility.yul\":240:247   */\n      dup5\n        /* \"#utility.yul\":236:259   */\n      sub\n        /* \"#utility.yul\":232:264   */\n      slt\n        /* \"#utility.yul\":229:281   */\n      iszero\n      tag_462\n      jumpi\n        /* \"#utility.yul\":277:278   */\n      0x00\n        /* \"#utility.yul\":274:275   */\n      dup1\n        /* \"#utility.yul\":267:279   */\n      revert\n        /* \"#utility.yul\":229:281   */\n    tag_462:\n        /* \"#utility.yul\":316:325   */\n      dup2\n        /* \"#utility.yul\":303:326   */\n      calldataload\n        /* \"#utility.yul\":335:365   */\n      tag_313\n        /* \"#utility.yul\":359:364   */\n      dup2\n        /* \"#utility.yul\":335:365   */\n      tag_450\n      jump\t// in\n        /* \"#utility.yul\":592:772   */\n    tag_48:\n        /* \"#utility.yul\":651:657   */\n      0x00\n        /* \"#utility.yul\":704:706   */\n      0x20\n        /* \"#utility.yul\":692:701   */\n      dup3\n        /* \"#utility.yul\":683:690   */\n      dup5\n        /* \"#utility.yul\":679:702   */\n      sub\n        /* \"#utility.yul\":675:707   */\n      slt\n        /* \"#utility.yul\":672:724   */\n      iszero\n      tag_466\n      jumpi\n        /* \"#utility.yul\":720:721   */\n      0x00\n        /* \"#utility.yul\":717:718   */\n      dup1\n        /* \"#utility.yul\":710:722   */\n      revert\n        /* \"#utility.yul\":672:724   */\n    tag_466:\n      pop\n        /* \"#utility.yul\":743:766   */\n      calldataload\n      swap2\n        /* \"#utility.yul\":592:772   */\n      swap1\n      pop\n      jump\t// out\n        /* \"#utility.yul\":959:1259   */\n    tag_451:\n        /* \"#utility.yul\":1012:1015   */\n      0x00\n        /* \"#utility.yul\":1050:1055   */\n      dup2\n        /* \"#utility.yul\":1044:1056   */\n      mload\n        /* \"#utility.yul\":1077:1083   */\n      dup1\n        /* \"#utility.yul\":1072:1075   */\n      dup5\n        /* \"#utility.yul\":1065:1084   */\n      mstore\n        /* \"#utility.yul\":1133:1139   */\n      dup1\n        /* \"#utility.yul\":1126:1130   */\n      0x20\n        /* \"#utility.yul\":1119:1124   */\n      dup5\n        /* \"#utility.yul\":1115:1131   */\n      add\n        /* \"#utility.yul\":1108:1112   */\n      0x20\n        /* \"#utility.yul\":1103:1106   */\n      dup7\n        /* \"#utility.yul\":1099:1113   */\n      add\n        /* \"#utility.yul\":1093:1140   */\n      mcopy\n        /* \"#utility.yul\":1185:1186   */\n      0x00\n        /* \"#utility.yul\":1178:1182   */\n      0x20\n        /* \"#utility.yul\":1169:1175   */\n      dup3\n        /* \"#utility.yul\":1164:1167   */\n      dup7\n        /* \"#utility.yul\":1160:1176   */\n      add\n        /* \"#utility.yul\":1156:1183   */\n      add\n        /* \"#utility.yul\":1149:1187   */\n      mstore\n        /* \"#utility.yul\":1248:1252   */\n      0x20\n        /* \"#utility.yul\":1241:1243   */\n      0x1f\n        /* \"#utility.yul\":1237:1244   */\n      not\n        /* \"#utility.yul\":1232:1234   */\n      0x1f\n        /* \"#utility.yul\":1224:1230   */\n      dup4\n        /* \"#utility.yul\":1220:1235   */\n      add\n        /* \"#utility.yul\":1216:1245   */\n      and\n        /* \"#utility.yul\":1211:1214   */\n      dup6\n        /* \"#utility.yul\":1207:1246   */\n      add\n        /* \"#utility.yul\":1203:1253   */\n      add\n        /* \"#utility.yul\":1196:1253   */\n      swap2\n      pop\n      pop\n        /* \"#utility.yul\":959:1259   */\n      swap3\n      swap2\n      pop\n      pop\n      jump\t// out\n        /* \"#utility.yul\":1264:1495   */\n    tag_56:\n        /* \"#utility.yul\":1413:1415   */\n      0x20\n        /* \"#utility.yul\":1402:1411   */\n      dup2\n        /* \"#utility.yul\":1395:1416   */\n      mstore\n        /* \"#utility.yul\":1376:1380   */\n      0x00\n        /* \"#utility.yul\":1433:1489   */\n      tag_313\n        /* \"#utility.yul\":1485:1487   */\n      0x20\n        /* \"#utility.yul\":1474:1483   */\n      dup4\n        /* \"#utility.yul\":1470:1488   */\n      add\n        /* \"#utility.yul\":1462:1468   */\n      dup5\n        /* \"#utility.yul\":1433:1489   */\n      tag_451\n      jump\t// in\n        /* \"#utility.yul\":1708:1881   */\n    tag_452:\n        /* \"#utility.yul\":1776:1796   */\n      dup1\n      calldataload\n      sub(shl(0xa0, 0x01), 0x01)\n        /* \"#utility.yul\":1825:1856   */\n      dup2\n      and\n        /* \"#utility.yul\":1815:1857   */\n      dup2\n      eq\n        /* \"#utility.yul\":1805:1875   */\n      tag_473\n      jumpi\n        /* \"#utility.yul\":1871:1872   */\n      0x00\n        /* \"#utility.yul\":1868:1869   */\n      dup1\n        /* \"#utility.yul\":1861:1873   */\n      revert\n        /* \"#utility.yul\":1805:1875   */\n    tag_473:\n        /* \"#utility.yul\":1708:1881   */\n      swap2\n      swap1\n      pop\n      jump\t// out\n        /* \"#utility.yul\":1886:2140   */\n    tag_66:\n        /* \"#utility.yul\":1954:1960   */\n      0x00\n        /* \"#utility.yul\":1962:1968   */\n      dup1\n        /* \"#utility.yul\":2015:2017   */\n      0x40\n        /* \"#utility.yul\":2003:2012   */\n      dup4\n        /* \"#utility.yul\":1994:2001   */\n      dup6\n        /* \"#utility.yul\":1990:2013   */\n      sub\n        /* \"#utility.yul\":1986:2018   */\n      slt\n        /* \"#utility.yul\":1983:2035   */\n      iszero\n      tag_475\n      jumpi\n        /* \"#utility.yul\":2031:2032   */\n      0x00\n        /* \"#utility.yul\":2028:2029   */\n      dup1\n        /* \"#utility.yul\":2021:2033   */\n      revert\n        /* \"#utility.yul\":1983:2035   */\n    tag_475:\n        /* \"#utility.yul\":2054:2083   */\n      tag_476\n        /* \"#utility.yul\":2073:2082   */\n      dup4\n        /* \"#utility.yul\":2054:2083   */\n      tag_452\n      jump\t// in\n    tag_476:\n        /* \"#utility.yul\":2044:2083   */\n      swap5\n        /* \"#utility.yul\":2130:2132   */\n      0x20\n        /* \"#utility.yul\":2115:2133   */\n      swap4\n      swap1\n      swap4\n      add\n        /* \"#utility.yul\":2102:2134   */\n      calldataload\n      swap4\n      pop\n      pop\n      pop\n        /* \"#utility.yul\":1886:2140   */\n      jump\t// out\n        /* \"#utility.yul\":2145:2272   */\n    tag_396:\n        /* \"#utility.yul\":2206:2216   */\n      0x4e487b71\n        /* \"#utility.yul\":2201:2204   */\n      0xe0\n        /* \"#utility.yul\":2197:2217   */\n      shl\n        /* \"#utility.yul\":2194:2195   */\n      0x00\n        /* \"#utility.yul\":2187:2218   */\n      mstore\n        /* \"#utility.yul\":2237:2241   */\n      0x41\n        /* \"#utility.yul\":2234:2235   */\n      0x04\n        /* \"#utility.yul\":2227:2242   */\n      mstore\n        /* \"#utility.yul\":2261:2265   */\n      0x24\n        /* \"#utility.yul\":2258:2259   */\n      0x00\n        /* \"#utility.yul\":2251:2266   */\n      revert\n        /* \"#utility.yul\":2277:2908   */\n    tag_453:\n        /* \"#utility.yul\":2341:2346   */\n      0x00\n        /* \"#utility.yul\":2371:2389   */\n      0xffffffffffffffff\n        /* \"#utility.yul\":2412:2414   */\n      dup1\n        /* \"#utility.yul\":2404:2410   */\n      dup5\n        /* \"#utility.yul\":2401:2415   */\n      gt\n        /* \"#utility.yul\":2398:2438   */\n      iszero\n      tag_480\n      jumpi\n        /* \"#utility.yul\":2418:2436   */\n      tag_480\n      tag_396\n      jump\t// in\n    tag_480:\n        /* \"#utility.yul\":2493:2495   */\n      0x40\n        /* \"#utility.yul\":2487:2496   */\n      mload\n        /* \"#utility.yul\":2461:2463   */\n      0x1f\n        /* \"#utility.yul\":2547:2562   */\n      dup6\n      add\n      not(0x1f)\n        /* \"#utility.yul\":2543:2567   */\n      swap1\n      dup2\n      and\n        /* \"#utility.yul\":2569:2571   */\n      0x3f\n        /* \"#utility.yul\":2539:2572   */\n      add\n        /* \"#utility.yul\":2535:2577   */\n      and\n        /* \"#utility.yul\":2523:2578   */\n      dup2\n      add\n      swap1\n        /* \"#utility.yul\":2593:2611   */\n      dup3\n      dup3\n      gt\n        /* \"#utility.yul\":2613:2635   */\n      dup2\n      dup4\n      lt\n        /* \"#utility.yul\":2590:2636   */\n      or\n        /* \"#utility.yul\":2587:2659   */\n      iszero\n      tag_482\n      jumpi\n        /* \"#utility.yul\":2639:2657   */\n      tag_482\n      tag_396\n      jump\t// in\n    tag_482:\n        /* \"#utility.yul\":2679:2689   */\n      dup2\n        /* \"#utility.yul\":2675:2677   */\n      0x40\n        /* \"#utility.yul\":2668:2690   */\n      mstore\n        /* \"#utility.yul\":2708:2714   */\n      dup1\n        /* \"#utility.yul\":2699:2714   */\n      swap4\n      pop\n        /* \"#utility.yul\":2738:2744   */\n      dup6\n        /* \"#utility.yul\":2730:2736   */\n      dup2\n        /* \"#utility.yul\":2723:2745   */\n      mstore\n        /* \"#utility.yul\":2778:2781   */\n      dup7\n        /* \"#utility.yul\":2769:2775   */\n      dup7\n        /* \"#utility.yul\":2764:2767   */\n      dup7\n        /* \"#utility.yul\":2760:2776   */\n      add\n        /* \"#utility.yul\":2757:2782   */\n      gt\n        /* \"#utility.yul\":2754:2799   */\n      iszero\n      tag_483\n      jumpi\n        /* \"#utility.yul\":2795:2796   */\n      0x00\n        /* \"#utility.yul\":2792:2793   */\n      dup1\n        /* \"#utility.yul\":2785:2797   */\n      revert\n        /* \"#utility.yul\":2754:2799   */\n    tag_483:\n        /* \"#utility.yul\":2845:2851   */\n      dup6\n        /* \"#utility.yul\":2840:2843   */\n      dup6\n        /* \"#utility.yul\":2833:2837   */\n      0x20\n        /* \"#utility.yul\":2825:2831   */\n      dup4\n        /* \"#utility.yul\":2821:2838   */\n      add\n        /* \"#utility.yul\":2808:2852   */\n      calldatacopy\n        /* \"#utility.yul\":2900:2901   */\n      0x00\n        /* \"#utility.yul\":2893:2897   */\n      0x20\n        /* \"#utility.yul\":2884:2890   */\n      dup8\n        /* \"#utility.yul\":2876:2882   */\n      dup4\n        /* \"#utility.yul\":2872:2891   */\n      add\n        /* \"#utility.yul\":2868:2898   */\n      add\n        /* \"#utility.yul\":2861:2902   */\n      mstore\n      pop\n      pop\n      pop\n        /* \"#utility.yul\":2277:2908   */\n      swap4\n      swap3\n      pop\n      pop\n      pop\n      jump\t// out\n        /* \"#utility.yul\":2913:3579   */\n    tag_74:\n        /* \"#utility.yul\":3008:3014   */\n      0x00\n        /* \"#utility.yul\":3016:3022   */\n      dup1\n        /* \"#utility.yul\":3024:3030   */\n      0x00\n        /* \"#utility.yul\":3032:3038   */\n      dup1\n        /* \"#utility.yul\":3085:3088   */\n      0x80\n        /* \"#utility.yul\":3073:3082   */\n      dup6\n        /* \"#utility.yul\":3064:3071   */\n      dup8\n        /* \"#utility.yul\":3060:3083   */\n      sub\n        /* \"#utility.yul\":3056:3089   */\n      slt\n        /* \"#utility.yul\":3053:3106   */\n      iszero\n      tag_485\n      jumpi\n        /* \"#utility.yul\":3102:3103   */\n      0x00\n        /* \"#utility.yul\":3099:3100   */\n      dup1\n        /* \"#utility.yul\":3092:3104   */\n      revert\n        /* \"#utility.yul\":3053:3106   */\n    tag_485:\n        /* \"#utility.yul\":3125:3154   */\n      tag_486\n        /* \"#utility.yul\":3144:3153   */\n      dup6\n        /* \"#utility.yul\":3125:3154   */\n      tag_452\n      jump\t// in\n    tag_486:\n        /* \"#utility.yul\":3115:3154   */\n      swap4\n      pop\n        /* \"#utility.yul\":3173:3211   */\n      tag_487\n        /* \"#utility.yul\":3207:3209   */\n      0x20\n        /* \"#utility.yul\":3196:3205   */\n      dup7\n        /* \"#utility.yul\":3192:3210   */\n      add\n        /* \"#utility.yul\":3173:3211   */\n      tag_452\n      jump\t// in\n    tag_487:\n        /* \"#utility.yul\":3163:3211   */\n      swap3\n      pop\n        /* \"#utility.yul\":3258:3260   */\n      0x40\n        /* \"#utility.yul\":3247:3256   */\n      dup6\n        /* \"#utility.yul\":3243:3261   */\n      add\n        /* \"#utility.yul\":3230:3262   */\n      calldataload\n        /* \"#utility.yul\":3220:3262   */\n      swap2\n      pop\n        /* \"#utility.yul\":3313:3315   */\n      0x60\n        /* \"#utility.yul\":3302:3311   */\n      dup6\n        /* \"#utility.yul\":3298:3316   */\n      add\n        /* \"#utility.yul\":3285:3317   */\n      calldataload\n        /* \"#utility.yul\":3340:3358   */\n      0xffffffffffffffff\n        /* \"#utility.yul\":3332:3338   */\n      dup2\n        /* \"#utility.yul\":3329:3359   */\n      gt\n        /* \"#utility.yul\":3326:3376   */\n      iszero\n      tag_488\n      jumpi\n        /* \"#utility.yul\":3372:3373   */\n      0x00\n        /* \"#utility.yul\":3369:3370   */\n      dup1\n        /* \"#utility.yul\":3362:3374   */\n      revert\n        /* \"#utility.yul\":3326:3376   */\n    tag_488:\n        /* \"#utility.yul\":3395:3417   */\n      dup6\n      add\n        /* \"#utility.yul\":3448:3452   */\n      0x1f\n        /* \"#utility.yul\":3440:3453   */\n      dup2\n      add\n        /* \"#utility.yul\":3436:3463   */\n      dup8\n      sgt\n        /* \"#utility.yul\":3426:3481   */\n      tag_489\n      jumpi\n        /* \"#utility.yul\":3477:3478   */\n      0x00\n        /* \"#utility.yul\":3474:3475   */\n      dup1\n        /* \"#utility.yul\":3467:3479   */\n      revert\n        /* \"#utility.yul\":3426:3481   */\n    tag_489:\n        /* \"#utility.yul\":3500:3573   */\n      tag_490\n        /* \"#utility.yul\":3565:3572   */\n      dup8\n        /* \"#utility.yul\":3560:3562   */\n      dup3\n        /* \"#utility.yul\":3547:3563   */\n      calldataload\n        /* \"#utility.yul\":3542:3544   */\n      0x20\n        /* \"#utility.yul\":3538:3540   */\n      dup5\n        /* \"#utility.yul\":3534:3545   */\n      add\n        /* \"#utility.yul\":3500:3573   */\n      tag_453\n      jump\t// in\n    tag_490:\n        /* \"#utility.yul\":3490:3573   */\n      swap2\n      pop\n      pop\n        /* \"#utility.yul\":2913:3579   */\n      swap3\n      swap6\n      swap2\n      swap5\n      pop\n      swap3\n      pop\n      jump\t// out\n        /* \"#utility.yul\":3791:4039   */\n    tag_81:\n        /* \"#utility.yul\":3859:3865   */\n      0x00\n        /* \"#utility.yul\":3867:3873   */\n      dup1\n        /* \"#utility.yul\":3920:3922   */\n      0x40\n        /* \"#utility.yul\":3908:3917   */\n      dup4\n        /* \"#utility.yul\":3899:3906   */\n      dup6\n        /* \"#utility.yul\":3895:3918   */\n      sub\n        /* \"#utility.yul\":3891:3923   */\n      slt\n        /* \"#utility.yul\":3888:3940   */\n      iszero\n      tag_493\n      jumpi\n        /* \"#utility.yul\":3936:3937   */\n      0x00\n        /* \"#utility.yul\":3933:3934   */\n      dup1\n        /* \"#utility.yul\":3926:3938   */\n      revert\n        /* \"#utility.yul\":3888:3940   */\n    tag_493:\n      pop\n      pop\n        /* \"#utility.yul\":3959:3982   */\n      dup1\n      calldataload\n      swap3\n        /* \"#utility.yul\":4029:4031   */\n      0x20\n        /* \"#utility.yul\":4014:4032   */\n      swap1\n      swap2\n      add\n        /* \"#utility.yul\":4001:4033   */\n      calldataload\n      swap2\n      pop\n        /* \"#utility.yul\":3791:4039   */\n      jump\t// out\n        /* \"#utility.yul\":4285:4613   */\n    tag_92:\n        /* \"#utility.yul\":4362:4368   */\n      0x00\n        /* \"#utility.yul\":4370:4376   */\n      dup1\n        /* \"#utility.yul\":4378:4384   */\n      0x00\n        /* \"#utility.yul\":4431:4433   */\n      0x60\n        /* \"#utility.yul\":4419:4428   */\n      dup5\n        /* \"#utility.yul\":4410:4417   */\n      dup7\n        /* \"#utility.yul\":4406:4429   */\n      sub\n        /* \"#utility.yul\":4402:4434   */\n      slt\n        /* \"#utility.yul\":4399:4451   */\n      iszero\n      tag_496\n      jumpi\n        /* \"#utility.yul\":4447:4448   */\n      0x00\n        /* \"#utility.yul\":4444:4445   */\n      dup1\n        /* \"#utility.yul\":4437:4449   */\n      revert\n        /* \"#utility.yul\":4399:4451   */\n    tag_496:\n        /* \"#utility.yul\":4470:4499   */\n      tag_497\n        /* \"#utility.yul\":4489:4498   */\n      dup5\n        /* \"#utility.yul\":4470:4499   */\n      tag_452\n      jump\t// in\n    tag_497:\n        /* \"#utility.yul\":4460:4499   */\n      swap3\n      pop\n        /* \"#utility.yul\":4518:4556   */\n      tag_498\n        /* \"#utility.yul\":4552:4554   */\n      0x20\n        /* \"#utility.yul\":4541:4550   */\n      dup6\n        /* \"#utility.yul\":4537:4555   */\n      add\n        /* \"#utility.yul\":4518:4556   */\n      tag_452\n      jump\t// in\n    tag_498:\n        /* \"#utility.yul\":4508:4556   */\n      swap2\n      pop\n        /* \"#utility.yul\":4603:4605   */\n      0x40\n        /* \"#utility.yul\":4592:4601   */\n      dup5\n        /* \"#utility.yul\":4588:4606   */\n      add\n        /* \"#utility.yul\":4575:4607   */\n      calldataload\n        /* \"#utility.yul\":4565:4607   */\n      swap1\n      pop\n        /* \"#utility.yul\":4285:4613   */\n      swap3\n      pop\n      swap3\n      pop\n      swap3\n      jump\t// out\n        /* \"#utility.yul\":4618:4940   */\n    tag_108:\n        /* \"#utility.yul\":4695:4701   */\n      0x00\n        /* \"#utility.yul\":4703:4709   */\n      dup1\n        /* \"#utility.yul\":4711:4717   */\n      0x00\n        /* \"#utility.yul\":4764:4766   */\n      0x60\n        /* \"#utility.yul\":4752:4761   */\n      dup5\n        /* \"#utility.yul\":4743:4750   */\n      dup7\n        /* \"#utility.yul\":4739:4762   */\n      sub\n        /* \"#utility.yul\":4735:4767   */\n      slt\n        /* \"#utility.yul\":4732:4784   */\n      iszero\n      tag_500\n      jumpi\n        /* \"#utility.yul\":4780:4781   */\n      0x00\n        /* \"#utility.yul\":4777:4778   */\n      dup1\n        /* \"#utility.yul\":4770:4782   */\n      revert\n        /* \"#utility.yul\":4732:4784   */\n    tag_500:\n        /* \"#utility.yul\":4816:4825   */\n      dup4\n        /* \"#utility.yul\":4803:4826   */\n      calldataload\n        /* \"#utility.yul\":4793:4826   */\n      swap3\n      pop\n        /* \"#utility.yul\":4873:4875   */\n      0x20\n        /* \"#utility.yul\":4862:4871   */\n      dup5\n        /* \"#utility.yul\":4858:4876   */\n      add\n        /* \"#utility.yul\":4845:4877   */\n      calldataload\n        /* \"#utility.yul\":4835:4877   */\n      swap2\n      pop\n        /* \"#utility.yul\":4896:4934   */\n      tag_501\n        /* \"#utility.yul\":4930:4932   */\n      0x40\n        /* \"#utility.yul\":4919:4928   */\n      dup6\n        /* \"#utility.yul\":4915:4933   */\n      add\n        /* \"#utility.yul\":4896:4934   */\n      tag_452\n      jump\t// in\n    tag_501:\n        /* \"#utility.yul\":4886:4934   */\n      swap1\n      pop\n        /* \"#utility.yul\":4618:4940   */\n      swap3\n      pop\n      swap3\n      pop\n      swap3\n      jump\t// out\n        /* \"#utility.yul\":4945:5131   */\n    tag_118:\n        /* \"#utility.yul\":5004:5010   */\n      0x00\n        /* \"#utility.yul\":5057:5059   */\n      0x20\n        /* \"#utility.yul\":5045:5054   */\n      dup3\n        /* \"#utility.yul\":5036:5043   */\n      dup5\n        /* \"#utility.yul\":5032:5055   */\n      sub\n        /* \"#utility.yul\":5028:5060   */\n      slt\n        /* \"#utility.yul\":5025:5077   */\n      iszero\n      tag_503\n      jumpi\n        /* \"#utility.yul\":5073:5074   */\n      0x00\n        /* \"#utility.yul\":5070:5071   */\n      dup1\n        /* \"#utility.yul\":5063:5075   */\n      revert\n        /* \"#utility.yul\":5025:5077   */\n    tag_503:\n        /* \"#utility.yul\":5096:5125   */\n      tag_313\n        /* \"#utility.yul\":5115:5124   */\n      dup3\n        /* \"#utility.yul\":5096:5125   */\n      tag_452\n      jump\t// in\n        /* \"#utility.yul\":5136:5586   */\n    tag_143:\n        /* \"#utility.yul\":5205:5211   */\n      0x00\n        /* \"#utility.yul\":5258:5260   */\n      0x20\n        /* \"#utility.yul\":5246:5255   */\n      dup3\n        /* \"#utility.yul\":5237:5244   */\n      dup5\n        /* \"#utility.yul\":5233:5256   */\n      sub\n        /* \"#utility.yul\":5229:5261   */\n      slt\n        /* \"#utility.yul\":5226:5278   */\n      iszero\n      tag_506\n      jumpi\n        /* \"#utility.yul\":5274:5275   */\n      0x00\n        /* \"#utility.yul\":5271:5272   */\n      dup1\n        /* \"#utility.yul\":5264:5276   */\n      revert\n        /* \"#utility.yul\":5226:5278   */\n    tag_506:\n        /* \"#utility.yul\":5314:5323   */\n      dup2\n        /* \"#utility.yul\":5301:5324   */\n      calldataload\n        /* \"#utility.yul\":5347:5365   */\n      0xffffffffffffffff\n        /* \"#utility.yul\":5339:5345   */\n      dup2\n        /* \"#utility.yul\":5336:5366   */\n      gt\n        /* \"#utility.yul\":5333:5383   */\n      iszero\n      tag_507\n      jumpi\n        /* \"#utility.yul\":5379:5380   */\n      0x00\n        /* \"#utility.yul\":5376:5377   */\n      dup1\n        /* \"#utility.yul\":5369:5381   */\n      revert\n        /* \"#utility.yul\":5333:5383   */\n    tag_507:\n        /* \"#utility.yul\":5402:5424   */\n      dup3\n      add\n        /* \"#utility.yul\":5455:5459   */\n      0x1f\n        /* \"#utility.yul\":5447:5460   */\n      dup2\n      add\n        /* \"#utility.yul\":5443:5470   */\n      dup5\n      sgt\n        /* \"#utility.yul\":5433:5488   */\n      tag_508\n      jumpi\n        /* \"#utility.yul\":5484:5485   */\n      0x00\n        /* \"#utility.yul\":5481:5482   */\n      dup1\n        /* \"#utility.yul\":5474:5486   */\n      revert\n        /* \"#utility.yul\":5433:5488   */\n    tag_508:\n        /* \"#utility.yul\":5507:5580   */\n      tag_448\n        /* \"#utility.yul\":5572:5579   */\n      dup5\n        /* \"#utility.yul\":5567:5569   */\n      dup3\n        /* \"#utility.yul\":5554:5570   */\n      calldataload\n        /* \"#utility.yul\":5549:5551   */\n      0x20\n        /* \"#utility.yul\":5545:5547   */\n      dup5\n        /* \"#utility.yul\":5541:5552   */\n      add\n        /* \"#utility.yul\":5507:5580   */\n      tag_453\n      jump\t// in\n        /* \"#utility.yul\":5591:5938   */\n    tag_148:\n        /* \"#utility.yul\":5656:5662   */\n      0x00\n        /* \"#utility.yul\":5664:5670   */\n      dup1\n        /* \"#utility.yul\":5717:5719   */\n      0x40\n        /* \"#utility.yul\":5705:5714   */\n      dup4\n        /* \"#utility.yul\":5696:5703   */\n      dup6\n        /* \"#utility.yul\":5692:5715   */\n      sub\n        /* \"#utility.yul\":5688:5720   */\n      slt\n        /* \"#utility.yul\":5685:5737   */\n      iszero\n      tag_511\n      jumpi\n        /* \"#utility.yul\":5733:5734   */\n      0x00\n        /* \"#utility.yul\":5730:5731   */\n      dup1\n        /* \"#utility.yul\":5723:5735   */\n      revert\n        /* \"#utility.yul\":5685:5737   */\n    tag_511:\n        /* \"#utility.yul\":5756:5785   */\n      tag_512\n        /* \"#utility.yul\":5775:5784   */\n      dup4\n        /* \"#utility.yul\":5756:5785   */\n      tag_452\n      jump\t// in\n    tag_512:\n        /* \"#utility.yul\":5746:5785   */\n      swap2\n      pop\n        /* \"#utility.yul\":5835:5837   */\n      0x20\n        /* \"#utility.yul\":5824:5833   */\n      dup4\n        /* \"#utility.yul\":5820:5838   */\n      add\n        /* \"#utility.yul\":5807:5839   */\n      calldataload\n        /* \"#utility.yul\":5882:5887   */\n      dup1\n        /* \"#utility.yul\":5875:5888   */\n      iszero\n        /* \"#utility.yul\":5868:5889   */\n      iszero\n        /* \"#utility.yul\":5861:5866   */\n      dup2\n        /* \"#utility.yul\":5858:5890   */\n      eq\n        /* \"#utility.yul\":5848:5908   */\n      tag_513\n      jumpi\n        /* \"#utility.yul\":5904:5905   */\n      0x00\n        /* \"#utility.yul\":5901:5902   */\n      dup1\n        /* \"#utility.yul\":5894:5906   */\n      revert\n        /* \"#utility.yul\":5848:5908   */\n    tag_513:\n        /* \"#utility.yul\":5927:5932   */\n      dup1\n        /* \"#utility.yul\":5917:5932   */\n      swap2\n      pop\n      pop\n        /* \"#utility.yul\":5591:5938   */\n      swap3\n      pop\n      swap3\n      swap1\n      pop\n      jump\t// out\n        /* \"#utility.yul\":5943:6203   */\n    tag_166:\n        /* \"#utility.yul\":6011:6017   */\n      0x00\n        /* \"#utility.yul\":6019:6025   */\n      dup1\n        /* \"#utility.yul\":6072:6074   */\n      0x40\n        /* \"#utility.yul\":6060:6069   */\n      dup4\n        /* \"#utility.yul\":6051:6058   */\n      dup6\n        /* \"#utility.yul\":6047:6070   */\n      sub\n        /* \"#utility.yul\":6043:6075   */\n      slt\n        /* \"#utility.yul\":6040:6092   */\n      iszero\n      tag_515\n      jumpi\n        /* \"#utility.yul\":6088:6089   */\n      0x00\n        /* \"#utility.yul\":6085:6086   */\n      dup1\n        /* \"#utility.yul\":6078:6090   */\n      revert\n        /* \"#utility.yul\":6040:6092   */\n    tag_515:\n        /* \"#utility.yul\":6111:6140   */\n      tag_516\n        /* \"#utility.yul\":6130:6139   */\n      dup4\n        /* \"#utility.yul\":6111:6140   */\n      tag_452\n      jump\t// in\n    tag_516:\n        /* \"#utility.yul\":6101:6140   */\n      swap2\n      pop\n        /* \"#utility.yul\":6159:6197   */\n      tag_517\n        /* \"#utility.yul\":6193:6195   */\n      0x20\n        /* \"#utility.yul\":6182:6191   */\n      dup5\n        /* \"#utility.yul\":6178:6196   */\n      add\n        /* \"#utility.yul\":6159:6197   */\n      tag_452\n      jump\t// in\n    tag_517:\n        /* \"#utility.yul\":6149:6197   */\n      swap1\n      pop\n        /* \"#utility.yul\":5943:6203   */\n      swap3\n      pop\n      swap3\n      swap1\n      pop\n      jump\t// out\n        /* \"#utility.yul\":6208:6588   */\n    tag_184:\n        /* \"#utility.yul\":6287:6288   */\n      0x01\n        /* \"#utility.yul\":6283:6295   */\n      dup2\n      dup2\n      shr\n      swap1\n        /* \"#utility.yul\":6330:6342   */\n      dup3\n      and\n      dup1\n        /* \"#utility.yul\":6351:6412   */\n      tag_519\n      jumpi\n        /* \"#utility.yul\":6405:6409   */\n      0x7f\n        /* \"#utility.yul\":6397:6403   */\n      dup3\n        /* \"#utility.yul\":6393:6410   */\n      and\n        /* \"#utility.yul\":6383:6410   */\n      swap2\n      pop\n        /* \"#utility.yul\":6351:6412   */\n    tag_519:\n        /* \"#utility.yul\":6458:6460   */\n      0x20\n        /* \"#utility.yul\":6450:6456   */\n      dup3\n        /* \"#utility.yul\":6447:6461   */\n      lt\n        /* \"#utility.yul\":6427:6445   */\n      dup2\n        /* \"#utility.yul\":6424:6462   */\n      sub\n        /* \"#utility.yul\":6421:6582   */\n      tag_520\n      jumpi\n        /* \"#utility.yul\":6504:6514   */\n      0x4e487b71\n        /* \"#utility.yul\":6499:6502   */\n      0xe0\n        /* \"#utility.yul\":6495:6515   */\n      shl\n        /* \"#utility.yul\":6492:6493   */\n      0x00\n        /* \"#utility.yul\":6485:6516   */\n      mstore\n        /* \"#utility.yul\":6539:6543   */\n      0x22\n        /* \"#utility.yul\":6536:6537   */\n      0x04\n        /* \"#utility.yul\":6529:6544   */\n      mstore\n        /* \"#utility.yul\":6567:6571   */\n      0x24\n        /* \"#utility.yul\":6564:6565   */\n      0x00\n        /* \"#utility.yul\":6557:6572   */\n      revert\n        /* \"#utility.yul\":6421:6582   */\n    tag_520:\n      pop\n        /* \"#utility.yul\":6208:6588   */\n      swap2\n      swap1\n      pop\n      jump\t// out\n        /* \"#utility.yul\":9921:10439   */\n    tag_455:\n        /* \"#utility.yul\":10023:10025   */\n      0x1f\n        /* \"#utility.yul\":10018:10021   */\n      dup3\n        /* \"#utility.yul\":10015:10026   */\n      gt\n        /* \"#utility.yul\":10012:10433   */\n      iszero\n      tag_252\n      jumpi\n        /* \"#utility.yul\":10059:10064   */\n      dup1\n        /* \"#utility.yul\":10056:10057   */\n      0x00\n        /* \"#utility.yul\":10049:10065   */\n      mstore\n        /* \"#utility.yul\":10103:10107   */\n      0x20\n        /* \"#utility.yul\":10100:10101   */\n      0x00\n        /* \"#utility.yul\":10090:10108   */\n      keccak256\n        /* \"#utility.yul\":10173:10175   */\n      0x1f\n        /* \"#utility.yul\":10161:10171   */\n      dup5\n        /* \"#utility.yul\":10157:10176   */\n      add\n        /* \"#utility.yul\":10154:10155   */\n      0x05\n        /* \"#utility.yul\":10150:10177   */\n      shr\n        /* \"#utility.yul\":10144:10148   */\n      dup2\n        /* \"#utility.yul\":10140:10178   */\n      add\n        /* \"#utility.yul\":10209:10213   */\n      0x20\n        /* \"#utility.yul\":10197:10207   */\n      dup6\n        /* \"#utility.yul\":10194:10214   */\n      lt\n        /* \"#utility.yul\":10191:10238   */\n      iszero\n      tag_533\n      jumpi\n      pop\n        /* \"#utility.yul\":10232:10236   */\n      dup1\n        /* \"#utility.yul\":10191:10238   */\n    tag_533:\n        /* \"#utility.yul\":10287:10289   */\n      0x1f\n        /* \"#utility.yul\":10282:10285   */\n      dup5\n        /* \"#utility.yul\":10278:10290   */\n      add\n        /* \"#utility.yul\":10275:10276   */\n      0x05\n        /* \"#utility.yul\":10271:10291   */\n      shr\n        /* \"#utility.yul\":10265:10269   */\n      dup3\n        /* \"#utility.yul\":10261:10292   */\n      add\n        /* \"#utility.yul\":10251:10292   */\n      swap2\n      pop\n        /* \"#utility.yul\":10342:10423   */\n    tag_534:\n        /* \"#utility.yul\":10360:10362   */\n      dup2\n        /* \"#utility.yul\":10353:10358   */\n      dup2\n        /* \"#utility.yul\":10350:10363   */\n      lt\n        /* \"#utility.yul\":10342:10423   */\n      iszero\n      tag_240\n      jumpi\n        /* \"#utility.yul\":10419:10420   */\n      0x00\n        /* \"#utility.yul\":10405:10421   */\n      dup2\n      sstore\n        /* \"#utility.yul\":10386:10387   */\n      0x01\n        /* \"#utility.yul\":10375:10388   */\n      add\n        /* \"#utility.yul\":10342:10423   */\n      jump(tag_534)\n        /* \"#utility.yul\":10615:11960   */\n    tag_293:\n        /* \"#utility.yul\":10741:10744   */\n      dup2\n        /* \"#utility.yul\":10735:10745   */\n      mload\n        /* \"#utility.yul\":10768:10786   */\n      0xffffffffffffffff\n        /* \"#utility.yul\":10760:10766   */\n      dup2\n        /* \"#utility.yul\":10757:10787   */\n      gt\n        /* \"#utility.yul\":10754:10810   */\n      iszero\n      tag_540\n      jumpi\n        /* \"#utility.yul\":10790:10808   */\n      tag_540\n      tag_396\n      jump\t// in\n    tag_540:\n        /* \"#utility.yul\":10819:10916   */\n      tag_541\n        /* \"#utility.yul\":10909:10915   */\n      dup2\n        /* \"#utility.yul\":10869:10907   */\n      tag_542\n        /* \"#utility.yul\":10901:10905   */\n      dup5\n        /* \"#utility.yul\":10895:10906   */\n      sload\n        /* \"#utility.yul\":10869:10907   */\n      tag_184\n      jump\t// in\n    tag_542:\n        /* \"#utility.yul\":10863:10867   */\n      dup5\n        /* \"#utility.yul\":10819:10916   */\n      tag_455\n      jump\t// in\n    tag_541:\n        /* \"#utility.yul\":10971:10975   */\n      0x20\n      dup1\n        /* \"#utility.yul\":11028:11030   */\n      0x1f\n        /* \"#utility.yul\":11017:11031   */\n      dup4\n      gt\n        /* \"#utility.yul\":11045:11046   */\n      0x01\n        /* \"#utility.yul\":11040:11703   */\n      dup2\n      eq\n      tag_544\n      jumpi\n        /* \"#utility.yul\":11747:11748   */\n      0x00\n        /* \"#utility.yul\":11764:11770   */\n      dup5\n        /* \"#utility.yul\":11761:11850   */\n      iszero\n      tag_545\n      jumpi\n      pop\n        /* \"#utility.yul\":11816:11835   */\n      dup6\n      dup4\n      add\n        /* \"#utility.yul\":11810:11836   */\n      mload\n        /* \"#utility.yul\":11761:11850   */\n    tag_545:\n      not(0x00)\n        /* \"#utility.yul\":10572:10573   */\n      0x03\n        /* \"#utility.yul\":10568:10579   */\n      dup7\n      swap1\n      shl\n        /* \"#utility.yul\":10564:10588   */\n      shr\n        /* \"#utility.yul\":10560:10589   */\n      not\n        /* \"#utility.yul\":10550:10590   */\n      and\n        /* \"#utility.yul\":10596:10597   */\n      0x01\n        /* \"#utility.yul\":10592:10603   */\n      dup6\n      swap1\n      shl\n        /* \"#utility.yul\":10547:10604   */\n      or\n        /* \"#utility.yul\":11863:11944   */\n      dup6\n      sstore\n        /* \"#utility.yul\":11010:11954   */\n      jump(tag_213)\n        /* \"#utility.yul\":11040:11703   */\n    tag_544:\n        /* \"#utility.yul\":9868:9869   */\n      0x00\n        /* \"#utility.yul\":9861:9875   */\n      dup6\n      dup2\n      mstore\n        /* \"#utility.yul\":9905:9909   */\n      0x20\n        /* \"#utility.yul\":9892:9910   */\n      dup2\n      keccak256\n      not(0x1f)\n        /* \"#utility.yul\":11076:11096   */\n      dup7\n      and\n      swap2\n        /* \"#utility.yul\":11194:11430   */\n    tag_548:\n        /* \"#utility.yul\":11208:11215   */\n      dup3\n        /* \"#utility.yul\":11205:11206   */\n      dup2\n        /* \"#utility.yul\":11202:11216   */\n      lt\n        /* \"#utility.yul\":11194:11430   */\n      iszero\n      tag_550\n      jumpi\n        /* \"#utility.yul\":11297:11316   */\n      dup9\n      dup7\n      add\n        /* \"#utility.yul\":11291:11317   */\n      mload\n        /* \"#utility.yul\":11276:11318   */\n      dup3\n      sstore\n        /* \"#utility.yul\":11389:11416   */\n      swap5\n      dup5\n      add\n      swap5\n        /* \"#utility.yul\":11357:11358   */\n      0x01\n        /* \"#utility.yul\":11345:11359   */\n      swap1\n      swap2\n      add\n      swap1\n        /* \"#utility.yul\":11224:11243   */\n      dup5\n      add\n        /* \"#utility.yul\":11194:11430   */\n      jump(tag_548)\n    tag_550:\n        /* \"#utility.yul\":11198:11201   */\n      pop\n        /* \"#utility.yul\":11458:11464   */\n      dup6\n        /* \"#utility.yul\":11449:11456   */\n      dup3\n        /* \"#utility.yul\":11446:11465   */\n      lt\n        /* \"#utility.yul\":11443:11644   */\n      iszero\n      tag_551\n      jumpi\n        /* \"#utility.yul\":11519:11538   */\n      dup8\n      dup6\n      add\n        /* \"#utility.yul\":11513:11539   */\n      mload\n      not(0x00)\n        /* \"#utility.yul\":11602:11603   */\n      0x03\n        /* \"#utility.yul\":11598:11612   */\n      dup9\n      swap1\n      shl\n        /* \"#utility.yul\":11614:11617   */\n      0xf8\n        /* \"#utility.yul\":11594:11618   */\n      and\n        /* \"#utility.yul\":11590:11627   */\n      shr\n        /* \"#utility.yul\":11586:11628   */\n      not\n        /* \"#utility.yul\":11571:11629   */\n      and\n        /* \"#utility.yul\":11556:11630   */\n      dup2\n      sstore\n        /* \"#utility.yul\":11443:11644   */\n    tag_551:\n      pop\n      pop\n      pop\n      pop\n      pop\n        /* \"#utility.yul\":11690:11691   */\n      0x01\n        /* \"#utility.yul\":11674:11688   */\n      swap1\n      dup2\n      shl\n        /* \"#utility.yul\":11670:11692   */\n      add\n        /* \"#utility.yul\":11657:11693   */\n      swap1\n      sstore\n      pop\n        /* \"#utility.yul\":10615:11960   */\n      jump\t// out\n        /* \"#utility.yul\":12316:12528   */\n    tag_457:\n        /* \"#utility.yul\":12358:12361   */\n      0x00\n        /* \"#utility.yul\":12396:12401   */\n      dup2\n        /* \"#utility.yul\":12390:12402   */\n      mload\n        /* \"#utility.yul\":12440:12446   */\n      dup1\n        /* \"#utility.yul\":12433:12437   */\n      0x20\n        /* \"#utility.yul\":12426:12431   */\n      dup5\n        /* \"#utility.yul\":12422:12438   */\n      add\n        /* \"#utility.yul\":12417:12420   */\n      dup6\n        /* \"#utility.yul\":12411:12447   */\n      mcopy\n        /* \"#utility.yul\":12502:12503   */\n      0x00\n        /* \"#utility.yul\":12466:12482   */\n      swap4\n      add\n        /* \"#utility.yul\":12491:12504   */\n      swap3\n      dup4\n      mstore\n      pop\n        /* \"#utility.yul\":12466:12482   */\n      swap1\n      swap2\n        /* \"#utility.yul\":12316:12528   */\n      swap1\n      pop\n      jump\t// out\n        /* \"#utility.yul\":12533:12800   */\n    tag_317:\n        /* \"#utility.yul\":12712:12715   */\n      0x00\n        /* \"#utility.yul\":12737:12794   */\n      tag_448\n        /* \"#utility.yul\":12763:12793   */\n      tag_556\n        /* \"#utility.yul\":12789:12792   */\n      dup4\n        /* \"#utility.yul\":12781:12787   */\n      dup7\n        /* \"#utility.yul\":12763:12793   */\n      tag_457\n      jump\t// in\n    tag_556:\n        /* \"#utility.yul\":12755:12761   */\n      dup5\n        /* \"#utility.yul\":12737:12794   */\n      tag_457\n      jump\t// in\n        /* \"#utility.yul\":12805:13305   */\n    tag_369:\n      sub(shl(0xa0, 0x01), 0x01)\n        /* \"#utility.yul\":13074:13089   */\n      dup6\n      dup2\n      and\n        /* \"#utility.yul\":13056:13090   */\n      dup3\n      mstore\n        /* \"#utility.yul\":13126:13141   */\n      dup5\n      and\n        /* \"#utility.yul\":13121:13123   */\n      0x20\n        /* \"#utility.yul\":13106:13124   */\n      dup3\n      add\n        /* \"#utility.yul\":13099:13142   */\n      mstore\n        /* \"#utility.yul\":13173:13175   */\n      0x40\n        /* \"#utility.yul\":13158:13176   */\n      dup2\n      add\n        /* \"#utility.yul\":13151:13185   */\n      dup4\n      swap1\n      mstore\n        /* \"#utility.yul\":13221:13224   */\n      0x80\n        /* \"#utility.yul\":13216:13218   */\n      0x60\n        /* \"#utility.yul\":13201:13219   */\n      dup3\n      add\n        /* \"#utility.yul\":13194:13225   */\n      dup2\n      swap1\n      mstore\n        /* \"#utility.yul\":12999:13003   */\n      0x00\n      swap1\n        /* \"#utility.yul\":13242:13299   */\n      tag_558\n      swap1\n        /* \"#utility.yul\":13279:13298   */\n      dup4\n      add\n        /* \"#utility.yul\":13271:13277   */\n      dup5\n        /* \"#utility.yul\":13242:13299   */\n      tag_451\n      jump\t// in\n    tag_558:\n        /* \"#utility.yul\":13234:13299   */\n      swap7\n        /* \"#utility.yul\":12805:13305   */\n      swap6\n      pop\n      pop\n      pop\n      pop\n      pop\n      pop\n      jump\t// out\n        /* \"#utility.yul\":13310:13559   */\n    tag_372:\n        /* \"#utility.yul\":13379:13385   */\n      0x00\n        /* \"#utility.yul\":13432:13434   */\n      0x20\n        /* \"#utility.yul\":13420:13429   */\n      dup3\n        /* \"#utility.yul\":13411:13418   */\n      dup5\n        /* \"#utility.yul\":13407:13430   */\n      sub\n        /* \"#utility.yul\":13403:13435   */\n      slt\n        /* \"#utility.yul\":13400:13452   */\n      iszero\n      tag_560\n      jumpi\n        /* \"#utility.yul\":13448:13449   */\n      0x00\n        /* \"#utility.yul\":13445:13446   */\n      dup1\n        /* \"#utility.yul\":13438:13450   */\n      revert\n        /* \"#utility.yul\":13400:13452   */\n    tag_560:\n        /* \"#utility.yul\":13480:13489   */\n      dup2\n        /* \"#utility.yul\":13474:13490   */\n      mload\n        /* \"#utility.yul\":13499:13529   */\n      tag_313\n        /* \"#utility.yul\":13523:13528   */\n      dup2\n        /* \"#utility.yul\":13499:13529   */\n      tag_450\n      jump\t// in\n\n    auxdata: 0xa2646970667358221220c44f8e5463ced9152b00d1f90ca92b681d14656b6888301b0cdfb60716755d7764736f6c63430008190033\n}\n",
				"bytecode": {
					"linkReferences": {},
					"object": "60a06040525f608090815260079061001790826101b6565b50348015610023575f80fd5b5033604051806040016040528060078152602001664e46544f50494160c81b8152506040518060400160405280600381526020016204e46560ec1b815250815f908161006f91906101b6565b50600161007c82826101b6565b5050506001600160a01b0381166100ac57604051631e4fbdf760e01b81525f600482015260240160405180910390fd5b6100b5816100cd565b50600980546001600160a01b03191633179055610275565b600680546001600160a01b038381166001600160a01b0319831681179093556040519116919082907f8be0079c531659141344cd1fd0a4f28419497f9722a3daafe3b4186f6b6457e0905f90a35050565b634e487b7160e01b5f52604160045260245ffd5b600181811c9082168061014657607f821691505b60208210810361016457634e487b7160e01b5f52602260045260245ffd5b50919050565b601f8211156101b157805f5260205f20601f840160051c8101602085101561018f5750805b601f840160051c820191505b818110156101ae575f815560010161019b565b50505b505050565b81516001600160401b038111156101cf576101cf61011e565b6101e3816101dd8454610132565b8461016a565b602080601f831160018114610216575f84156101ff5750858301515b5f19600386901b1c1916600185901b17855561026d565b5f85815260208120601f198616915b8281101561024457888601518255948401946001909101908401610225565b508582101561026157878501515f19600388901b60f8161c191681555b505060018460011b0185555b505050505050565b611a32806102825f395ff3fe6080604052600436106101ba575f3560e01c80636352211e116100f2578063a0bcfc7f11610092578063c87b56dd11610062578063c87b56dd14610536578063e985e9c514610555578063f2fde38b14610574578063fc6f946814610593575f80fd5b8063a0bcfc7f146104ba578063a22cb465146104d9578063b2733b39146104f8578063b88d4fde14610517575f80fd5b8063715018a6116100cd578063715018a6146104565780637b47ec1a1461046a5780638da5cb5b1461048957806395d89b41146104a6575f80fd5b80636352211e146103f9578063704b6c021461041857806370a0823114610437575f80fd5b80631b2ef1ca1161015d5780632d296bf1116101385780632d296bf11461038957806342421c981461039c57806342842e0e146103bb57806359e53f79146103da575f80fd5b80631b2ef1ca146102fa5780631e24b8b41461031957806323b872dd1461036a575f80fd5b8063081812fc11610198578063081812fc1461024c578063095ea7b3146102835780630a30c95b146102a4578063150b7a02146102b7575f80fd5b806301ffc9a7146101be57806302eb4b88146101f257806306fdde031461022b575b5f80fd5b3480156101c9575f80fd5b506101dd6101d836600461153c565b6105b2565b60405190151581526020015b60405180910390f35b3480156101fd575f80fd5b5061021d61020c366004611557565b60086020525f908152604090205481565b6040519081526020016101e9565b348015610236575f80fd5b5061023f610603565b6040516101e9919061159c565b348015610257575f80fd5b5061026b610266366004611557565b610692565b6040516001600160a01b0390911681526020016101e9565b34801561028e575f80fd5b506102a261029d3660046115c9565b6106b9565b005b6102a26102b2366004611557565b6106c8565b3480156102c2575f80fd5b506102e16102d1366004611678565b630a85bd0160e11b949350505050565b6040516001600160e01b031990911681526020016101e9565b348015610305575f80fd5b506102a26103143660046116ef565b61081e565b348015610324575f80fd5b5061035b610333366004611557565b60408051602080820183525f9182905292815260088352819020815192830190915254815290565b604051905181526020016101e9565b348015610375575f80fd5b506102a261038436600461170f565b610873565b6102a2610397366004611557565b6108fc565b3480156103a7575f80fd5b506102a26103b63660046116ef565b6109a4565b3480156103c6575f80fd5b506102a26103d536600461170f565b610a85565b3480156103e5575f80fd5b506102a26103f4366004611748565b610aa4565b348015610404575f80fd5b5061026b610413366004611557565b610b04565b348015610423575f80fd5b506102a261043236600461177a565b610b0e565b348015610442575f80fd5b5061021d61045136600461177a565b610b8e565b348015610461575f80fd5b506102a2610bd3565b348015610475575f80fd5b506102a2610484366004611557565b610be6565b348015610494575f80fd5b506006546001600160a01b031661026b565b3480156104b1575f80fd5b5061023f610c53565b3480156104c5575f80fd5b506102a26104d4366004611793565b610c62565b3480156104e4575f80fd5b506102a26104f33660046117d8565b610c76565b348015610503575f80fd5b506102a26105123660046116ef565b610c81565b348015610522575f80fd5b506102a2610531366004611678565b610cf4565b348015610541575f80fd5b5061023f610550366004611557565b610d0b565b348015610560575f80fd5b506101dd61056f366004611811565b610d70565b34801561057f575f80fd5b506102a261058e36600461177a565b610d9d565b34801561059e575f80fd5b5060095461026b906001600160a01b031681565b5f6001600160e01b031982166380ac58cd60e01b14806105e257506001600160e01b03198216635b5e139f60e01b145b806105fd57506301ffc9a760e01b6001600160e01b03198316145b92915050565b60605f805461061190611842565b80601f016020809104026020016040519081016040528092919081815260200182805461063d90611842565b80156106885780601f1061065f57610100808354040283529160200191610688565b820191905f5260205f20905b81548152906001019060200180831161066b57829003601f168201915b5050505050905090565b5f61069c82610dda565b505f828152600460205260409020546001600160a01b03166105fd565b6106c4828233610e12565b5050565b5f818152600860205260409020546107275760405162461bcd60e51b815260206004820152601760248201527f4e4654206e6f74206c697374656420666f722073616c6500000000000000000060448201526064015b60405180910390fd5b5f61073182610b04565b5f838152600860205260409020549091503410156107865760405162461bcd60e51b8152602060048201526012602482015271496e73756666696369656e742066756e647360701b604482015260640161071e565b6040516001600160a01b038216903480156108fc02915f818181858888f193505050501580156107b8573d5f803e3d5ffd5b506040516323b872dd60e01b81526001600160a01b03821660048201523360248201526044810183905230906323b872dd906064015f604051808303815f87803b158015610804575f80fd5b505af1158015610816573d5f803e3d5ffd5b505050505050565b5f81116108595760405162461bcd60e51b81526020600482015260096024820152686572726f72206d736760b81b604482015260640161071e565b5f8281526008602052604090208190556106c43083610e1f565b6001600160a01b03821661089c57604051633250574960e11b81525f600482015260240161071e565b5f6108a8838333610e80565b9050836001600160a01b0316816001600160a01b0316146108f6576040516364283d7b60e01b81526001600160a01b038086166004830152602482018490528216604482015260640161071e565b50505050565b5f8181526008602052604090205434146109485760405162461bcd60e51b815260206004820152600d60248201526c496e76616c696420507269636560981b604482015260640161071e565b6040516323b872dd60e01b8152306004820181905233602483015260448201839052906323b872dd906064015f604051808303815f87803b15801561098b575f80fd5b505af115801561099d573d5f803e3d5ffd5b5050505050565b335f6109af84610b04565b9050816001600160a01b0316816001600160a01b031614610a125760405162461bcd60e51b815260206004820152601c60248201527f596f7520646f6e2774206f776e207468652073656e7420746f6b656e00000000604482015260640161071e565b610a1d823086610873565b6040516323b872dd60e01b815230600482018190526001600160a01b038416602483015260448201859052906323b872dd906064015f604051808303815f87803b158015610a69575f80fd5b505af1158015610a7b573d5f803e3d5ffd5b5050505050505050565b610a9f83838360405180602001604052805f815250610cf4565b505050565b5f8211610adf5760405162461bcd60e51b81526020600482015260096024820152686572726f72206d736760b81b604482015260640161071e565b5f838152600860205260409020829055610af98184610e1f565b610a9f600180610c76565b5f6105fd82610dda565b610b16610f72565b6001600160a01b038116610b6c5760405162461bcd60e51b815260206004820152601860248201527f6e756c6c2061646472657373206e6f7420616c6c6f7765640000000000000000604482015260640161071e565b600980546001600160a01b0319166001600160a01b0392909216919091179055565b5f6001600160a01b038216610bb8576040516322718ad960e21b81525f600482015260240161071e565b506001600160a01b03165f9081526003602052604090205490565b610bdb610f72565b610be45f610f9f565b565b5f610bf082610b04565b90506001600160a01b0381163314610c4a5760405162461bcd60e51b815260206004820152601960248201527f4f6e6c79206f776e65722063616e206275726e20546f6b656e00000000000000604482015260640161071e565b6106c482610ff0565b60606001805461061190611842565b610c6a610f72565b60076106c482826118be565b6106c4338383611028565b33610c8b83610b04565b6001600160a01b031614610cda5760405162461bcd60e51b8152602060048201526016602482015275165bdd48191bdb89dd081bdddb881d1a1a5cc813919560521b604482015260640161071e565b5f8281526008602052604090208190556106c430836106b9565b610cff848484610873565b6108f6848484846110c6565b6060610d1682610dda565b505f610d206111e5565b90505f815111610d3e5760405180602001604052805f815250610d69565b80610d48846111f4565b604051602001610d59929190611991565b6040516020818303038152906040525b9392505050565b6001600160a01b039182165f90815260056020908152604080832093909416825291909152205460ff1690565b610da5610f72565b6001600160a01b038116610dce57604051631e4fbdf760e01b81525f600482015260240161071e565b610dd781610f9f565b50565b5f818152600260205260408120546001600160a01b0316806105fd57604051637e27328960e01b81526004810184905260240161071e565b610a9f8383836001611284565b6001600160a01b038216610e4857604051633250574960e11b81525f600482015260240161071e565b5f610e5483835f610e80565b90506001600160a01b03811615610a9f576040516339e3563760e11b81525f600482015260240161071e565b5f828152600260205260408120546001600160a01b0390811690831615610eac57610eac818486611388565b6001600160a01b03811615610ee657610ec75f855f80611284565b6001600160a01b0381165f90815260036020526040902080545f190190555b6001600160a01b03851615610f14576001600160a01b0385165f908152600360205260409020805460010190555b5f8481526002602052604080822080546001600160a01b0319166001600160a01b0389811691821790925591518793918516917fddf252ad1be2c89b69c2b068fc378daa952ba7f163c4a11628f55a4df523b3ef91a4949350505050565b6006546001600160a01b03163314610be45760405163118cdaa760e01b815233600482015260240161071e565b600680546001600160a01b038381166001600160a01b0319831681179093556040519116919082907f8be0079c531659141344cd1fd0a4f28419497f9722a3daafe3b4186f6b6457e0905f90a35050565b5f610ffc5f835f610e80565b90506001600160a01b0381166106c457604051637e27328960e01b81526004810183905260240161071e565b6001600160a01b03821661105a57604051630b61174360e31b81526001600160a01b038316600482015260240161071e565b6001600160a01b038381165f81815260056020908152604080832094871680845294825291829020805460ff191686151590811790915591519182527f17307eab39ab6107e8899845ad3d59bd9653f200f220920489ca2b5937696c31910160405180910390a3505050565b6001600160a01b0383163b156108f657604051630a85bd0160e11b81526001600160a01b0384169063150b7a02906111089033908890879087906004016119a5565b6020604051808303815f875af1925050508015611142575060408051601f3d908101601f1916820190925261113f918101906119e1565b60015b6111a9573d80801561116f576040519150601f19603f3d011682016040523d82523d5f602084013e611174565b606091505b5080515f036111a157604051633250574960e11b81526001600160a01b038516600482015260240161071e565b805181602001fd5b6001600160e01b03198116630a85bd0160e11b1461099d57604051633250574960e11b81526001600160a01b038516600482015260240161071e565b60606007805461061190611842565b60605f611200836113ec565b60010190505f8167ffffffffffffffff81111561121f5761121f6115f1565b6040519080825280601f01601f191660200182016040528015611249576020820181803683370190505b5090508181016020015b5f19016f181899199a1a9b1b9c1cb0b131b232b360811b600a86061a8153600a850494508461125357509392505050565b808061129857506001600160a01b03821615155b15611359575f6112a784610dda565b90506001600160a01b038316158015906112d35750826001600160a01b0316816001600160a01b031614155b80156112e657506112e48184610d70565b155b1561130f5760405163a9fbf51f60e01b81526001600160a01b038416600482015260240161071e565b81156113575783856001600160a01b0316826001600160a01b03167f8c5be1e5ebec7d5bd14f71427d1e84f3dd0314c0f7b2291e5b200ac8c7c3b92560405160405180910390a45b505b50505f90815260046020526040902080546001600160a01b0319166001600160a01b0392909216919091179055565b6113938383836114c3565b610a9f576001600160a01b0383166113c157604051637e27328960e01b81526004810182905260240161071e565b60405163177e802f60e01b81526001600160a01b03831660048201526024810182905260440161071e565b5f8072184f03e93ff9f4daa797ed6e38ed64bf6a1f0160401b831061142a5772184f03e93ff9f4daa797ed6e38ed64bf6a1f0160401b830492506040015b6d04ee2d6d415b85acef81000000008310611456576d04ee2d6d415b85acef8100000000830492506020015b662386f26fc10000831061147457662386f26fc10000830492506010015b6305f5e100831061148c576305f5e100830492506008015b61271083106114a057612710830492506004015b606483106114b2576064830492506002015b600a83106105fd5760010192915050565b5f6001600160a01b0383161580159061151f5750826001600160a01b0316846001600160a01b031614806114fc57506114fc8484610d70565b8061151f57505f828152600460205260409020546001600160a01b038481169116145b949350505050565b6001600160e01b031981168114610dd7575f80fd5b5f6020828403121561154c575f80fd5b8135610d6981611527565b5f60208284031215611567575f80fd5b5035919050565b5f81518084528060208401602086015e5f602082860101526020601f19601f83011685010191505092915050565b602081525f610d69602083018461156e565b80356001600160a01b03811681146115c4575f80fd5b919050565b5f80604083850312156115da575f80fd5b6115e3836115ae565b946020939093013593505050565b634e487b7160e01b5f52604160045260245ffd5b5f67ffffffffffffffff8084111561161f5761161f6115f1565b604051601f8501601f19908116603f01168101908282118183101715611647576116476115f1565b8160405280935085815286868601111561165f575f80fd5b858560208301375f602087830101525050509392505050565b5f805f806080858703121561168b575f80fd5b611694856115ae565b93506116a2602086016115ae565b925060408501359150606085013567ffffffffffffffff8111156116c4575f80fd5b8501601f810187136116d4575f80fd5b6116e387823560208401611605565b91505092959194509250565b5f8060408385031215611700575f80fd5b50508035926020909101359150565b5f805f60608486031215611721575f80fd5b61172a846115ae565b9250611738602085016115ae565b9150604084013590509250925092565b5f805f6060848603121561175a575f80fd5b8335925060208401359150611771604085016115ae565b90509250925092565b5f6020828403121561178a575f80fd5b610d69826115ae565b5f602082840312156117a3575f80fd5b813567ffffffffffffffff8111156117b9575f80fd5b8201601f810184136117c9575f80fd5b61151f84823560208401611605565b5f80604083850312156117e9575f80fd5b6117f2836115ae565b915060208301358015158114611806575f80fd5b809150509250929050565b5f8060408385031215611822575f80fd5b61182b836115ae565b9150611839602084016115ae565b90509250929050565b600181811c9082168061185657607f821691505b60208210810361187457634e487b7160e01b5f52602260045260245ffd5b50919050565b601f821115610a9f57805f5260205f20601f840160051c8101602085101561189f5750805b601f840160051c820191505b8181101561099d575f81556001016118ab565b815167ffffffffffffffff8111156118d8576118d86115f1565b6118ec816118e68454611842565b8461187a565b602080601f83116001811461191f575f84156119085750858301515b5f19600386901b1c1916600185901b178555610816565b5f85815260208120601f198616915b8281101561194d5788860151825594840194600190910190840161192e565b508582101561196a57878501515f19600388901b60f8161c191681555b5050505050600190811b01905550565b5f81518060208401855e5f93019283525090919050565b5f61151f61199f838661197a565b8461197a565b6001600160a01b03858116825284166020820152604081018390526080606082018190525f906119d79083018461156e565b9695505050505050565b5f602082840312156119f1575f80fd5b8151610d698161152756fea2646970667358221220c44f8e5463ced9152b00d1f90ca92b681d14656b6888301b0cdfb60716755d7764736f6c63430008190033",
					"opcodes": "PUSH1 0xA0 PUSH1 0x40 MSTORE PUSH0 PUSH1 0x80 SWAP1 DUP2 MSTORE PUSH1 0x7 SWAP1 PUSH2 0x17 SWAP1 DUP3 PUSH2 0x1B6 JUMP JUMPDEST POP CALLVALUE DUP1 ISZERO PUSH2 0x23 JUMPI PUSH0 DUP1 REVERT JUMPDEST POP CALLER PUSH1 0x40 MLOAD DUP1 PUSH1 0x40 ADD PUSH1 0x40 MSTORE DUP1 PUSH1 0x7 DUP2 MSTORE PUSH1 0x20 ADD PUSH7 0x4E46544F504941 PUSH1 0xC8 SHL DUP2 MSTORE POP PUSH1 0x40 MLOAD DUP1 PUSH1 0x40 ADD PUSH1 0x40 MSTORE DUP1 PUSH1 0x3 DUP2 MSTORE PUSH1 0x20 ADD PUSH3 0x4E465 PUSH1 0xEC SHL DUP2 MSTORE POP DUP2 PUSH0 SWAP1 DUP2 PUSH2 0x6F SWAP2 SWAP1 PUSH2 0x1B6 JUMP JUMPDEST POP PUSH1 0x1 PUSH2 0x7C DUP3 DUP3 PUSH2 0x1B6 JUMP JUMPDEST POP POP POP PUSH1 0x1 PUSH1 0x1 PUSH1 0xA0 SHL SUB DUP2 AND PUSH2 0xAC JUMPI PUSH1 0x40 MLOAD PUSH4 0x1E4FBDF7 PUSH1 0xE0 SHL DUP2 MSTORE PUSH0 PUSH1 0x4 DUP3 ADD MSTORE PUSH1 0x24 ADD PUSH1 0x40 MLOAD DUP1 SWAP2 SUB SWAP1 REVERT JUMPDEST PUSH2 0xB5 DUP2 PUSH2 0xCD JUMP JUMPDEST POP PUSH1 0x9 DUP1 SLOAD PUSH1 0x1 PUSH1 0x1 PUSH1 0xA0 SHL SUB NOT AND CALLER OR SWAP1 SSTORE PUSH2 0x275 JUMP JUMPDEST PUSH1 0x6 DUP1 SLOAD PUSH1 0x1 PUSH1 0x1 PUSH1 0xA0 SHL SUB DUP4 DUP2 AND PUSH1 0x1 PUSH1 0x1 PUSH1 0xA0 SHL SUB NOT DUP4 AND DUP2 OR SWAP1 SWAP4 SSTORE PUSH1 0x40 MLOAD SWAP2 AND SWAP2 SWAP1 DUP3 SWAP1 PUSH32 0x8BE0079C531659141344CD1FD0A4F28419497F9722A3DAAFE3B4186F6B6457E0 SWAP1 PUSH0 SWAP1 LOG3 POP POP JUMP JUMPDEST PUSH4 0x4E487B71 PUSH1 0xE0 SHL PUSH0 MSTORE PUSH1 0x41 PUSH1 0x4 MSTORE PUSH1 0x24 PUSH0 REVERT JUMPDEST PUSH1 0x1 DUP2 DUP2 SHR SWAP1 DUP3 AND DUP1 PUSH2 0x146 JUMPI PUSH1 0x7F DUP3 AND SWAP2 POP JUMPDEST PUSH1 0x20 DUP3 LT DUP2 SUB PUSH2 0x164 JUMPI PUSH4 0x4E487B71 PUSH1 0xE0 SHL PUSH0 MSTORE PUSH1 0x22 PUSH1 0x4 MSTORE PUSH1 0x24 PUSH0 REVERT JUMPDEST POP SWAP2 SWAP1 POP JUMP JUMPDEST PUSH1 0x1F DUP3 GT ISZERO PUSH2 0x1B1 JUMPI DUP1 PUSH0 MSTORE PUSH1 0x20 PUSH0 KECCAK256 PUSH1 0x1F DUP5 ADD PUSH1 0x5 SHR DUP2 ADD PUSH1 0x20 DUP6 LT ISZERO PUSH2 0x18F JUMPI POP DUP1 JUMPDEST PUSH1 0x1F DUP5 ADD PUSH1 0x5 SHR DUP3 ADD SWAP2 POP JUMPDEST DUP2 DUP2 LT ISZERO PUSH2 0x1AE JUMPI PUSH0 DUP2 SSTORE PUSH1 0x1 ADD PUSH2 0x19B JUMP JUMPDEST POP POP JUMPDEST POP POP POP JUMP JUMPDEST DUP2 MLOAD PUSH1 0x1 PUSH1 0x1 PUSH1 0x40 SHL SUB DUP2 GT ISZERO PUSH2 0x1CF JUMPI PUSH2 0x1CF PUSH2 0x11E JUMP JUMPDEST PUSH2 0x1E3 DUP2 PUSH2 0x1DD DUP5 SLOAD PUSH2 0x132 JUMP JUMPDEST DUP5 PUSH2 0x16A JUMP JUMPDEST PUSH1 0x20 DUP1 PUSH1 0x1F DUP4 GT PUSH1 0x1 DUP2 EQ PUSH2 0x216 JUMPI PUSH0 DUP5 ISZERO PUSH2 0x1FF JUMPI POP DUP6 DUP4 ADD MLOAD JUMPDEST PUSH0 NOT PUSH1 0x3 DUP7 SWAP1 SHL SHR NOT AND PUSH1 0x1 DUP6 SWAP1 SHL OR DUP6 SSTORE PUSH2 0x26D JUMP JUMPDEST PUSH0 DUP6 DUP2 MSTORE PUSH1 0x20 DUP2 KECCAK256 PUSH1 0x1F NOT DUP7 AND SWAP2 JUMPDEST DUP3 DUP2 LT ISZERO PUSH2 0x244 JUMPI DUP9 DUP7 ADD MLOAD DUP3 SSTORE SWAP5 DUP5 ADD SWAP5 PUSH1 0x1 SWAP1 SWAP2 ADD SWAP1 DUP5 ADD PUSH2 0x225 JUMP JUMPDEST POP DUP6 DUP3 LT ISZERO PUSH2 0x261 JUMPI DUP8 DUP6 ADD MLOAD PUSH0 NOT PUSH1 0x3 DUP9 SWAP1 SHL PUSH1 0xF8 AND SHR NOT AND DUP2 SSTORE JUMPDEST POP POP PUSH1 0x1 DUP5 PUSH1 0x1 SHL ADD DUP6 SSTORE JUMPDEST POP POP POP POP POP POP JUMP JUMPDEST PUSH2 0x1A32 DUP1 PUSH2 0x282 PUSH0 CODECOPY PUSH0 RETURN INVALID PUSH1 0x80 PUSH1 0x40 MSTORE PUSH1 0x4 CALLDATASIZE LT PUSH2 0x1BA JUMPI PUSH0 CALLDATALOAD PUSH1 0xE0 SHR DUP1 PUSH4 0x6352211E GT PUSH2 0xF2 JUMPI DUP1 PUSH4 0xA0BCFC7F GT PUSH2 0x92 JUMPI DUP1 PUSH4 0xC87B56DD GT PUSH2 0x62 JUMPI DUP1 PUSH4 0xC87B56DD EQ PUSH2 0x536 JUMPI DUP1 PUSH4 0xE985E9C5 EQ PUSH2 0x555 JUMPI DUP1 PUSH4 0xF2FDE38B EQ PUSH2 0x574 JUMPI DUP1 PUSH4 0xFC6F9468 EQ PUSH2 0x593 JUMPI PUSH0 DUP1 REVERT JUMPDEST DUP1 PUSH4 0xA0BCFC7F EQ PUSH2 0x4BA JUMPI DUP1 PUSH4 0xA22CB465 EQ PUSH2 0x4D9 JUMPI DUP1 PUSH4 0xB2733B39 EQ PUSH2 0x4F8 JUMPI DUP1 PUSH4 0xB88D4FDE EQ PUSH2 0x517 JUMPI PUSH0 DUP1 REVERT JUMPDEST DUP1 PUSH4 0x715018A6 GT PUSH2 0xCD JUMPI DUP1 PUSH4 0x715018A6 EQ PUSH2 0x456 JUMPI DUP1 PUSH4 0x7B47EC1A EQ PUSH2 0x46A JUMPI DUP1 PUSH4 0x8DA5CB5B EQ PUSH2 0x489 JUMPI DUP1 PUSH4 0x95D89B41 EQ PUSH2 0x4A6 JUMPI PUSH0 DUP1 REVERT JUMPDEST DUP1 PUSH4 0x6352211E EQ PUSH2 0x3F9 JUMPI DUP1 PUSH4 0x704B6C02 EQ PUSH2 0x418 JUMPI DUP1 PUSH4 0x70A08231 EQ PUSH2 0x437 JUMPI PUSH0 DUP1 REVERT JUMPDEST DUP1 PUSH4 0x1B2EF1CA GT PUSH2 0x15D JUMPI DUP1 PUSH4 0x2D296BF1 GT PUSH2 0x138 JUMPI DUP1 PUSH4 0x2D296BF1 EQ PUSH2 0x389 JUMPI DUP1 PUSH4 0x42421C98 EQ PUSH2 0x39C JUMPI DUP1 PUSH4 0x42842E0E EQ PUSH2 0x3BB JUMPI DUP1 PUSH4 0x59E53F79 EQ PUSH2 0x3DA JUMPI PUSH0 DUP1 REVERT JUMPDEST DUP1 PUSH4 0x1B2EF1CA EQ PUSH2 0x2FA JUMPI DUP1 PUSH4 0x1E24B8B4 EQ PUSH2 0x319 JUMPI DUP1 PUSH4 0x23B872DD EQ PUSH2 0x36A JUMPI PUSH0 DUP1 REVERT JUMPDEST DUP1 PUSH4 0x81812FC GT PUSH2 0x198 JUMPI DUP1 PUSH4 0x81812FC EQ PUSH2 0x24C JUMPI DUP1 PUSH4 0x95EA7B3 EQ PUSH2 0x283 JUMPI DUP1 PUSH4 0xA30C95B EQ PUSH2 0x2A4 JUMPI DUP1 PUSH4 0x150B7A02 EQ PUSH2 0x2B7 JUMPI PUSH0 DUP1 REVERT JUMPDEST DUP1 PUSH4 0x1FFC9A7 EQ PUSH2 0x1BE JUMPI DUP1 PUSH4 0x2EB4B88 EQ PUSH2 0x1F2 JUMPI DUP1 PUSH4 0x6FDDE03 EQ PUSH2 0x22B JUMPI JUMPDEST PUSH0 DUP1 REVERT JUMPDEST CALLVALUE DUP1 ISZERO PUSH2 0x1C9 JUMPI PUSH0 DUP1 REVERT JUMPDEST POP PUSH2 0x1DD PUSH2 0x1D8 CALLDATASIZE PUSH1 0x4 PUSH2 0x153C JUMP JUMPDEST PUSH2 0x5B2 JUMP JUMPDEST PUSH1 0x40 MLOAD SWAP1 ISZERO ISZERO DUP2 MSTORE PUSH1 0x20 ADD JUMPDEST PUSH1 0x40 MLOAD DUP1 SWAP2 SUB SWAP1 RETURN JUMPDEST CALLVALUE DUP1 ISZERO PUSH2 0x1FD JUMPI PUSH0 DUP1 REVERT JUMPDEST POP PUSH2 0x21D PUSH2 0x20C CALLDATASIZE PUSH1 0x4 PUSH2 0x1557 JUMP JUMPDEST PUSH1 0x8 PUSH1 0x20 MSTORE PUSH0 SWAP1 DUP2 MSTORE PUSH1 0x40 SWAP1 KECCAK256 SLOAD DUP2 JUMP JUMPDEST PUSH1 0x40 MLOAD SWAP1 DUP2 MSTORE PUSH1 0x20 ADD PUSH2 0x1E9 JUMP JUMPDEST CALLVALUE DUP1 ISZERO PUSH2 0x236 JUMPI PUSH0 DUP1 REVERT JUMPDEST POP PUSH2 0x23F PUSH2 0x603 JUMP JUMPDEST PUSH1 0x40 MLOAD PUSH2 0x1E9 SWAP2 SWAP1 PUSH2 0x159C JUMP JUMPDEST CALLVALUE DUP1 ISZERO PUSH2 0x257 JUMPI PUSH0 DUP1 REVERT JUMPDEST POP PUSH2 0x26B PUSH2 0x266 CALLDATASIZE PUSH1 0x4 PUSH2 0x1557 JUMP JUMPDEST PUSH2 0x692 JUMP JUMPDEST PUSH1 0x40 MLOAD PUSH1 0x1 PUSH1 0x1 PUSH1 0xA0 SHL SUB SWAP1 SWAP2 AND DUP2 MSTORE PUSH1 0x20 ADD PUSH2 0x1E9 JUMP JUMPDEST CALLVALUE DUP1 ISZERO PUSH2 0x28E JUMPI PUSH0 DUP1 REVERT JUMPDEST POP PUSH2 0x2A2 PUSH2 0x29D CALLDATASIZE PUSH1 0x4 PUSH2 0x15C9 JUMP JUMPDEST PUSH2 0x6B9 JUMP JUMPDEST STOP JUMPDEST PUSH2 0x2A2 PUSH2 0x2B2 CALLDATASIZE PUSH1 0x4 PUSH2 0x1557 JUMP JUMPDEST PUSH2 0x6C8 JUMP JUMPDEST CALLVALUE DUP1 ISZERO PUSH2 0x2C2 JUMPI PUSH0 DUP1 REVERT JUMPDEST POP PUSH2 0x2E1 PUSH2 0x2D1 CALLDATASIZE PUSH1 0x4 PUSH2 0x1678 JUMP JUMPDEST PUSH4 0xA85BD01 PUSH1 0xE1 SHL SWAP5 SWAP4 POP POP POP POP JUMP JUMPDEST PUSH1 0x40 MLOAD PUSH1 0x1 PUSH1 0x1 PUSH1 0xE0 SHL SUB NOT SWAP1 SWAP2 AND DUP2 MSTORE PUSH1 0x20 ADD PUSH2 0x1E9 JUMP JUMPDEST CALLVALUE DUP1 ISZERO PUSH2 0x305 JUMPI PUSH0 DUP1 REVERT JUMPDEST POP PUSH2 0x2A2 PUSH2 0x314 CALLDATASIZE PUSH1 0x4 PUSH2 0x16EF JUMP JUMPDEST PUSH2 0x81E JUMP JUMPDEST CALLVALUE DUP1 ISZERO PUSH2 0x324 JUMPI PUSH0 DUP1 REVERT JUMPDEST POP PUSH2 0x35B PUSH2 0x333 CALLDATASIZE PUSH1 0x4 PUSH2 0x1557 JUMP JUMPDEST PUSH1 0x40 DUP1 MLOAD PUSH1 0x20 DUP1 DUP3 ADD DUP4 MSTORE PUSH0 SWAP2 DUP3 SWAP1 MSTORE SWAP3 DUP2 MSTORE PUSH1 0x8 DUP4 MSTORE DUP2 SWAP1 KECCAK256 DUP2 MLOAD SWAP3 DUP4 ADD SWAP1 SWAP2 MSTORE SLOAD DUP2 MSTORE SWAP1 JUMP JUMPDEST PUSH1 0x40 MLOAD SWAP1 MLOAD DUP2 MSTORE PUSH1 0x20 ADD PUSH2 0x1E9 JUMP JUMPDEST CALLVALUE DUP1 ISZERO PUSH2 0x375 JUMPI PUSH0 DUP1 REVERT JUMPDEST POP PUSH2 0x2A2 PUSH2 0x384 CALLDATASIZE PUSH1 0x4 PUSH2 0x170F JUMP JUMPDEST PUSH2 0x873 JUMP JUMPDEST PUSH2 0x2A2 PUSH2 0x397 CALLDATASIZE PUSH1 0x4 PUSH2 0x1557 JUMP JUMPDEST PUSH2 0x8FC JUMP JUMPDEST CALLVALUE DUP1 ISZERO PUSH2 0x3A7 JUMPI PUSH0 DUP1 REVERT JUMPDEST POP PUSH2 0x2A2 PUSH2 0x3B6 CALLDATASIZE PUSH1 0x4 PUSH2 0x16EF JUMP JUMPDEST PUSH2 0x9A4 JUMP JUMPDEST CALLVALUE DUP1 ISZERO PUSH2 0x3C6 JUMPI PUSH0 DUP1 REVERT JUMPDEST POP PUSH2 0x2A2 PUSH2 0x3D5 CALLDATASIZE PUSH1 0x4 PUSH2 0x170F JUMP JUMPDEST PUSH2 0xA85 JUMP JUMPDEST CALLVALUE DUP1 ISZERO PUSH2 0x3E5 JUMPI PUSH0 DUP1 REVERT JUMPDEST POP PUSH2 0x2A2 PUSH2 0x3F4 CALLDATASIZE PUSH1 0x4 PUSH2 0x1748 JUMP JUMPDEST PUSH2 0xAA4 JUMP JUMPDEST CALLVALUE DUP1 ISZERO PUSH2 0x404 JUMPI PUSH0 DUP1 REVERT JUMPDEST POP PUSH2 0x26B PUSH2 0x413 CALLDATASIZE PUSH1 0x4 PUSH2 0x1557 JUMP JUMPDEST PUSH2 0xB04 JUMP JUMPDEST CALLVALUE DUP1 ISZERO PUSH2 0x423 JUMPI PUSH0 DUP1 REVERT JUMPDEST POP PUSH2 0x2A2 PUSH2 0x432 CALLDATASIZE PUSH1 0x4 PUSH2 0x177A JUMP JUMPDEST PUSH2 0xB0E JUMP JUMPDEST CALLVALUE DUP1 ISZERO PUSH2 0x442 JUMPI PUSH0 DUP1 REVERT JUMPDEST POP PUSH2 0x21D PUSH2 0x451 CALLDATASIZE PUSH1 0x4 PUSH2 0x177A JUMP JUMPDEST PUSH2 0xB8E JUMP JUMPDEST CALLVALUE DUP1 ISZERO PUSH2 0x461 JUMPI PUSH0 DUP1 REVERT JUMPDEST POP PUSH2 0x2A2 PUSH2 0xBD3 JUMP JUMPDEST CALLVALUE DUP1 ISZERO PUSH2 0x475 JUMPI PUSH0 DUP1 REVERT JUMPDEST POP PUSH2 0x2A2 PUSH2 0x484 CALLDATASIZE PUSH1 0x4 PUSH2 0x1557 JUMP JUMPDEST PUSH2 0xBE6 JUMP JUMPDEST CALLVALUE DUP1 ISZERO PUSH2 0x494 JUMPI PUSH0 DUP1 REVERT JUMPDEST POP PUSH1 0x6 SLOAD PUSH1 0x1 PUSH1 0x1 PUSH1 0xA0 SHL SUB AND PUSH2 0x26B JUMP JUMPDEST CALLVALUE DUP1 ISZERO PUSH2 0x4B1 JUMPI PUSH0 DUP1 REVERT JUMPDEST POP PUSH2 0x23F PUSH2 0xC53 JUMP JUMPDEST CALLVALUE DUP1 ISZERO PUSH2 0x4C5 JUMPI PUSH0 DUP1 REVERT JUMPDEST POP PUSH2 0x2A2 PUSH2 0x4D4 CALLDATASIZE PUSH1 0x4 PUSH2 0x1793 JUMP JUMPDEST PUSH2 0xC62 JUMP JUMPDEST CALLVALUE DUP1 ISZERO PUSH2 0x4E4 JUMPI PUSH0 DUP1 REVERT JUMPDEST POP PUSH2 0x2A2 PUSH2 0x4F3 CALLDATASIZE PUSH1 0x4 PUSH2 0x17D8 JUMP JUMPDEST PUSH2 0xC76 JUMP JUMPDEST CALLVALUE DUP1 ISZERO PUSH2 0x503 JUMPI PUSH0 DUP1 REVERT JUMPDEST POP PUSH2 0x2A2 PUSH2 0x512 CALLDATASIZE PUSH1 0x4 PUSH2 0x16EF JUMP JUMPDEST PUSH2 0xC81 JUMP JUMPDEST CALLVALUE DUP1 ISZERO PUSH2 0x522 JUMPI PUSH0 DUP1 REVERT JUMPDEST POP PUSH2 0x2A2 PUSH2 0x531 CALLDATASIZE PUSH1 0x4 PUSH2 0x1678 JUMP JUMPDEST PUSH2 0xCF4 JUMP JUMPDEST CALLVALUE DUP1 ISZERO PUSH2 0x541 JUMPI PUSH0 DUP1 REVERT JUMPDEST POP PUSH2 0x23F PUSH2 0x550 CALLDATASIZE PUSH1 0x4 PUSH2 0x1557 JUMP JUMPDEST PUSH2 0xD0B JUMP JUMPDEST CALLVALUE DUP1 ISZERO PUSH2 0x560 JUMPI PUSH0 DUP1 REVERT JUMPDEST POP PUSH2 0x1DD PUSH2 0x56F CALLDATASIZE PUSH1 0x4 PUSH2 0x1811 JUMP JUMPDEST PUSH2 0xD70 JUMP JUMPDEST CALLVALUE DUP1 ISZERO PUSH2 0x57F JUMPI PUSH0 DUP1 REVERT JUMPDEST POP PUSH2 0x2A2 PUSH2 0x58E CALLDATASIZE PUSH1 0x4 PUSH2 0x177A JUMP JUMPDEST PUSH2 0xD9D JUMP JUMPDEST CALLVALUE DUP1 ISZERO PUSH2 0x59E JUMPI PUSH0 DUP1 REVERT JUMPDEST POP PUSH1 0x9 SLOAD PUSH2 0x26B SWAP1 PUSH1 0x1 PUSH1 0x1 PUSH1 0xA0 SHL SUB AND DUP2 JUMP JUMPDEST PUSH0 PUSH1 0x1 PUSH1 0x1 PUSH1 0xE0 SHL SUB NOT DUP3 AND PUSH4 0x80AC58CD PUSH1 0xE0 SHL EQ DUP1 PUSH2 0x5E2 JUMPI POP PUSH1 0x1 PUSH1 0x1 PUSH1 0xE0 SHL SUB NOT DUP3 AND PUSH4 0x5B5E139F PUSH1 0xE0 SHL EQ JUMPDEST DUP1 PUSH2 0x5FD JUMPI POP PUSH4 0x1FFC9A7 PUSH1 0xE0 SHL PUSH1 0x1 PUSH1 0x1 PUSH1 0xE0 SHL SUB NOT DUP4 AND EQ JUMPDEST SWAP3 SWAP2 POP POP JUMP JUMPDEST PUSH1 0x60 PUSH0 DUP1 SLOAD PUSH2 0x611 SWAP1 PUSH2 0x1842 JUMP JUMPDEST DUP1 PUSH1 0x1F ADD PUSH1 0x20 DUP1 SWAP2 DIV MUL PUSH1 0x20 ADD PUSH1 0x40 MLOAD SWAP1 DUP2 ADD PUSH1 0x40 MSTORE DUP1 SWAP3 SWAP2 SWAP1 DUP2 DUP2 MSTORE PUSH1 0x20 ADD DUP3 DUP1 SLOAD PUSH2 0x63D SWAP1 PUSH2 0x1842 JUMP JUMPDEST DUP1 ISZERO PUSH2 0x688 JUMPI DUP1 PUSH1 0x1F LT PUSH2 0x65F JUMPI PUSH2 0x100 DUP1 DUP4 SLOAD DIV MUL DUP4 MSTORE SWAP2 PUSH1 0x20 ADD SWAP2 PUSH2 0x688 JUMP JUMPDEST DUP3 ADD SWAP2 SWAP1 PUSH0 MSTORE PUSH1 0x20 PUSH0 KECCAK256 SWAP1 JUMPDEST DUP2 SLOAD DUP2 MSTORE SWAP1 PUSH1 0x1 ADD SWAP1 PUSH1 0x20 ADD DUP1 DUP4 GT PUSH2 0x66B JUMPI DUP3 SWAP1 SUB PUSH1 0x1F AND DUP3 ADD SWAP2 JUMPDEST POP POP POP POP POP SWAP1 POP SWAP1 JUMP JUMPDEST PUSH0 PUSH2 0x69C DUP3 PUSH2 0xDDA JUMP JUMPDEST POP PUSH0 DUP3 DUP2 MSTORE PUSH1 0x4 PUSH1 0x20 MSTORE PUSH1 0x40 SWAP1 KECCAK256 SLOAD PUSH1 0x1 PUSH1 0x1 PUSH1 0xA0 SHL SUB AND PUSH2 0x5FD JUMP JUMPDEST PUSH2 0x6C4 DUP3 DUP3 CALLER PUSH2 0xE12 JUMP JUMPDEST POP POP JUMP JUMPDEST PUSH0 DUP2 DUP2 MSTORE PUSH1 0x8 PUSH1 0x20 MSTORE PUSH1 0x40 SWAP1 KECCAK256 SLOAD PUSH2 0x727 JUMPI PUSH1 0x40 MLOAD PUSH3 0x461BCD PUSH1 0xE5 SHL DUP2 MSTORE PUSH1 0x20 PUSH1 0x4 DUP3 ADD MSTORE PUSH1 0x17 PUSH1 0x24 DUP3 ADD MSTORE PUSH32 0x4E4654206E6F74206C697374656420666F722073616C65000000000000000000 PUSH1 0x44 DUP3 ADD MSTORE PUSH1 0x64 ADD JUMPDEST PUSH1 0x40 MLOAD DUP1 SWAP2 SUB SWAP1 REVERT JUMPDEST PUSH0 PUSH2 0x731 DUP3 PUSH2 0xB04 JUMP JUMPDEST PUSH0 DUP4 DUP2 MSTORE PUSH1 0x8 PUSH1 0x20 MSTORE PUSH1 0x40 SWAP1 KECCAK256 SLOAD SWAP1 SWAP2 POP CALLVALUE LT ISZERO PUSH2 0x786 JUMPI PUSH1 0x40 MLOAD PUSH3 0x461BCD PUSH1 0xE5 SHL DUP2 MSTORE PUSH1 0x20 PUSH1 0x4 DUP3 ADD MSTORE PUSH1 0x12 PUSH1 0x24 DUP3 ADD MSTORE PUSH18 0x496E73756666696369656E742066756E6473 PUSH1 0x70 SHL PUSH1 0x44 DUP3 ADD MSTORE PUSH1 0x64 ADD PUSH2 0x71E JUMP JUMPDEST PUSH1 0x40 MLOAD PUSH1 0x1 PUSH1 0x1 PUSH1 0xA0 SHL SUB DUP3 AND SWAP1 CALLVALUE DUP1 ISZERO PUSH2 0x8FC MUL SWAP2 PUSH0 DUP2 DUP2 DUP2 DUP6 DUP9 DUP9 CALL SWAP4 POP POP POP POP ISZERO DUP1 ISZERO PUSH2 0x7B8 JUMPI RETURNDATASIZE PUSH0 DUP1 RETURNDATACOPY RETURNDATASIZE PUSH0 REVERT JUMPDEST POP PUSH1 0x40 MLOAD PUSH4 0x23B872DD PUSH1 0xE0 SHL DUP2 MSTORE PUSH1 0x1 PUSH1 0x1 PUSH1 0xA0 SHL SUB DUP3 AND PUSH1 0x4 DUP3 ADD MSTORE CALLER PUSH1 0x24 DUP3 ADD MSTORE PUSH1 0x44 DUP2 ADD DUP4 SWAP1 MSTORE ADDRESS SWAP1 PUSH4 0x23B872DD SWAP1 PUSH1 0x64 ADD PUSH0 PUSH1 0x40 MLOAD DUP1 DUP4 SUB DUP2 PUSH0 DUP8 DUP1 EXTCODESIZE ISZERO DUP1 ISZERO PUSH2 0x804 JUMPI PUSH0 DUP1 REVERT JUMPDEST POP GAS CALL ISZERO DUP1 ISZERO PUSH2 0x816 JUMPI RETURNDATASIZE PUSH0 DUP1 RETURNDATACOPY RETURNDATASIZE PUSH0 REVERT JUMPDEST POP POP POP POP POP POP JUMP JUMPDEST PUSH0 DUP2 GT PUSH2 0x859 JUMPI PUSH1 0x40 MLOAD PUSH3 0x461BCD PUSH1 0xE5 SHL DUP2 MSTORE PUSH1 0x20 PUSH1 0x4 DUP3 ADD MSTORE PUSH1 0x9 PUSH1 0x24 DUP3 ADD MSTORE PUSH9 0x6572726F72206D7367 PUSH1 0xB8 SHL PUSH1 0x44 DUP3 ADD MSTORE PUSH1 0x64 ADD PUSH2 0x71E JUMP JUMPDEST PUSH0 DUP3 DUP2 MSTORE PUSH1 0x8 PUSH1 0x20 MSTORE PUSH1 0x40 SWAP1 KECCAK256 DUP2 SWAP1 SSTORE PUSH2 0x6C4 ADDRESS DUP4 PUSH2 0xE1F JUMP JUMPDEST PUSH1 0x1 PUSH1 0x1 PUSH1 0xA0 SHL SUB DUP3 AND PUSH2 0x89C JUMPI PUSH1 0x40 MLOAD PUSH4 0x32505749 PUSH1 0xE1 SHL DUP2 MSTORE PUSH0 PUSH1 0x4 DUP3 ADD MSTORE PUSH1 0x24 ADD PUSH2 0x71E JUMP JUMPDEST PUSH0 PUSH2 0x8A8 DUP4 DUP4 CALLER PUSH2 0xE80 JUMP JUMPDEST SWAP1 POP DUP4 PUSH1 0x1 PUSH1 0x1 PUSH1 0xA0 SHL SUB AND DUP2 PUSH1 0x1 PUSH1 0x1 PUSH1 0xA0 SHL SUB AND EQ PUSH2 0x8F6 JUMPI PUSH1 0x40 MLOAD PUSH4 0x64283D7B PUSH1 0xE0 SHL DUP2 MSTORE PUSH1 0x1 PUSH1 0x1 PUSH1 0xA0 SHL SUB DUP1 DUP7 AND PUSH1 0x4 DUP4 ADD MSTORE PUSH1 0x24 DUP3 ADD DUP5 SWAP1 MSTORE DUP3 AND PUSH1 0x44 DUP3 ADD MSTORE PUSH1 0x64 ADD PUSH2 0x71E JUMP JUMPDEST POP POP POP POP JUMP JUMPDEST PUSH0 DUP2 DUP2 MSTORE PUSH1 0x8 PUSH1 0x20 MSTORE PUSH1 0x40 SWAP1 KECCAK256 SLOAD CALLVALUE EQ PUSH2 0x948 JUMPI PUSH1 0x40 MLOAD PUSH3 0x461BCD PUSH1 0xE5 SHL DUP2 MSTORE PUSH1 0x20 PUSH1 0x4 DUP3 ADD MSTORE PUSH1 0xD PUSH1 0x24 DUP3 ADD MSTORE PUSH13 0x496E76616C6964205072696365 PUSH1 0x98 SHL PUSH1 0x44 DUP3 ADD MSTORE PUSH1 0x64 ADD PUSH2 0x71E JUMP JUMPDEST PUSH1 0x40 MLOAD PUSH4 0x23B872DD PUSH1 0xE0 SHL DUP2 MSTORE ADDRESS PUSH1 0x4 DUP3 ADD DUP2 SWAP1 MSTORE CALLER PUSH1 0x24 DUP4 ADD MSTORE PUSH1 0x44 DUP3 ADD DUP4 SWAP1 MSTORE SWAP1 PUSH4 0x23B872DD SWAP1 PUSH1 0x64 ADD PUSH0 PUSH1 0x40 MLOAD DUP1 DUP4 SUB DUP2 PUSH0 DUP8 DUP1 EXTCODESIZE ISZERO DUP1 ISZERO PUSH2 0x98B JUMPI PUSH0 DUP1 REVERT JUMPDEST POP GAS CALL ISZERO DUP1 ISZERO PUSH2 0x99D JUMPI RETURNDATASIZE PUSH0 DUP1 RETURNDATACOPY RETURNDATASIZE PUSH0 REVERT JUMPDEST POP POP POP POP POP JUMP JUMPDEST CALLER PUSH0 PUSH2 0x9AF DUP5 PUSH2 0xB04 JUMP JUMPDEST SWAP1 POP DUP2 PUSH1 0x1 PUSH1 0x1 PUSH1 0xA0 SHL SUB AND DUP2 PUSH1 0x1 PUSH1 0x1 PUSH1 0xA0 SHL SUB AND EQ PUSH2 0xA12 JUMPI PUSH1 0x40 MLOAD PUSH3 0x461BCD PUSH1 0xE5 SHL DUP2 MSTORE PUSH1 0x20 PUSH1 0x4 DUP3 ADD MSTORE PUSH1 0x1C PUSH1 0x24 DUP3 ADD MSTORE PUSH32 0x596F7520646F6E2774206F776E207468652073656E7420746F6B656E00000000 PUSH1 0x44 DUP3 ADD MSTORE PUSH1 0x64 ADD PUSH2 0x71E JUMP JUMPDEST PUSH2 0xA1D DUP3 ADDRESS DUP7 PUSH2 0x873 JUMP JUMPDEST PUSH1 0x40 MLOAD PUSH4 0x23B872DD PUSH1 0xE0 SHL DUP2 MSTORE ADDRESS PUSH1 0x4 DUP3 ADD DUP2 SWAP1 MSTORE PUSH1 0x1 PUSH1 0x1 PUSH1 0xA0 SHL SUB DUP5 AND PUSH1 0x24 DUP4 ADD MSTORE PUSH1 0x44 DUP3 ADD DUP6 SWAP1 MSTORE SWAP1 PUSH4 0x23B872DD SWAP1 PUSH1 0x64 ADD PUSH0 PUSH1 0x40 MLOAD DUP1 DUP4 SUB DUP2 PUSH0 DUP8 DUP1 EXTCODESIZE ISZERO DUP1 ISZERO PUSH2 0xA69 JUMPI PUSH0 DUP1 REVERT JUMPDEST POP GAS CALL ISZERO DUP1 ISZERO PUSH2 0xA7B JUMPI RETURNDATASIZE PUSH0 DUP1 RETURNDATACOPY RETURNDATASIZE PUSH0 REVERT JUMPDEST POP POP POP POP POP POP POP POP JUMP JUMPDEST PUSH2 0xA9F DUP4 DUP4 DUP4 PUSH1 0x40 MLOAD DUP1 PUSH1 0x20 ADD PUSH1 0x40 MSTORE DUP1 PUSH0 DUP2 MSTORE POP PUSH2 0xCF4 JUMP JUMPDEST POP POP POP JUMP JUMPDEST PUSH0 DUP3 GT PUSH2 0xADF JUMPI PUSH1 0x40 MLOAD PUSH3 0x461BCD PUSH1 0xE5 SHL DUP2 MSTORE PUSH1 0x20 PUSH1 0x4 DUP3 ADD MSTORE PUSH1 0x9 PUSH1 0x24 DUP3 ADD MSTORE PUSH9 0x6572726F72206D7367 PUSH1 0xB8 SHL PUSH1 0x44 DUP3 ADD MSTORE PUSH1 0x64 ADD PUSH2 0x71E JUMP JUMPDEST PUSH0 DUP4 DUP2 MSTORE PUSH1 0x8 PUSH1 0x20 MSTORE PUSH1 0x40 SWAP1 KECCAK256 DUP3 SWAP1 SSTORE PUSH2 0xAF9 DUP2 DUP5 PUSH2 0xE1F JUMP JUMPDEST PUSH2 0xA9F PUSH1 0x1 DUP1 PUSH2 0xC76 JUMP JUMPDEST PUSH0 PUSH2 0x5FD DUP3 PUSH2 0xDDA JUMP JUMPDEST PUSH2 0xB16 PUSH2 0xF72 JUMP JUMPDEST PUSH1 0x1 PUSH1 0x1 PUSH1 0xA0 SHL SUB DUP2 AND PUSH2 0xB6C JUMPI PUSH1 0x40 MLOAD PUSH3 0x461BCD PUSH1 0xE5 SHL DUP2 MSTORE PUSH1 0x20 PUSH1 0x4 DUP3 ADD MSTORE PUSH1 0x18 PUSH1 0x24 DUP3 ADD MSTORE PUSH32 0x6E756C6C2061646472657373206E6F7420616C6C6F7765640000000000000000 PUSH1 0x44 DUP3 ADD MSTORE PUSH1 0x64 ADD PUSH2 0x71E JUMP JUMPDEST PUSH1 0x9 DUP1 SLOAD PUSH1 0x1 PUSH1 0x1 PUSH1 0xA0 SHL SUB NOT AND PUSH1 0x1 PUSH1 0x1 PUSH1 0xA0 SHL SUB SWAP3 SWAP1 SWAP3 AND SWAP2 SWAP1 SWAP2 OR SWAP1 SSTORE JUMP JUMPDEST PUSH0 PUSH1 0x1 PUSH1 0x1 PUSH1 0xA0 SHL SUB DUP3 AND PUSH2 0xBB8 JUMPI PUSH1 0x40 MLOAD PUSH4 0x22718AD9 PUSH1 0xE2 SHL DUP2 MSTORE PUSH0 PUSH1 0x4 DUP3 ADD MSTORE PUSH1 0x24 ADD PUSH2 0x71E JUMP JUMPDEST POP PUSH1 0x1 PUSH1 0x1 PUSH1 0xA0 SHL SUB AND PUSH0 SWAP1 DUP2 MSTORE PUSH1 0x3 PUSH1 0x20 MSTORE PUSH1 0x40 SWAP1 KECCAK256 SLOAD SWAP1 JUMP JUMPDEST PUSH2 0xBDB PUSH2 0xF72 JUMP JUMPDEST PUSH2 0xBE4 PUSH0 PUSH2 0xF9F JUMP JUMPDEST JUMP JUMPDEST PUSH0 PUSH2 0xBF0 DUP3 PUSH2 0xB04 JUMP JUMPDEST SWAP1 POP PUSH1 0x1 PUSH1 0x1 PUSH1 0xA0 SHL SUB DUP2 AND CALLER EQ PUSH2 0xC4A JUMPI PUSH1 0x40 MLOAD PUSH3 0x461BCD PUSH1 0xE5 SHL DUP2 MSTORE PUSH1 0x20 PUSH1 0x4 DUP3 ADD MSTORE PUSH1 0x19 PUSH1 0x24 DUP3 ADD MSTORE PUSH32 0x4F6E6C79206F776E65722063616E206275726E20546F6B656E00000000000000 PUSH1 0x44 DUP3 ADD MSTORE PUSH1 0x64 ADD PUSH2 0x71E JUMP JUMPDEST PUSH2 0x6C4 DUP3 PUSH2 0xFF0 JUMP JUMPDEST PUSH1 0x60 PUSH1 0x1 DUP1 SLOAD PUSH2 0x611 SWAP1 PUSH2 0x1842 JUMP JUMPDEST PUSH2 0xC6A PUSH2 0xF72 JUMP JUMPDEST PUSH1 0x7 PUSH2 0x6C4 DUP3 DUP3 PUSH2 0x18BE JUMP JUMPDEST PUSH2 0x6C4 CALLER DUP4 DUP4 PUSH2 0x1028 JUMP JUMPDEST CALLER PUSH2 0xC8B DUP4 PUSH2 0xB04 JUMP JUMPDEST PUSH1 0x1 PUSH1 0x1 PUSH1 0xA0 SHL SUB AND EQ PUSH2 0xCDA JUMPI PUSH1 0x40 MLOAD PUSH3 0x461BCD PUSH1 0xE5 SHL DUP2 MSTORE PUSH1 0x20 PUSH1 0x4 DUP3 ADD MSTORE PUSH1 0x16 PUSH1 0x24 DUP3 ADD MSTORE PUSH22 0x165BDD48191BDB89DD081BDDDB881D1A1A5CC8139195 PUSH1 0x52 SHL PUSH1 0x44 DUP3 ADD MSTORE PUSH1 0x64 ADD PUSH2 0x71E JUMP JUMPDEST PUSH0 DUP3 DUP2 MSTORE PUSH1 0x8 PUSH1 0x20 MSTORE PUSH1 0x40 SWAP1 KECCAK256 DUP2 SWAP1 SSTORE PUSH2 0x6C4 ADDRESS DUP4 PUSH2 0x6B9 JUMP JUMPDEST PUSH2 0xCFF DUP5 DUP5 DUP5 PUSH2 0x873 JUMP JUMPDEST PUSH2 0x8F6 DUP5 DUP5 DUP5 DUP5 PUSH2 0x10C6 JUMP JUMPDEST PUSH1 0x60 PUSH2 0xD16 DUP3 PUSH2 0xDDA JUMP JUMPDEST POP PUSH0 PUSH2 0xD20 PUSH2 0x11E5 JUMP JUMPDEST SWAP1 POP PUSH0 DUP2 MLOAD GT PUSH2 0xD3E JUMPI PUSH1 0x40 MLOAD DUP1 PUSH1 0x20 ADD PUSH1 0x40 MSTORE DUP1 PUSH0 DUP2 MSTORE POP PUSH2 0xD69 JUMP JUMPDEST DUP1 PUSH2 0xD48 DUP5 PUSH2 0x11F4 JUMP JUMPDEST PUSH1 0x40 MLOAD PUSH1 0x20 ADD PUSH2 0xD59 SWAP3 SWAP2 SWAP1 PUSH2 0x1991 JUMP JUMPDEST PUSH1 0x40 MLOAD PUSH1 0x20 DUP2 DUP4 SUB SUB DUP2 MSTORE SWAP1 PUSH1 0x40 MSTORE JUMPDEST SWAP4 SWAP3 POP POP POP JUMP JUMPDEST PUSH1 0x1 PUSH1 0x1 PUSH1 0xA0 SHL SUB SWAP2 DUP3 AND PUSH0 SWAP1 DUP2 MSTORE PUSH1 0x5 PUSH1 0x20 SWAP1 DUP2 MSTORE PUSH1 0x40 DUP1 DUP4 KECCAK256 SWAP4 SWAP1 SWAP5 AND DUP3 MSTORE SWAP2 SWAP1 SWAP2 MSTORE KECCAK256 SLOAD PUSH1 0xFF AND SWAP1 JUMP JUMPDEST PUSH2 0xDA5 PUSH2 0xF72 JUMP JUMPDEST PUSH1 0x1 PUSH1 0x1 PUSH1 0xA0 SHL SUB DUP2 AND PUSH2 0xDCE JUMPI PUSH1 0x40 MLOAD PUSH4 0x1E4FBDF7 PUSH1 0xE0 SHL DUP2 MSTORE PUSH0 PUSH1 0x4 DUP3 ADD MSTORE PUSH1 0x24 ADD PUSH2 0x71E JUMP JUMPDEST PUSH2 0xDD7 DUP2 PUSH2 0xF9F JUMP JUMPDEST POP JUMP JUMPDEST PUSH0 DUP2 DUP2 MSTORE PUSH1 0x2 PUSH1 0x20 MSTORE PUSH1 0x40 DUP2 KECCAK256 SLOAD PUSH1 0x1 PUSH1 0x1 PUSH1 0xA0 SHL SUB AND DUP1 PUSH2 0x5FD JUMPI PUSH1 0x40 MLOAD PUSH4 0x7E273289 PUSH1 0xE0 SHL DUP2 MSTORE PUSH1 0x4 DUP2 ADD DUP5 SWAP1 MSTORE PUSH1 0x24 ADD PUSH2 0x71E JUMP JUMPDEST PUSH2 0xA9F DUP4 DUP4 DUP4 PUSH1 0x1 PUSH2 0x1284 JUMP JUMPDEST PUSH1 0x1 PUSH1 0x1 PUSH1 0xA0 SHL SUB DUP3 AND PUSH2 0xE48 JUMPI PUSH1 0x40 MLOAD PUSH4 0x32505749 PUSH1 0xE1 SHL DUP2 MSTORE PUSH0 PUSH1 0x4 DUP3 ADD MSTORE PUSH1 0x24 ADD PUSH2 0x71E JUMP JUMPDEST PUSH0 PUSH2 0xE54 DUP4 DUP4 PUSH0 PUSH2 0xE80 JUMP JUMPDEST SWAP1 POP PUSH1 0x1 PUSH1 0x1 PUSH1 0xA0 SHL SUB DUP2 AND ISZERO PUSH2 0xA9F JUMPI PUSH1 0x40 MLOAD PUSH4 0x39E35637 PUSH1 0xE1 SHL DUP2 MSTORE PUSH0 PUSH1 0x4 DUP3 ADD MSTORE PUSH1 0x24 ADD PUSH2 0x71E JUMP JUMPDEST PUSH0 DUP3 DUP2 MSTORE PUSH1 0x2 PUSH1 0x20 MSTORE PUSH1 0x40 DUP2 KECCAK256 SLOAD PUSH1 0x1 PUSH1 0x1 PUSH1 0xA0 SHL SUB SWAP1 DUP2 AND SWAP1 DUP4 AND ISZERO PUSH2 0xEAC JUMPI PUSH2 0xEAC DUP2 DUP5 DUP7 PUSH2 0x1388 JUMP JUMPDEST PUSH1 0x1 PUSH1 0x1 PUSH1 0xA0 SHL SUB DUP2 AND ISZERO PUSH2 0xEE6 JUMPI PUSH2 0xEC7 PUSH0 DUP6 PUSH0 DUP1 PUSH2 0x1284 JUMP JUMPDEST PUSH1 0x1 PUSH1 0x1 PUSH1 0xA0 SHL SUB DUP2 AND PUSH0 SWAP1 DUP2 MSTORE PUSH1 0x3 PUSH1 0x20 MSTORE PUSH1 0x40 SWAP1 KECCAK256 DUP1 SLOAD PUSH0 NOT ADD SWAP1 SSTORE JUMPDEST PUSH1 0x1 PUSH1 0x1 PUSH1 0xA0 SHL SUB DUP6 AND ISZERO PUSH2 0xF14 JUMPI PUSH1 0x1 PUSH1 0x1 PUSH1 0xA0 SHL SUB DUP6 AND PUSH0 SWAP1 DUP2 MSTORE PUSH1 0x3 PUSH1 0x20 MSTORE PUSH1 0x40 SWAP1 KECCAK256 DUP1 SLOAD PUSH1 0x1 ADD SWAP1 SSTORE JUMPDEST PUSH0 DUP5 DUP2 MSTORE PUSH1 0x2 PUSH1 0x20 MSTORE PUSH1 0x40 DUP1 DUP3 KECCAK256 DUP1 SLOAD PUSH1 0x1 PUSH1 0x1 PUSH1 0xA0 SHL SUB NOT AND PUSH1 0x1 PUSH1 0x1 PUSH1 0xA0 SHL SUB DUP10 DUP2 AND SWAP2 DUP3 OR SWAP1 SWAP3 SSTORE SWAP2 MLOAD DUP8 SWAP4 SWAP2 DUP6 AND SWAP2 PUSH32 0xDDF252AD1BE2C89B69C2B068FC378DAA952BA7F163C4A11628F55A4DF523B3EF SWAP2 LOG4 SWAP5 SWAP4 POP POP POP POP JUMP JUMPDEST PUSH1 0x6 SLOAD PUSH1 0x1 PUSH1 0x1 PUSH1 0xA0 SHL SUB AND CALLER EQ PUSH2 0xBE4 JUMPI PUSH1 0x40 MLOAD PUSH4 0x118CDAA7 PUSH1 0xE0 SHL DUP2 MSTORE CALLER PUSH1 0x4 DUP3 ADD MSTORE PUSH1 0x24 ADD PUSH2 0x71E JUMP JUMPDEST PUSH1 0x6 DUP1 SLOAD PUSH1 0x1 PUSH1 0x1 PUSH1 0xA0 SHL SUB DUP4 DUP2 AND PUSH1 0x1 PUSH1 0x1 PUSH1 0xA0 SHL SUB NOT DUP4 AND DUP2 OR SWAP1 SWAP4 SSTORE PUSH1 0x40 MLOAD SWAP2 AND SWAP2 SWAP1 DUP3 SWAP1 PUSH32 0x8BE0079C531659141344CD1FD0A4F28419497F9722A3DAAFE3B4186F6B6457E0 SWAP1 PUSH0 SWAP1 LOG3 POP POP JUMP JUMPDEST PUSH0 PUSH2 0xFFC PUSH0 DUP4 PUSH0 PUSH2 0xE80 JUMP JUMPDEST SWAP1 POP PUSH1 0x1 PUSH1 0x1 PUSH1 0xA0 SHL SUB DUP2 AND PUSH2 0x6C4 JUMPI PUSH1 0x40 MLOAD PUSH4 0x7E273289 PUSH1 0xE0 SHL DUP2 MSTORE PUSH1 0x4 DUP2 ADD DUP4 SWAP1 MSTORE PUSH1 0x24 ADD PUSH2 0x71E JUMP JUMPDEST PUSH1 0x1 PUSH1 0x1 PUSH1 0xA0 SHL SUB DUP3 AND PUSH2 0x105A JUMPI PUSH1 0x40 MLOAD PUSH4 0xB611743 PUSH1 0xE3 SHL DUP2 MSTORE PUSH1 0x1 PUSH1 0x1 PUSH1 0xA0 SHL SUB DUP4 AND PUSH1 0x4 DUP3 ADD MSTORE PUSH1 0x24 ADD PUSH2 0x71E JUMP JUMPDEST PUSH1 0x1 PUSH1 0x1 PUSH1 0xA0 SHL SUB DUP4 DUP2 AND PUSH0 DUP2 DUP2 MSTORE PUSH1 0x5 PUSH1 0x20 SWAP1 DUP2 MSTORE PUSH1 0x40 DUP1 DUP4 KECCAK256 SWAP5 DUP8 AND DUP1 DUP5 MSTORE SWAP5 DUP3 MSTORE SWAP2 DUP3 SWAP1 KECCAK256 DUP1 SLOAD PUSH1 0xFF NOT AND DUP7 ISZERO ISZERO SWAP1 DUP2 OR SWAP1 SWAP2 SSTORE SWAP2 MLOAD SWAP2 DUP3 MSTORE PUSH32 0x17307EAB39AB6107E8899845AD3D59BD9653F200F220920489CA2B5937696C31 SWAP2 ADD PUSH1 0x40 MLOAD DUP1 SWAP2 SUB SWAP1 LOG3 POP POP POP JUMP JUMPDEST PUSH1 0x1 PUSH1 0x1 PUSH1 0xA0 SHL SUB DUP4 AND EXTCODESIZE ISZERO PUSH2 0x8F6 JUMPI PUSH1 0x40 MLOAD PUSH4 0xA85BD01 PUSH1 0xE1 SHL DUP2 MSTORE PUSH1 0x1 PUSH1 0x1 PUSH1 0xA0 SHL SUB DUP5 AND SWAP1 PUSH4 0x150B7A02 SWAP1 PUSH2 0x1108 SWAP1 CALLER SWAP1 DUP9 SWAP1 DUP8 SWAP1 DUP8 SWAP1 PUSH1 0x4 ADD PUSH2 0x19A5 JUMP JUMPDEST PUSH1 0x20 PUSH1 0x40 MLOAD DUP1 DUP4 SUB DUP2 PUSH0 DUP8 GAS CALL SWAP3 POP POP POP DUP1 ISZERO PUSH2 0x1142 JUMPI POP PUSH1 0x40 DUP1 MLOAD PUSH1 0x1F RETURNDATASIZE SWAP1 DUP2 ADD PUSH1 0x1F NOT AND DUP3 ADD SWAP1 SWAP3 MSTORE PUSH2 0x113F SWAP2 DUP2 ADD SWAP1 PUSH2 0x19E1 JUMP JUMPDEST PUSH1 0x1 JUMPDEST PUSH2 0x11A9 JUMPI RETURNDATASIZE DUP1 DUP1 ISZERO PUSH2 0x116F JUMPI PUSH1 0x40 MLOAD SWAP2 POP PUSH1 0x1F NOT PUSH1 0x3F RETURNDATASIZE ADD AND DUP3 ADD PUSH1 0x40 MSTORE RETURNDATASIZE DUP3 MSTORE RETURNDATASIZE PUSH0 PUSH1 0x20 DUP5 ADD RETURNDATACOPY PUSH2 0x1174 JUMP JUMPDEST PUSH1 0x60 SWAP2 POP JUMPDEST POP DUP1 MLOAD PUSH0 SUB PUSH2 0x11A1 JUMPI PUSH1 0x40 MLOAD PUSH4 0x32505749 PUSH1 0xE1 SHL DUP2 MSTORE PUSH1 0x1 PUSH1 0x1 PUSH1 0xA0 SHL SUB DUP6 AND PUSH1 0x4 DUP3 ADD MSTORE PUSH1 0x24 ADD PUSH2 0x71E JUMP JUMPDEST DUP1 MLOAD DUP2 PUSH1 0x20 ADD REVERT JUMPDEST PUSH1 0x1 PUSH1 0x1 PUSH1 0xE0 SHL SUB NOT DUP2 AND PUSH4 0xA85BD01 PUSH1 0xE1 SHL EQ PUSH2 0x99D JUMPI PUSH1 0x40 MLOAD PUSH4 0x32505749 PUSH1 0xE1 SHL DUP2 MSTORE PUSH1 0x1 PUSH1 0x1 PUSH1 0xA0 SHL SUB DUP6 AND PUSH1 0x4 DUP3 ADD MSTORE PUSH1 0x24 ADD PUSH2 0x71E JUMP JUMPDEST PUSH1 0x60 PUSH1 0x7 DUP1 SLOAD PUSH2 0x611 SWAP1 PUSH2 0x1842 JUMP JUMPDEST PUSH1 0x60 PUSH0 PUSH2 0x1200 DUP4 PUSH2 0x13EC JUMP JUMPDEST PUSH1 0x1 ADD SWAP1 POP PUSH0 DUP2 PUSH8 0xFFFFFFFFFFFFFFFF DUP2 GT ISZERO PUSH2 0x121F JUMPI PUSH2 0x121F PUSH2 0x15F1 JUMP JUMPDEST PUSH1 0x40 MLOAD SWAP1 DUP1 DUP3 MSTORE DUP1 PUSH1 0x1F ADD PUSH1 0x1F NOT AND PUSH1 0x20 ADD DUP3 ADD PUSH1 0x40 MSTORE DUP1 ISZERO PUSH2 0x1249 JUMPI PUSH1 0x20 DUP3 ADD DUP2 DUP1 CALLDATASIZE DUP4 CALLDATACOPY ADD SWAP1 POP JUMPDEST POP SWAP1 POP DUP2 DUP2 ADD PUSH1 0x20 ADD JUMPDEST PUSH0 NOT ADD PUSH16 0x181899199A1A9B1B9C1CB0B131B232B3 PUSH1 0x81 SHL PUSH1 0xA DUP7 MOD BYTE DUP2 MSTORE8 PUSH1 0xA DUP6 DIV SWAP5 POP DUP5 PUSH2 0x1253 JUMPI POP SWAP4 SWAP3 POP POP POP JUMP JUMPDEST DUP1 DUP1 PUSH2 0x1298 JUMPI POP PUSH1 0x1 PUSH1 0x1 PUSH1 0xA0 SHL SUB DUP3 AND ISZERO ISZERO JUMPDEST ISZERO PUSH2 0x1359 JUMPI PUSH0 PUSH2 0x12A7 DUP5 PUSH2 0xDDA JUMP JUMPDEST SWAP1 POP PUSH1 0x1 PUSH1 0x1 PUSH1 0xA0 SHL SUB DUP4 AND ISZERO DUP1 ISZERO SWAP1 PUSH2 0x12D3 JUMPI POP DUP3 PUSH1 0x1 PUSH1 0x1 PUSH1 0xA0 SHL SUB AND DUP2 PUSH1 0x1 PUSH1 0x1 PUSH1 0xA0 SHL SUB AND EQ ISZERO JUMPDEST DUP1 ISZERO PUSH2 0x12E6 JUMPI POP PUSH2 0x12E4 DUP2 DUP5 PUSH2 0xD70 JUMP JUMPDEST ISZERO JUMPDEST ISZERO PUSH2 0x130F JUMPI PUSH1 0x40 MLOAD PUSH4 0xA9FBF51F PUSH1 0xE0 SHL DUP2 MSTORE PUSH1 0x1 PUSH1 0x1 PUSH1 0xA0 SHL SUB DUP5 AND PUSH1 0x4 DUP3 ADD MSTORE PUSH1 0x24 ADD PUSH2 0x71E JUMP JUMPDEST DUP2 ISZERO PUSH2 0x1357 JUMPI DUP4 DUP6 PUSH1 0x1 PUSH1 0x1 PUSH1 0xA0 SHL SUB AND DUP3 PUSH1 0x1 PUSH1 0x1 PUSH1 0xA0 SHL SUB AND PUSH32 0x8C5BE1E5EBEC7D5BD14F71427D1E84F3DD0314C0F7B2291E5B200AC8C7C3B925 PUSH1 0x40 MLOAD PUSH1 0x40 MLOAD DUP1 SWAP2 SUB SWAP1 LOG4 JUMPDEST POP JUMPDEST POP POP PUSH0 SWAP1 DUP2 MSTORE PUSH1 0x4 PUSH1 0x20 MSTORE PUSH1 0x40 SWAP1 KECCAK256 DUP1 SLOAD PUSH1 0x1 PUSH1 0x1 PUSH1 0xA0 SHL SUB NOT AND PUSH1 0x1 PUSH1 0x1 PUSH1 0xA0 SHL SUB SWAP3 SWAP1 SWAP3 AND SWAP2 SWAP1 SWAP2 OR SWAP1 SSTORE JUMP JUMPDEST PUSH2 0x1393 DUP4 DUP4 DUP4 PUSH2 0x14C3 JUMP JUMPDEST PUSH2 0xA9F JUMPI PUSH1 0x1 PUSH1 0x1 PUSH1 0xA0 SHL SUB DUP4 AND PUSH2 0x13C1 JUMPI PUSH1 0x40 MLOAD PUSH4 0x7E273289 PUSH1 0xE0 SHL DUP2 MSTORE PUSH1 0x4 DUP2 ADD DUP3 SWAP1 MSTORE PUSH1 0x24 ADD PUSH2 0x71E JUMP JUMPDEST PUSH1 0x40 MLOAD PUSH4 0x177E802F PUSH1 0xE0 SHL DUP2 MSTORE PUSH1 0x1 PUSH1 0x1 PUSH1 0xA0 SHL SUB DUP4 AND PUSH1 0x4 DUP3 ADD MSTORE PUSH1 0x24 DUP2 ADD DUP3 SWAP1 MSTORE PUSH1 0x44 ADD PUSH2 0x71E JUMP JUMPDEST PUSH0 DUP1 PUSH19 0x184F03E93FF9F4DAA797ED6E38ED64BF6A1F01 PUSH1 0x40 SHL DUP4 LT PUSH2 0x142A JUMPI PUSH19 0x184F03E93FF9F4DAA797ED6E38ED64BF6A1F01 PUSH1 0x40 SHL DUP4 DIV SWAP3 POP PUSH1 0x40 ADD JUMPDEST PUSH14 0x4EE2D6D415B85ACEF8100000000 DUP4 LT PUSH2 0x1456 JUMPI PUSH14 0x4EE2D6D415B85ACEF8100000000 DUP4 DIV SWAP3 POP PUSH1 0x20 ADD JUMPDEST PUSH7 0x2386F26FC10000 DUP4 LT PUSH2 0x1474 JUMPI PUSH7 0x2386F26FC10000 DUP4 DIV SWAP3 POP PUSH1 0x10 ADD JUMPDEST PUSH4 0x5F5E100 DUP4 LT PUSH2 0x148C JUMPI PUSH4 0x5F5E100 DUP4 DIV SWAP3 POP PUSH1 0x8 ADD JUMPDEST PUSH2 0x2710 DUP4 LT PUSH2 0x14A0 JUMPI PUSH2 0x2710 DUP4 DIV SWAP3 POP PUSH1 0x4 ADD JUMPDEST PUSH1 0x64 DUP4 LT PUSH2 0x14B2 JUMPI PUSH1 0x64 DUP4 DIV SWAP3 POP PUSH1 0x2 ADD JUMPDEST PUSH1 0xA DUP4 LT PUSH2 0x5FD JUMPI PUSH1 0x1 ADD SWAP3 SWAP2 POP POP JUMP JUMPDEST PUSH0 PUSH1 0x1 PUSH1 0x1 PUSH1 0xA0 SHL SUB DUP4 AND ISZERO DUP1 ISZERO SWAP1 PUSH2 0x151F JUMPI POP DUP3 PUSH1 0x1 PUSH1 0x1 PUSH1 0xA0 SHL SUB AND DUP5 PUSH1 0x1 PUSH1 0x1 PUSH1 0xA0 SHL SUB AND EQ DUP1 PUSH2 0x14FC JUMPI POP PUSH2 0x14FC DUP5 DUP5 PUSH2 0xD70 JUMP JUMPDEST DUP1 PUSH2 0x151F JUMPI POP PUSH0 DUP3 DUP2 MSTORE PUSH1 0x4 PUSH1 0x20 MSTORE PUSH1 0x40 SWAP1 KECCAK256 SLOAD PUSH1 0x1 PUSH1 0x1 PUSH1 0xA0 SHL SUB DUP5 DUP2 AND SWAP2 AND EQ JUMPDEST SWAP5 SWAP4 POP POP POP POP JUMP JUMPDEST PUSH1 0x1 PUSH1 0x1 PUSH1 0xE0 SHL SUB NOT DUP2 AND DUP2 EQ PUSH2 0xDD7 JUMPI PUSH0 DUP1 REVERT JUMPDEST PUSH0 PUSH1 0x20 DUP3 DUP5 SUB SLT ISZERO PUSH2 0x154C JUMPI PUSH0 DUP1 REVERT JUMPDEST DUP2 CALLDATALOAD PUSH2 0xD69 DUP2 PUSH2 0x1527 JUMP JUMPDEST PUSH0 PUSH1 0x20 DUP3 DUP5 SUB SLT ISZERO PUSH2 0x1567 JUMPI PUSH0 DUP1 REVERT JUMPDEST POP CALLDATALOAD SWAP2 SWAP1 POP JUMP JUMPDEST PUSH0 DUP2 MLOAD DUP1 DUP5 MSTORE DUP1 PUSH1 0x20 DUP5 ADD PUSH1 0x20 DUP7 ADD MCOPY PUSH0 PUSH1 0x20 DUP3 DUP7 ADD ADD MSTORE PUSH1 0x20 PUSH1 0x1F NOT PUSH1 0x1F DUP4 ADD AND DUP6 ADD ADD SWAP2 POP POP SWAP3 SWAP2 POP POP JUMP JUMPDEST PUSH1 0x20 DUP2 MSTORE PUSH0 PUSH2 0xD69 PUSH1 0x20 DUP4 ADD DUP5 PUSH2 0x156E JUMP JUMPDEST DUP1 CALLDATALOAD PUSH1 0x1 PUSH1 0x1 PUSH1 0xA0 SHL SUB DUP2 AND DUP2 EQ PUSH2 0x15C4 JUMPI PUSH0 DUP1 REVERT JUMPDEST SWAP2 SWAP1 POP JUMP JUMPDEST PUSH0 DUP1 PUSH1 0x40 DUP4 DUP6 SUB SLT ISZERO PUSH2 0x15DA JUMPI PUSH0 DUP1 REVERT JUMPDEST PUSH2 0x15E3 DUP4 PUSH2 0x15AE JUMP JUMPDEST SWAP5 PUSH1 0x20 SWAP4 SWAP1 SWAP4 ADD CALLDATALOAD SWAP4 POP POP POP JUMP JUMPDEST PUSH4 0x4E487B71 PUSH1 0xE0 SHL PUSH0 MSTORE PUSH1 0x41 PUSH1 0x4 MSTORE PUSH1 0x24 PUSH0 REVERT JUMPDEST PUSH0 PUSH8 0xFFFFFFFFFFFFFFFF DUP1 DUP5 GT ISZERO PUSH2 0x161F JUMPI PUSH2 0x161F PUSH2 0x15F1 JUMP JUMPDEST PUSH1 0x40 MLOAD PUSH1 0x1F DUP6 ADD PUSH1 0x1F NOT SWAP1 DUP2 AND PUSH1 0x3F ADD AND DUP2 ADD SWAP1 DUP3 DUP3 GT DUP2 DUP4 LT OR ISZERO PUSH2 0x1647 JUMPI PUSH2 0x1647 PUSH2 0x15F1 JUMP JUMPDEST DUP2 PUSH1 0x40 MSTORE DUP1 SWAP4 POP DUP6 DUP2 MSTORE DUP7 DUP7 DUP7 ADD GT ISZERO PUSH2 0x165F JUMPI PUSH0 DUP1 REVERT JUMPDEST DUP6 DUP6 PUSH1 0x20 DUP4 ADD CALLDATACOPY PUSH0 PUSH1 0x20 DUP8 DUP4 ADD ADD MSTORE POP POP POP SWAP4 SWAP3 POP POP POP JUMP JUMPDEST PUSH0 DUP1 PUSH0 DUP1 PUSH1 0x80 DUP6 DUP8 SUB SLT ISZERO PUSH2 0x168B JUMPI PUSH0 DUP1 REVERT JUMPDEST PUSH2 0x1694 DUP6 PUSH2 0x15AE JUMP JUMPDEST SWAP4 POP PUSH2 0x16A2 PUSH1 0x20 DUP7 ADD PUSH2 0x15AE JUMP JUMPDEST SWAP3 POP PUSH1 0x40 DUP6 ADD CALLDATALOAD SWAP2 POP PUSH1 0x60 DUP6 ADD CALLDATALOAD PUSH8 0xFFFFFFFFFFFFFFFF DUP2 GT ISZERO PUSH2 0x16C4 JUMPI PUSH0 DUP1 REVERT JUMPDEST DUP6 ADD PUSH1 0x1F DUP2 ADD DUP8 SGT PUSH2 0x16D4 JUMPI PUSH0 DUP1 REVERT JUMPDEST PUSH2 0x16E3 DUP8 DUP3 CALLDATALOAD PUSH1 0x20 DUP5 ADD PUSH2 0x1605 JUMP JUMPDEST SWAP2 POP POP SWAP3 SWAP6 SWAP2 SWAP5 POP SWAP3 POP JUMP JUMPDEST PUSH0 DUP1 PUSH1 0x40 DUP4 DUP6 SUB SLT ISZERO PUSH2 0x1700 JUMPI PUSH0 DUP1 REVERT JUMPDEST POP POP DUP1 CALLDATALOAD SWAP3 PUSH1 0x20 SWAP1 SWAP2 ADD CALLDATALOAD SWAP2 POP JUMP JUMPDEST PUSH0 DUP1 PUSH0 PUSH1 0x60 DUP5 DUP7 SUB SLT ISZERO PUSH2 0x1721 JUMPI PUSH0 DUP1 REVERT JUMPDEST PUSH2 0x172A DUP5 PUSH2 0x15AE JUMP JUMPDEST SWAP3 POP PUSH2 0x1738 PUSH1 0x20 DUP6 ADD PUSH2 0x15AE JUMP JUMPDEST SWAP2 POP PUSH1 0x40 DUP5 ADD CALLDATALOAD SWAP1 POP SWAP3 POP SWAP3 POP SWAP3 JUMP JUMPDEST PUSH0 DUP1 PUSH0 PUSH1 0x60 DUP5 DUP7 SUB SLT ISZERO PUSH2 0x175A JUMPI PUSH0 DUP1 REVERT JUMPDEST DUP4 CALLDATALOAD SWAP3 POP PUSH1 0x20 DUP5 ADD CALLDATALOAD SWAP2 POP PUSH2 0x1771 PUSH1 0x40 DUP6 ADD PUSH2 0x15AE JUMP JUMPDEST SWAP1 POP SWAP3 POP SWAP3 POP SWAP3 JUMP JUMPDEST PUSH0 PUSH1 0x20 DUP3 DUP5 SUB SLT ISZERO PUSH2 0x178A JUMPI PUSH0 DUP1 REVERT JUMPDEST PUSH2 0xD69 DUP3 PUSH2 0x15AE JUMP JUMPDEST PUSH0 PUSH1 0x20 DUP3 DUP5 SUB SLT ISZERO PUSH2 0x17A3 JUMPI PUSH0 DUP1 REVERT JUMPDEST DUP2 CALLDATALOAD PUSH8 0xFFFFFFFFFFFFFFFF DUP2 GT ISZERO PUSH2 0x17B9 JUMPI PUSH0 DUP1 REVERT JUMPDEST DUP3 ADD PUSH1 0x1F DUP2 ADD DUP5 SGT PUSH2 0x17C9 JUMPI PUSH0 DUP1 REVERT JUMPDEST PUSH2 0x151F DUP5 DUP3 CALLDATALOAD PUSH1 0x20 DUP5 ADD PUSH2 0x1605 JUMP JUMPDEST PUSH0 DUP1 PUSH1 0x40 DUP4 DUP6 SUB SLT ISZERO PUSH2 0x17E9 JUMPI PUSH0 DUP1 REVERT JUMPDEST PUSH2 0x17F2 DUP4 PUSH2 0x15AE JUMP JUMPDEST SWAP2 POP PUSH1 0x20 DUP4 ADD CALLDATALOAD DUP1 ISZERO ISZERO DUP2 EQ PUSH2 0x1806 JUMPI PUSH0 DUP1 REVERT JUMPDEST DUP1 SWAP2 POP POP SWAP3 POP SWAP3 SWAP1 POP JUMP JUMPDEST PUSH0 DUP1 PUSH1 0x40 DUP4 DUP6 SUB SLT ISZERO PUSH2 0x1822 JUMPI PUSH0 DUP1 REVERT JUMPDEST PUSH2 0x182B DUP4 PUSH2 0x15AE JUMP JUMPDEST SWAP2 POP PUSH2 0x1839 PUSH1 0x20 DUP5 ADD PUSH2 0x15AE JUMP JUMPDEST SWAP1 POP SWAP3 POP SWAP3 SWAP1 POP JUMP JUMPDEST PUSH1 0x1 DUP2 DUP2 SHR SWAP1 DUP3 AND DUP1 PUSH2 0x1856 JUMPI PUSH1 0x7F DUP3 AND SWAP2 POP JUMPDEST PUSH1 0x20 DUP3 LT DUP2 SUB PUSH2 0x1874 JUMPI PUSH4 0x4E487B71 PUSH1 0xE0 SHL PUSH0 MSTORE PUSH1 0x22 PUSH1 0x4 MSTORE PUSH1 0x24 PUSH0 REVERT JUMPDEST POP SWAP2 SWAP1 POP JUMP JUMPDEST PUSH1 0x1F DUP3 GT ISZERO PUSH2 0xA9F JUMPI DUP1 PUSH0 MSTORE PUSH1 0x20 PUSH0 KECCAK256 PUSH1 0x1F DUP5 ADD PUSH1 0x5 SHR DUP2 ADD PUSH1 0x20 DUP6 LT ISZERO PUSH2 0x189F JUMPI POP DUP1 JUMPDEST PUSH1 0x1F DUP5 ADD PUSH1 0x5 SHR DUP3 ADD SWAP2 POP JUMPDEST DUP2 DUP2 LT ISZERO PUSH2 0x99D JUMPI PUSH0 DUP2 SSTORE PUSH1 0x1 ADD PUSH2 0x18AB JUMP JUMPDEST DUP2 MLOAD PUSH8 0xFFFFFFFFFFFFFFFF DUP2 GT ISZERO PUSH2 0x18D8 JUMPI PUSH2 0x18D8 PUSH2 0x15F1 JUMP JUMPDEST PUSH2 0x18EC DUP2 PUSH2 0x18E6 DUP5 SLOAD PUSH2 0x1842 JUMP JUMPDEST DUP5 PUSH2 0x187A JUMP JUMPDEST PUSH1 0x20 DUP1 PUSH1 0x1F DUP4 GT PUSH1 0x1 DUP2 EQ PUSH2 0x191F JUMPI PUSH0 DUP5 ISZERO PUSH2 0x1908 JUMPI POP DUP6 DUP4 ADD MLOAD JUMPDEST PUSH0 NOT PUSH1 0x3 DUP7 SWAP1 SHL SHR NOT AND PUSH1 0x1 DUP6 SWAP1 SHL OR DUP6 SSTORE PUSH2 0x816 JUMP JUMPDEST PUSH0 DUP6 DUP2 MSTORE PUSH1 0x20 DUP2 KECCAK256 PUSH1 0x1F NOT DUP7 AND SWAP2 JUMPDEST DUP3 DUP2 LT ISZERO PUSH2 0x194D JUMPI DUP9 DUP7 ADD MLOAD DUP3 SSTORE SWAP5 DUP5 ADD SWAP5 PUSH1 0x1 SWAP1 SWAP2 ADD SWAP1 DUP5 ADD PUSH2 0x192E JUMP JUMPDEST POP DUP6 DUP3 LT ISZERO PUSH2 0x196A JUMPI DUP8 DUP6 ADD MLOAD PUSH0 NOT PUSH1 0x3 DUP9 SWAP1 SHL PUSH1 0xF8 AND SHR NOT AND DUP2 SSTORE JUMPDEST POP POP POP POP POP PUSH1 0x1 SWAP1 DUP2 SHL ADD SWAP1 SSTORE POP JUMP JUMPDEST PUSH0 DUP2 MLOAD DUP1 PUSH1 0x20 DUP5 ADD DUP6 MCOPY PUSH0 SWAP4 ADD SWAP3 DUP4 MSTORE POP SWAP1 SWAP2 SWAP1 POP JUMP JUMPDEST PUSH0 PUSH2 0x151F PUSH2 0x199F DUP4 DUP7 PUSH2 0x197A JUMP JUMPDEST DUP5 PUSH2 0x197A JUMP JUMPDEST PUSH1 0x1 PUSH1 0x1 PUSH1 0xA0 SHL SUB DUP6 DUP2 AND DUP3 MSTORE DUP5 AND PUSH1 0x20 DUP3 ADD MSTORE PUSH1 0x40 DUP2 ADD DUP4 SWAP1 MSTORE PUSH1 0x80 PUSH1 0x60 DUP3 ADD DUP2 SWAP1 MSTORE PUSH0 SWAP1 PUSH2 0x19D7 SWAP1 DUP4 ADD DUP5 PUSH2 0x156E JUMP JUMPDEST SWAP7 SWAP6 POP POP POP POP POP POP JUMP JUMPDEST PUSH0 PUSH1 0x20 DUP3 DUP5 SUB SLT ISZERO PUSH2 0x19F1 JUMPI PUSH0 DUP1 REVERT JUMPDEST DUP2 MLOAD PUSH2 0xD69 DUP2 PUSH2 0x1527 JUMP INVALID LOG2 PUSH5 0x6970667358 0x22 SLT KECCAK256 0xC4 0x4F DUP15 SLOAD PUSH4 0xCED9152B STOP 0xD1 0xF9 0xC 0xA9 0x2B PUSH9 0x1D14656B6888301B0C 0xDF 0xB6 SMOD AND PUSH22 0x5D7764736F6C63430008190033000000000000000000 "
				},
				"gasEstimates": {
					"creation": {
						"codeDepositCost": "1341200",
						"executionCost": "infinite",
						"totalCost": "infinite"
					},
					"external": {
						"adminAddress()": "2446",
						"approve(address,uint256)": "31509",
						"balanceOf(address)": "2675",
						"burnToken(uint256)": "infinite",
						"buyToken(uint256)": "infinite",
						"buyUserNft(uint256)": "infinite",
						"getApproved(uint256)": "infinite",
						"isApprovedForAll(address,address)": "infinite",
						"listNFTForSale(uint256,uint256)": "infinite",
						"mint(uint256,uint256)": "124275",
						"name()": "infinite",
						"onERC721Received(address,address,uint256,bytes)": "infinite",
						"owner()": "2419",
						"ownerOf(uint256)": "infinite",
						"readTokenInfo(uint256)": "2581",
						"renounceOwnership()": "infinite",
						"safeTransferFrom(address,address,uint256)": "infinite",
						"safeTransferFrom(address,address,uint256,bytes)": "infinite",
						"saleInfo(uint256)": "2504",
						"setAdmin(address)": "26836",
						"setApprovalForAll(address,bool)": "26723",
						"setBaseUri(string)": "infinite",
						"supportsInterface(bytes4)": "554",
						"symbol()": "infinite",
						"tokenURI(uint256)": "infinite",
						"tradeNFTs(uint256,uint256)": "infinite",
						"transferFrom(address,address,uint256)": "infinite",
						"transferOwnership(address)": "28421",
						"userMint(uint256,uint256,address)": "infinite"
					},
					"internal": {
						"_baseURI()": "infinite"
					}
				},
				"methodIdentifiers": {
					"adminAddress()": "fc6f9468",
					"approve(address,uint256)": "095ea7b3",
					"balanceOf(address)": "70a08231",
					"burnToken(uint256)": "7b47ec1a",
					"buyToken(uint256)": "2d296bf1",
					"buyUserNft(uint256)": "0a30c95b",
					"getApproved(uint256)": "081812fc",
					"isApprovedForAll(address,address)": "e985e9c5",
					"listNFTForSale(uint256,uint256)": "b2733b39",
					"mint(uint256,uint256)": "1b2ef1ca",
					"name()": "06fdde03",
					"onERC721Received(address,address,uint256,bytes)": "150b7a02",
					"owner()": "8da5cb5b",
					"ownerOf(uint256)": "6352211e",
					"readTokenInfo(uint256)": "1e24b8b4",
					"renounceOwnership()": "715018a6",
					"safeTransferFrom(address,address,uint256)": "42842e0e",
					"safeTransferFrom(address,address,uint256,bytes)": "b88d4fde",
					"saleInfo(uint256)": "02eb4b88",
					"setAdmin(address)": "704b6c02",
					"setApprovalForAll(address,bool)": "a22cb465",
					"setBaseUri(string)": "a0bcfc7f",
					"supportsInterface(bytes4)": "01ffc9a7",
					"symbol()": "95d89b41",
					"tokenURI(uint256)": "c87b56dd",
					"tradeNFTs(uint256,uint256)": "42421c98",
					"transferFrom(address,address,uint256)": "23b872dd",
					"transferOwnership(address)": "f2fde38b",
					"userMint(uint256,uint256,address)": "59e53f79"
				}
			},
			"storageLayout": {
				"storage": [
					{
						"astId": 317,
						"contract": "crop.sol:NFTOPIA",
						"label": "_name",
						"offset": 0,
						"slot": "0",
						"type": "t_string_storage"
					},
					{
						"astId": 319,
						"contract": "crop.sol:NFTOPIA",
						"label": "_symbol",
						"offset": 0,
						"slot": "1",
						"type": "t_string_storage"
					},
					{
						"astId": 323,
						"contract": "crop.sol:NFTOPIA",
						"label": "_owners",
						"offset": 0,
						"slot": "2",
						"type": "t_mapping(t_uint256,t_address)"
					},
					{
						"astId": 327,
						"contract": "crop.sol:NFTOPIA",
						"label": "_balances",
						"offset": 0,
						"slot": "3",
						"type": "t_mapping(t_address,t_uint256)"
					},
					{
						"astId": 331,
						"contract": "crop.sol:NFTOPIA",
						"label": "_tokenApprovals",
						"offset": 0,
						"slot": "4",
						"type": "t_mapping(t_uint256,t_address)"
					},
					{
						"astId": 337,
						"contract": "crop.sol:NFTOPIA",
						"label": "_operatorApprovals",
						"offset": 0,
						"slot": "5",
						"type": "t_mapping(t_address,t_mapping(t_address,t_bool))"
					},
					{
						"astId": 8,
						"contract": "crop.sol:NFTOPIA",
						"label": "_owner",
						"offset": 0,
						"slot": "6",
						"type": "t_address"
					},
					{
						"astId": 2992,
						"contract": "crop.sol:NFTOPIA",
						"label": "baseUri",
						"offset": 0,
						"slot": "7",
						"type": "t_string_storage"
					},
					{
						"astId": 3000,
						"contract": "crop.sol:NFTOPIA",
						"label": "saleInfo",
						"offset": 0,
						"slot": "8",
						"type": "t_mapping(t_uint256,t_struct(SaleInfo)2995_storage)"
					},
					{
						"astId": 3002,
						"contract": "crop.sol:NFTOPIA",
						"label": "adminAddress",
						"offset": 0,
						"slot": "9",
						"type": "t_address"
					}
				],
				"types": {
					"t_address": {
						"encoding": "inplace",
						"label": "address",
						"numberOfBytes": "20"
					},
					"t_bool": {
						"encoding": "inplace",
						"label": "bool",
						"numberOfBytes": "1"
					},
					"t_mapping(t_address,t_bool)": {
						"encoding": "mapping",
						"key": "t_address",
						"label": "mapping(address => bool)",
						"numberOfBytes": "32",
						"value": "t_bool"
					},
					"t_mapping(t_address,t_mapping(t_address,t_bool))": {
						"encoding": "mapping",
						"key": "t_address",
						"label": "mapping(address => mapping(address => bool))",
						"numberOfBytes": "32",
						"value": "t_mapping(t_address,t_bool)"
					},
					"t_mapping(t_address,t_uint256)": {
						"encoding": "mapping",
						"key": "t_address",
						"label": "mapping(address => uint256)",
						"numberOfBytes": "32",
						"value": "t_uint256"
					},
					"t_mapping(t_uint256,t_address)": {
						"encoding": "mapping",
						"key": "t_uint256",
						"label": "mapping(uint256 => address)",
						"numberOfBytes": "32",
						"value": "t_address"
					},
					"t_mapping(t_uint256,t_struct(SaleInfo)2995_storage)": {
						"encoding": "mapping",
						"key": "t_uint256",
						"label": "mapping(uint256 => struct NFTOPIA.SaleInfo)",
						"numberOfBytes": "32",
						"value": "t_struct(SaleInfo)2995_storage"
					},
					"t_string_storage": {
						"encoding": "bytes",
						"label": "string",
						"numberOfBytes": "32"
					},
					"t_struct(SaleInfo)2995_storage": {
						"encoding": "inplace",
						"label": "struct NFTOPIA.SaleInfo",
						"members": [
							{
								"astId": 2994,
								"contract": "crop.sol:NFTOPIA",
								"label": "salePrice",
								"offset": 0,
								"slot": "0",
								"type": "t_uint256"
							}
						],
						"numberOfBytes": "32"
					},
					"t_uint256": {
						"encoding": "inplace",
						"label": "uint256",
						"numberOfBytes": "32"
					}
				}
			},
			"userdoc": {
				"kind": "user",
				"methods": {},
				"version": 1
			}
		}
	}
}